:020000040800F2
:10000000480400209D010008CB120008A711000839
:10001000C9120008A9020008E91300080000000046
:100020000000000000000000000000003F13000876
:10003000AB02000800000000CD12000841130008C8
:10004000B7010008B7010008B7010008B7010008B0
:10005000B7010008B7010008B7010008B7010008A0
:10006000B7010008B7010008B7010008B701000890
:10007000B7010008B7010008B7010008B701000880
:10008000B7010008B7010008B7010008B701000870
:10009000B7010008B7010008B7010008B701000860
:1000A000B7010008B7010008B7010008B701000850
:1000B000B7010008B7010008B7010008B701000840
:1000C000B7010008B7010008B7010008B701000830
:1000D000B7010008B7010008B7010008B701000820
:1000E000B7010008D1120008B7010008B7010008E5
:1000F000B7010008B7010008B7010008B701000800
:10010000B7010008B7010008B7010008B7010008EF
:10011000B7010008B7010008B7010008B7010008DF
:10012000B7010008B7010008B7010008B7010008CF
:10013000B7010008B7010008B7010008B7010008BF
:10014000B7010008B7010008B7010008B7010008AF
:10015000B7010008B7010008B7010008B70100089F
:10016000B7010008B7010008B7010008B70100088F
:10017000B7010008B7010008B7010008000000003F
:10018000B7010008B7010008DFF80CD000F07AF8DA
:10019000004800472914000848040020064880470A
:1001A00006480047FEE7FEE7FEE7FEE7FEE7FEE75C
:1001B000FEE7FEE7FEE7FEE7CD1300088901000831
:1001C0002DE9F05F0546002092469B46884606468C
:1001D000814640241BE0284641464746224600F01F
:1001E00041F853465A46C01A914110D31146184659
:1001F000224600F028F82D1A67EB01084F462246E8
:100200000120002100F01FF817EB00094E41201ECD
:10021000A4F10104DFDC484631462A464346BDE8E6
:10022000F09FD2B201E000F8012B491EFBD27047CB
:100230000022F6E710B513460A4604461946FFF7B2
:10024000F0FF204610BD202A04DB203A00FA02F11C
:10025000002070479140C2F1200320FA03F31943B4
:1002600090407047202A04DB203A21FA02F0002156
:10027000704721FA02F3D040C2F1200291400843B6
:1002800019467047064C074D06E0E06840F0010350
:1002900094E8070098471034AC42F6D3FFF778FF94
:1002A0008C140008AC140008FEE7704770B50446D3
:1002B00000F0F6F80546601C02D0044800780444BB
:1002C00000F0EEF8401BA042FAD370BD04000020FD
:1002D0002DE9F84F00224FF0010803254FF00F0ED3
:1002E0000B6808FA02F42340A3426ED14E68012E37
:1002F00005D0022E03D0112E01D0122E12D1866805
:100300004FEA420C05FA0CF7BE43CF6807FA0CF728
:10031000374387604668A6430C79C4F300149440C1
:1003200034434460C668570005FA07FC8C6826EA27
:100330000C06BC403443C4604C68022C01D0122C23
:1003400013D1D40800EB8404A346D4F820905407BA
:100350004FEAD46A0EFA0AF629EA06090E6906FA85
:100360000AF646EA0906CBF8206006680C7926EA08
:100370000C0604F00304BC40344304604C68E40001
:1003800065D5364C266846F480462660246822F0FF
:10039000030604F480440094314C3444A446D4F859
:1003A00008489607370F0EFA07F6B4432D4EB042B1
:1003B00001D1002624E02C4EB04201D101261FE0DD
:1003C0002A4EB04202D102261AE040E0284EB04246
:1003D00001D1032614E0274EB04201D104260FE0DC
:1003E000254EB04201D105260AE0244EB04201D18B
:1003F000062605E0224EB04201D1072600E008267D
:10040000BE402643CCF808681E4E34684F689C43B3
:10041000FF0300D51C4334601A4C241D26684F6826
:100420009E43BF0300D51E432660164E083634682F
:100430004F689C43FF0200D51C433460114E0C36BC
:1004400034684F689C43BF0200D51C433460521C83
:10045000102AFFF445AFBDE8F88F00004438024091
:100460000030014000000240000402400008024049
:10047000000C02400010024000140240001802402C
:10048000001C0240003C0140426931EA020200D1F6
:100490000904816170470AB1816170470904FBE773
:1004A000014880687047000004000020024881680D
:1004B0000278114481607047040000200B4810B599
:1004C000016841F400710160016841F480610160DC
:1004D000016841F480710160032000F06FF8002092
:1004E00000F006F800F024F8002010BD003C0240A7
:1004F00070B50D4D04464FF47A712878B1FBF0F0D9
:100500000A490968B1FBF0F000F039FE48B9102C37
:1005100007D200222146501E00F030F800206C6007
:1005200070BD012070BD00000400002010000020FC
:100530000A4808B5016841F480410160006800F490
:10054000804000900548001F016841F08051016023
:10055000006800F08050009008BD00004438024060
:10056000002809DB00F01F020121914040098000B2
:1005700000F1E020C0F8001170470000F0B40E4B0D
:100580001B680C46C3F30223C3F10705042D00D9F1
:100590000425191D072901D2002300E0DB1E0126D6
:1005A00006FA05F1491E214099409E40761E1640EC
:1005B0003143F0BC00F019BF0CED00E0064900F03B
:1005C000070208684FF6FF03184040EA0220034A7A
:1005D00010430860704700000CED00E00000FA05D1
:1005E0002DE9F843054600684FF00109C1074FF0B7
:1005F000000601D1400727D5DFF80C81C8F86860F4
:10060000FFF74EFF0746414C05E000BFFFF748FFEC
:10061000C01B022857D820680001F7D46868810100
:10062000287A41EA0070394984310860C8F8689036
:10063000FFF736FF074604E0FFF732FFC01B022832
:1006400041D820680001F7D52878800752D52F4877
:100650004030016841F08051016000682C4C00F08E
:1006600080500090206840F480702060FFF718FFF1
:10067000074604E0FFF714FFC01B022823D82068B8
:10068000C005F7D5214C7034206810F4407020D09C
:10069000A98901F4407181421BD020681D4920F4D2
:1006A0004070C1F800900E6020602068C00710D034
:1006B000FFF7F6FE064641F2883707E0FFF7F0FE47
:1006C000801BB84202D90320BDE8F8832068800768
:1006D000F4D5E9680D48C1F301220830032A0BD094
:1006E000016821F4F81101602068A989C1F30B01A8
:1006F000084320600020E7E70268074B22F4F81265
:1007000019400A430260EFE7000047420038024008
:1007100000700040400E4742FFFCFF0F2DE9F047FC
:100720000E46050065D0DFF81481D8F80000F7B256
:1007300000F00F00B04207D288F80070D8F800002F
:1007400000F00F00B04254D128683D4C810712D50B
:10075000400703D5206840F4E05020602878000767
:1007600003D5206840F4604020602068A96820F02C
:10077000F000084320602878C0072DD03049686811
:100780000839012812D0022813D0032811D0096893
:10079000890700292DDA216821F003010143216036
:1007A000FFF77EFE814641F2883A0EE00968890330
:1007B000EFE709688901ECE7FFF772FEA0EB09019A
:1007C000514502D90320BDE8F0872068696800F030
:1007D0000C00B0EB810FEFD1D8F80010404601F0CB
:1007E0000F01B14207D90770006800F00F00B04256
:1007F00001D00120E7E72878400705D52068E9689F
:1008000020F4E050084320602878000706D52068CF
:10081000296920F4604040EAC100206000F018F827
:100820002168084AC1F30311515CC84006490860B9
:1008300006480068FFF75CFE0020C4E7003C024069
:10084000083802407C140008100000200800002036
:10085000154810B5006810F00C02144813D0144964
:10086000042A0FD0082A0ED10F4C241F22682368B7
:1008700002F03F025B0207D52068C0F38810A0FB9E
:10088000010106E0084610BD2168C1F38811A1FBF3
:1008900000010023FFF794FC2168C1F30141491CCA
:1008A0004900B0FBF1F010BD083802400024F4000C
:1008B00040787D012DE9F84F040076D02078DFF8EC
:1008C00038A3CE4DC00749D0DAF800105046C1F326
:1008D0008101012908D00068C0F3810002280AD1F3
:1008E000281D0068400206D52868800336D5606858
:1008F0000028E2D032E06068B0F5803F10D0B0F55B
:10090000A02F286810D020F480302860286820F4B8
:10091000802028606068A0B1FFF7C2FD06460CE0A9
:10092000286840F48030F4E740F480202860F7E73E
:10093000FFF7B6FD801B642873D828688003F7D5BD
:100940000CE0FFF7ADFD064605E000BFFFF7A8FD90
:10095000801B6428F0D828688003F7D42078DFF85B
:10096000A08280074FF000093ED5DAF8001050460B
:1009700011F00C0F09D00068C0F3810002280BD1E0
:100980009D48001F0068400206D42868800715D5DE
:10099000E068012809D111E0E068B8B10120C8F889
:1009A0000000FFF77DFD064605E020E1FFF778FD3A
:1009B000801B0228C0D828688007F7D528682169DD
:1009C00020F0F80040EAC10028600DE0C8F800906F
:1009D000FFF766FD064604E0FFF762FD801B022874
:1009E0001FD828688007F7D42078000722D5824EC8
:1009F000844861696C3671B101210160FFF750FDD7
:100A0000074604E0FFF74CFDC01B022809D83068F8
:100A10008007F7D50EE0C0F80090FFF741FD0746CC
:100A200005E082E0FFF73CFDC01B02287DD830685E
:100A30008007F7D42078400768D5DFF8BCB10027DD
:100A40000BF1380BDBF80000C0000BD4DBF8001012
:100A500041F08051CBF80010DBF80000012700F0D6
:100A600080500090684E3068C00510D4306840F463
:100A700080703060FFF714FD009005E0FFF710FD77
:100A80000099401A022850D83068C005F6D55A4E51
:100A9000A068683601280FD00528306810D020F0F3
:100AA00001003060306820F004003060A068B8B108
:100AB000FFF7F6FC00900FE0306840F00100F4E72B
:100AC00040F004003060F7E7FFF7EAFC0099411AB4
:100AD00041F28830814266D830688007F4D50EE054
:100AE000FFF7DEFC009007E0FFF7DAFC0099411AFF
:100AF00041F28830814256D830688007F4D42FB153
:100B0000DBF8001021F08051CBF80010A069D0B3C1
:100B1000DAF800205146C2F38102022A4AD00228A4
:100B2000484607D0C8F8600000E03CE0FFF7B8FC9A
:100B300004463BE04746C8F86000FFF7B1FC0646B4
:100B400005E000BFFFF7ACFC801B02282BD828680B
:100B50008001F7D4D4E907010843A16A2B4A490868
:100B600002EB0141626A41EA8211084394F82C10B9
:100B700040EA01612048001F016001203866FFF74C
:100B80008FFC044605E034E0FFF78AFC001B0228D6
:100B900009D828688001F7D52BE000BFFFF780FC5B
:100BA000001B022802D90320BDE8F88F28688001C5
:100BB000F4D41EE00128F7D00868E26900F480014F
:100BC000914214D1226A00F03F0191420FD147F6C1
:100BD000C071626A0140914209D1A26A00F44031B9
:100BE000914204D1E16A00F07060884201D0012096
:100BF000DAE70020D8E70000083802400038024059
:100C000000004742800E4742007000400000FFFF96
:100C10007047000070B501220A4D14032146284692
:100C2000FFF739FC4FF4FA763046FFF73FFB00221E
:100C300021462846FFF72FFC3046BDE87040FFF7FD
:100C400035BB0000000C024010B504460068816806
:100C5000C9040CD5C068C00509D52046FFF7DAFFE6
:100C60002068C16801F0800161F4C071C160206832
:100C7000816889040CD5C068800509D52046FFF736
:100C8000C7FF2068C16801F0800161F42071C16074
:100C900003494FF4003008600120607710BD000068
:100CA000143C014010B500680B4641680D480140F6
:100CB000080CD870C1F304245C7001F03F049C70F0
:100CC000C1F34231197052B900F008FBD87058785E
:100CD00000F004FB5870987800F000FB987000203A
:100CE00010BD00003FFFFF0010B50B460168896A88
:100CF000596001680969C1F30E01996000680168D3
:100D00000E480140C1F305401870C1F306245C7021
:100D100001F07F049C70402404EA1141D97052B95B
:100D200000F0DCFA1870587800F0D8FA587098780B
:100D300000F0D4FA9870002010BD00007F7F7F0083
:100D400070B5040002D0607F10B106E0012070BDD4
:100D500000202077204600F049F8022060772168C3
:100D6000CA204862216853204862204600F0CAFA2F
:100D7000FF25042618BB206881681B4A114081604A
:100D80002168886862681043D4E904231A43104339
:100D900088602168E068086120680169228941EA69
:100DA000024101612068C16821F08001C1602068B2
:100DB0008068800607D4204600F0C6F918B1206884
:100DC00045626677C2E72068016C21F480210164E6
:100DD0002068016CA269114301642068456201200A
:100DE0006077002070BD0000BFFF8FFF10B5006866
:100DF000084988420CD108490120086001460022B8
:100E00002920FFF7BBFBBDE810402920FFF7A8BB56
:100E100010BD0000002800403C0E4742F8B50346D4
:100E20005A480C464FF4FA410068B0FBF1F0491102
:100E300048430090187F012863D001261E770220C6
:100E4000587718680025002A80684FEA40605AD019
:100E5000002800DBE570A0782278E77840EA0240BD
:100E60006278E169120242EA0742104394F82020B6
:100E700040EA026008436169A269084361681F682B
:100E80001143CA227A621F6853227A62626AFF277C
:100E9000B2F5807F1A684FF0030C94684ED024F4AA
:100EA000007494601A68D46804F0800464F42074B8
:100EB000D4601A68009CB4F1010ECDF800E05ED356
:100EC000D468A407F6D51062186881641868816830
:100ED00041F4007181601868816841F400518160BB
:100EE0002B48016841F4003101602948083001684D
:100EF00041F400310160186847625E771D77002079
:100F0000F8BD0220F8BD002800DBE570207800F075
:100F1000EEF90204607800F0EAF942EA0022A078D3
:100F200000F0E5F90243E07842EA004294F820003C
:100F300000F0DDF942EA0060E1699BE724F4807487
:100F400094601A68D46804F0800464F4C074D460B7
:100F50001A68009CB4F1010ECDF800E00FD3D468FC
:100F6000E407F6D0D061186841641868816841F4DC
:100F7000807181601868816841F48051AFE75762E1
:100F800083F81DC01D770320F8BD0000100000206D
:100F9000003C01402DE9F0470446007F0B46012844
:100FA0001FD04FF0010984F81C9002206077DAB15D
:100FB0009878D97840EA014558781978000240EAD3
:100FC000413005432168CA204862216853204862A5
:100FD000204600F097F90026FF274FF0040860BB79
:100FE0001AE00220BDE8F0875878C10603D500F06A
:100FF000EF000A305870D87800F079F90204587878
:1010000000F075F942EA0022987800F070F9024386
:10101000187842EA4035D5E70F480540206845601A
:101020002068C16821F08001C16020688068800666
:101030000AD4204600F088F830B12068476284F86E
:101040001D8026770120CDE72068476284F81D9037
:1010500026770020C6E700003FFFFF002DE9F0479C
:101060000446007F0D46012827D04FF0010A84F87E
:101070001CA0022060772068002680684FEA40604C
:10108000F2B1002800DBEE70A878297840EA014729
:101090006878E978000240EA014007432168CA20E5
:1010A0004862216853204862204600F02BF94FF037
:1010B000FF084FF00409A0BB16E00220BDE8F0874E
:1010C000002800DBEE70287800F011F9020468783F
:1010D00000F00DF942EA0022A87800F008F9024376
:1010E000E87842EA0047D9E71648074020680760D9
:1010F0002068816821F480218160D5E903010843DB
:1011000021688A68104388602068C16821F08001E6
:10111000C1602068806880060BD4204600F014F877
:1011200038B12168C1F8248084F81D902677012009
:10113000C4E72168C1F8248084F81DA02677002028
:10114000BCE700007F7F7F0070B504460068C1687F
:1011500021F0A001C160FFF7A3F905464FF47A76AC
:1011600007E000BFFFF79CF9401BB04201D9032004
:1011700070BD2068C0688006F4D5002070BD10B531
:10118000401EB0F1807F01D3012010BD4FF0E0245C
:1011900060610F21601700F028F90020A06107208E
:1011A0002061002010BDFEE7F0B587B0142168462D
:1011B000FFF73EF815480024016841F0080101607E
:1011C0000068134F00F008004FF480550590224648
:1011D00029463846FFF75FF96E000022314638464F
:1011E000FFF759F90320CDE9024000950125694632
:1011F00001953846FFF76CF80096CDE90154694631
:1012000038460394FFF764F807B0F0BD3038024069
:10121000000C024010B590B014210AA8FFF708F89E
:101220000024282168460F94FFF702F82548244936
:10123000C0E900147F218160FF21C0E903144461EB
:101240008461FFF77DFD17208DF828003B208DF885
:10125000290037208DF82A000D9400220AA9194888
:101260000E94FFF7FBFE02208DF83C0012208DF853
:101270003D001F208DF83E0013208DF83F00002216
:101280000FA91048FFF786FE8DF800408DF8014049
:1012900005208DF8020001948007CDE906400394F3
:1012A00003208DF8200004944FF480700990059479
:1012B000002269460348FFF7B1FD10B010BD0000E1
:1012C0000028004014000020FEE77047704700002F
:1012D0000148FFF7B9BC000014000020010901EB30
:1012E000810100F00F0000EB4100C0B27047002107
:1012F00002E00A38C0B2491C0A28FAD2090740EABB
:101300001160704770B504460068C168490614D47E
:101310004FF0FF31C160FFF7C3F805464FF47A760E
:1013200007E000BFFFF7BCF8401BB04201D9032023
:1013300070BD2068C0684006F4D5002070BD7047BD
:10134000FFF7B4B810B596B030216846FEF770FFCD
:1013500014210CA8FEF76CFF00241A481194129473
:1013600013941494016841F080510160006800F00A
:10137000805015901448016841F480410160006874
:10138000102100F4804015900A2000900120CDE942
:101390000301CDE905046846FFF78CFA0F20CDE97B
:1013A0000C040E940F9400210CA81094FFF7B6F9CA
:1013B000022011900002149011A8FFF711F916B045
:1013C00010BD000040380240007000400548016830
:1013D00041F47001016003494FF0006080390860FA
:1013E0007047000088ED00E0FEE70907090E0028BD
:1013F00004DB00F1E02080F80014704700F00F00DB
:1014000000F1E02080F8141D704702E008C8121FA8
:1014100008C1002AFAD170477047002001E001C1DD
:10142000121F002AFBD17047FFF748F8FFF78AFF29
:10143000FFF7BAFEFFF7EEFE002201212920FFF799
:101440009DF80B4D4FF400540A490022A1F12000F1
:10145000FFF74AFC0748002207492038FFF722FC23
:1014600021462846FFF710F8C820FEF71FFFEBE7DC
:10147000000C0240340000200000002000000000AA
:10148000000000000102030406070809AC1400086C
:1014900000000020140000000A140008C014000816
:1014A00014000020340400001A140008000000009A
:1014B0000100000010000000000000000024F40003
:040000050800018965
:00000001FF
