:020000040800F2
:10000000080900209D0100089B2E000851200008CF
:10001000992E000809080008A53200080000000019
:10002000000000000000000000000000FD3100089A
:10003000A9080008000000009D2E0008FF310008FC
:10004000B7010008B7010008B7010008B7010008B0
:10005000B7010008B7010008AB080008B7010008A5
:10006000B7010008B7010008B7010008210800081F
:10007000B7010008B7010008B7010008B701000880
:10008000B7010008B7010008B7010008B701000870
:10009000B7010008B7010008B7010008B701000860
:1000A000B7010008B7010008B7010008B701000850
:1000B000B7010008B7010008B70100088121000856
:1000C000B7010008B7010008B7010008B701000830
:1000D000B7010008B7010008B7010008B701000820
:1000E000B7010008B7010008B7010008B701000810
:1000F000B7010008B7010008B7010008B701000800
:10010000B7010008B7010008B7010008B7010008EF
:10011000B7010008B7010008B7010008B7010008DF
:10012000B7010008B7010008B7010008B7010008CF
:10013000B7010008B7010008B7010008B7010008BF
:10014000B7010008B7010008B7010008B7010008AF
:10015000B7010008B7010008B7010008B70100089F
:10016000B7010008B7010008B7010008B70100088F
:10017000B7010008B7010008B7010008000000003F
:10018000B7010008B7010008DFF80CD000F02AFB27
:1001900000480047313C0008080900200648804715
:1001A00006480047FEE7FEE7FEE7FEE7FEE7FEE75C
:1001B000FEE7FEE7FEE7FEE7893200088901000856
:1001C0002DE9F05F0546002092469B46884606468C
:1001D000814640241BE0284641464746224600F01F
:1001E000ACF953465A46C01A914110D311461846ED
:1001F000224600F093F92D1A67EB01084F4622467C
:100200000120002100F08AF917EB00094E41201E61
:10021000A4F10104DFDC484631462A464346BDE8E6
:10022000F09FD2B201E000F8012B491EFBD27047CB
:100230000022F6E710B513460A4604461946FFF7B2
:10024000F0FF204610BD2DE9FE4F804681EA0300F5
:10025000C00F0C46009021F0004123F00045B8EBA0
:100260000200A94105D24046214690461C460B4655
:10027000024623F00040104347D0270DC7F30A0081
:10028000C3F30A510290401A019040286BDAC3F37D
:10029000130040F4801B0098924620B10023D2EB5B
:1002A000030A63EB0B0B01985946C0F1400250461C
:1002B00000F034F906460D4650465946019A00F0C2
:1002C0004CF910EB08006141002487EA115284EADE
:1002D000E7731A4340D0009A62B3019A012A4FEAA9
:1002E000075215DC001B61EB02014FF0004202EAED
:1002F0000752CDE90042001C41F5801132462B46E1
:1003000000F083F903B0BDE8F08F40462146F9E7DD
:10031000001B61EB0201001C41F5801300185B41DA
:100320002018A2F5001747EB030140EAD570B61973
:100330006D4111E06D084FEA360645EAC0754FEA97
:100340000752001B61EB0201001C41F580114908B6
:100350004FEA30000019514132462B4603B0BDE848
:10036000F04F00F043B90098012240000023D0EB89
:10037000020263EBE073009821464FEAE074B8EBA9
:10038000000061EB0401E9E783F000435BE781F0E3
:10039000004158E72DE9FE4F81EA030404F00044D0
:1003A00021F0004100944FF0000B23F0004350EA8D
:1003B00001045ED052EA03045BD0C3F30A54C1F3D4
:1003C0000A552C44A4F2F3340194A0FB0254C1F367
:1003D000130141F48011C3F3130343F4801301FBB1
:1003E000024400FB034E840A970A44EA815447EA18
:1003F0008357A4FB076802958D0A05FB07854FEA22
:10040000932C04FB0C542705029D4FEA065847EA3B
:100410001637B5EB08056EEB070C870E920E47EA10
:10042000811742EA8312A7FB0201B6EB0B0164EBD2
:1004300000042B0D43EA0C335E1844EB1C50DA46E3
:100440005146E7FB0201C5F313044FEA0B3343EABD
:1004500014534FEA0432019C43EA0603A4F10C044E
:100460000294009CCDE900B400F0CFF803B0BDE8E1
:10047000F08F00200146F9E70EB540F233410291BA
:100480000021CDE900110A460B4600F0BEF803B08A
:1004900000BD00F0004230F000400AD0C10D01F56F
:1004A0006071C0F3160042EA0151C20840071143CF
:1004B000704700200146704701F0004330B421F03E
:1004C000004150EA010206D00A0DA2F56072C1F3A4
:1004D0001301002A02DC30BC00207047440F44EABC
:1004E000C104C100E01830BC00EBC25000F047B8B6
:1004F00030B50B46014600202022012409E021FAF4
:1005000002F59D4205D303FA02F5491B04FA02F5F0
:100510002844151EA2F10102F1DC30BD202A04DBC3
:10052000203A00FA02F1002070479140C2F1200306
:1005300020FA03F3194390407047202A04DB203A45
:1005400021FA02F00021704721FA02F3D040C2F1F3
:1005500020029140084319467047202A06DBCB173A
:10056000203A41FA02F043EAE07306E041FA02F36E
:10057000D040C2F12002914008431946704700293B
:10058000A8BF7047401C490008BF20F00100704719
:1005900010B4B0FA80FC00FA0CF050EA010404BF79
:1005A00010BC704749B1CCF1200421FA04F411FACF
:1005B0000CF118BF012121430843A3EB0C01CB1D13
:1005C0004FEA00614FEA102042BF002010BC704784
:1005D00000EBC35010440029A4BF10BC7047401C5E
:1005E000490008BF20F0010010BC704710B5141E70
:1005F00073F1000408DA401C41F1000192185B41DC
:100600001A4301D120F0010010BD2DE9F04D9246B2
:100610009B4611B1B1FA81F202E0B0FA80F22032C9
:100620009046FFF77BFF04460F4640EA0A0041EA86
:100630000B0153465A46084313D0114653EA0100B2
:1006400019D0C8F140025046FFF777FF05460E4625
:10065000504659464246FFF761FF084305D0012046
:1006600004E020463946BDE8F08D0020054346EA07
:10067000E0762C4337430A986305E40AA0EB0800B0
:100680000022FD0A44EA47540A3002D50020014600
:10069000E9E7010510196941DDE9084500196941DB
:1006A000BDE8F04DA2E72DE9F04D81EA030404F026
:1006B000004B21F0004514464FF0000A23F00041A2
:1006C00050EA050220D054EA01021DD0C5F30A57B2
:1006D0000246C5F31303C1F31300C1F30A5640F4F5
:1006E000801543F48013A7EB0608101BD64608F2CA
:1006F000FD3873EB050002D308F1010801E0921800
:100700005B41B8F1000F03DA00200146BDE8F08D2F
:1007100000204FF48011064684460EE0171B73EB51
:10072000050705D3121B63EB050306434CEA010CD6
:1007300049084FEA300092185B4150EA0107EDD1B9
:1007400052EA030012D082EA040083EA050108435A
:1007500005D0101BAB4106D20122002306E0002287
:100760004FF0004302E06FF0010253101AEB060055
:100770004CEB085110EB0A0041EB0B01BDE8F04DCA
:10078000FFF734BFC1F30A52C1F3130140F2FF3344
:1007900041F480119A4202DA00200146704740F28B
:1007A00033439A42A2F2334202DC5242FFF7C5BE03
:1007B000FFF7B4BE30B5041E71F1000404DB4FF046
:1007C0000044404264EB0101141E73F1000405DB98
:1007D0001C464FF00043524263EB0403994208BFAA
:1007E000904230BD064C074D06E0E06840F0010342
:1007F00094E8070098471034AC42F6D3FFF7C8FCE2
:10080000A06E0008C06E0008FEE70A21B0FBF1F2FE
:1008100001FB1202B0FBF1F002EB0010C0B2704716
:10082000014800F0E5B80000A80000200168182386
:10083000CAB2103AB2FBF3F2054B6FF30901032A77
:100840009B5CC36500D9091D81650846704700009F
:10085000806E000810B5014600208B698A6A4FF04F
:10086000C07453B1B3F5005F15D072B1012A0CD03A
:10087000022A0AD0032A09D104E01AB1012A06D0BB
:10088000022A03D1C96AC90100D5012010BDC96A75
:10089000A142FAD010BD002AF7D0012AF2D0022AD4
:1008A000F3D0032AF3D010BD7047012000F008BA3E
:1008B0007047000010B5154C4FF47A702DED028B87
:1008C00084B002210094CDE9011001231122D0212E
:1008D0000F4800F02FFE60788009FFF7CDFD9FEDF7
:1008E0000D1B53EC112BFFF755FD41EC180B207835
:1008F000FFF7C2FD53EC182BFFF7A5FCFFF7DCFD5B
:1009000004B000EE100ABDEC028B10BD0700002001
:1009100040000020000000000000D03F3EB5274C02
:100920004FF47A7007210094CDE9011001230022D1
:10093000D021234800F0FEFD207800F00F010009CF
:1009400000EB800001EB4001A4F110000170617820
:1009500001F00F02090901EB810102EB4101417035
:10096000A17801F00F02090901EB810102EB4101BD
:100970008170E17801F00F02090901EB810102EBBE
:100980004101C170217901F00F02090901EB8101D8
:1009900002EB41010171617901F00F02090901EBDC
:1009A000810102EB41014171A17901F00F020909B6
:1009B00001EB810102EB410181713EBD100000207D
:1009C0004000002090F83510022903D080214165B5
:1009D00001207047052180F835100068016821F07A
:1009E000010101600020704790F835007047000059
:1009F0002DE9F84304464FF00009CDF80090634814
:100A00004FF41651A56D0068B0FBF1F72E6894F80D
:100A10005C10082000FA01F131420FD021680A6809
:100A200052070BD50A6822F004020A6094F85C10A1
:100A30008840A860606D40F00100606594F85C102B
:100A40004FF0010808FA01F0304208D021684969E6
:100A5000090604D5A860606D40F00200606594F856
:100A60005C1004208840304208D02168096889075A
:100A700004D5A860606D40F00400606594F85C10D7
:100A800010208840304218D021680968090714D521
:100A9000A86020680168490304D50068000308D5F0
:100AA000A16C07E00168C90503D4016821F00801C1
:100AB0000160216C09B12046884794F85C10202021
:100AC0008840304231D021680968C9062DD5A86018
:100AD00094F8350005282068016806D0490347D5F9
:100AE000006800031DD4616C1CE021F01601016058
:100AF0002068416921F080014161206C08B9A06C37
:100B000020B12068016821F00801016094F85C10B0
:100B10003F208840A86084F8349084F83580216DA7
:100B20001FE0E16B09B120468847606D00282BD09B
:100B3000606DC00714D0052084F835002068016876
:100B400021F0010101600098401C0090B84203D8D8
:100B500020680068C007F6D184F8349084F83580A6
:100B6000E16C002910D001B02046BDE8F0430847F1
:100B70000168C905D5D4016821F01001016084F82D
:100B8000349084F83580CCE7BDE8F8833C00002041
:100B90002DE9F041044600F081F906465CB10025DC
:100BA00084F83450022084F835002068016821F070
:100BB000010101600DE00120BDE8F08100F06EF957
:100BC000801B052805D920206065032084F83500A6
:100BD000F2E720680068C007F0D122681168204859
:100BE0000140D4E901031843D4E9033633431843E1
:100BF00063691843A3691843E3691843236A1843D8
:100C00000843616A042903D1D4E90B13194308434B
:100C1000106020684069666A20F0070130460E4384
:100C2000012704280CD1A06A0643E06A40B120469F
:100C3000FFF710FE20B14020606584F83570BAE7F8
:100C4000206846612046FFF7F1FD94F85C203F21C3
:100C500091408160656584F835700020ACE7000044
:100C60003F8010F01CB5012825D10020FFF7CDFDF5
:100C7000114B18702720FFF7C8FD58701520FFF79B
:100C8000C4FD98700320FFF7C0FDD8701220FFF755
:100C9000BCFD18710220FFF7B8FD58711420FFF752
:100CA000B4FD98710720CDE9003001230022D02146
:100CB000024800F0D3FD1CBD1700002040000020BA
:100CC000044910B50A68024202D00860FFF7CAFF63
:100CD00010BD0000143C01402DE9F84F00224FF0F8
:100CE000010803254FF00F0E0B6808FA02F42340A9
:100CF000A3426ED14E68012E05D0022E03D0112ED4
:100D000001D0122E12D186684FEA420C05FA0CF778
:100D1000BE43CF6807FA0CF7374387604668A6439F
:100D20000C79C4F30014944034434460C6685700FF
:100D300005FA07FC8C6826EA0C06BC403443C46004
:100D40004C68022C01D0122C13D1D40800EB84047F
:100D5000A346D4F8209054074FEAD46A0EFA0AF654
:100D600029EA06090E6906FA0AF646EA0906CBF8E8
:100D7000206006680C7926EA0C0604F00304BC40E7
:100D8000344304604C68E40065D5364C266846F46C
:100D900080462660246822F0030604F48044009410
:100DA000314C3444A446D4F808489607370F0EFA5D
:100DB00007F6B4432D4EB04201D1002624E02C4E5C
:100DC000B04201D101261FE02A4EB04202D10226D4
:100DD0001AE040E0284EB04201D1032614E0274E2D
:100DE000B04201D104260FE0254EB04201D10526C4
:100DF0000AE0244EB04201D1062605E0224EB04260
:100E000001D1072600E00826BE402643CCF808683A
:100E10001E4E34684F689C43FF0300D51C4334606A
:100E20001A4C241D26684F689E43BF0300D51E43FD
:100E30002660164E083634684F689C43FF0200D582
:100E40001C433460114E0C3634684F689C43BF021B
:100E500000D51C433460521C102AFFF445AFBDE896
:100E6000F88F00004438024000300140000002408A
:100E70000004024000080240000C02400010024042
:100E80000014024000180240001C0240003C0140D7
:100E90000AB1816170470904FBE7000001488068DE
:100EA0007047000030000020704770472DE9F04186
:100EB000026800245168C56A90F83E3090F83D60A1
:100EC000102B1CD0402B1AD0036C002B7ED0536902
:100ED0004FF02805DB439F0779D4CF43BF0576D475
:100EE000016C01B1946990F83D3000219D430B469F
:100EF0007FD0C91E516180F83C30BDE8F081946913
:100F000053694FF42A07DB435FEAC37C4FF02A465C
:100F100004D0BD42F1D0B542EFD010E0CD43AD05D5
:100F20000DD4C16AB94201D1012103E0C16AB142C5
:100F300001D10821C162BDE8F04101F05FBC1D078D
:100F400016D4CD43AD0513D4416CC9B21161416BC8
:100F500011B9826B002AD0D0C96B19B9816BC96BEA
:100F60000029CAD00068416841F400614160C4E7CB
:100F70009D0706D4CD43AD0503D4BDE8F04101F093
:100F8000B1BBE443526864074FEA025215D4002A09
:100F9000B3DB1A0608D4CA43520505D45A0705D54F
:100FA000BDE8F04101F042BB5A07A6D4C943890508
:100FB000A3D4BDE8F04101F0EFBA002A9DDB5A0648
:100FC0000CD4CA43520509D45A0702E00FE023E0CB
:100FD0000FE005D5BDE8F04101F046BA5A078CD4C0
:100FE000C943890589D4BDE8F04101F0D4B99469B9
:100FF0006DE7556825F480655560E243540700D5D8
:101000000121120601D5828900E0028B80F83C3074
:1010100092B2FFF74AFF70E7DC0606D4CC43A40582
:1010200003D4BDE8F04101F037BD212E27D0292E91
:1010300025D05C0655D4CC43640552D45B0752D509
:1010400090F83D10438D002B91D01269436A1A70BD
:10105000426A521C4262428D521E4285428D002AD3
:1010600085D12A29D7D101684A6822F480624A6072
:101070002221016380F83D5000F0B2FC3DE71C06E0
:1010800023D4CC43640520D45B0720D590F83D10D1
:10109000438D002BBFD0436A1B781361426A521CF8
:1010A0004262428D521E4285428D002AB3D12929C7
:1010B000B1D101684A6822F480624A60212101634B
:1010C00080F83D5000F08DFC17E75B07A3D4C943BF
:1010D0008905A0D4418D00299DD0416A097811610C
:1010E0000AE05B0797D4C943890594D4418D002950
:1010F00091D01169426A1170416A491C4162418D67
:10110000491E4185F9E6704770B5040025D094F872
:101110003D00002520B984F83C50204600F008FC32
:10112000242084F83D002068016821F0010101605D
:101130002068016841F4004101602068016821F4E1
:101140000041016000F082FD4D4A6168914201D882
:101150004C4900E04C49884201D2012070BD4B4906
:101160002368B0FBF1F15E6826F03F060E435E6037
:101170006368934206D94FF4967359434FF47A73D8
:10118000B1FBF3F12368491C1E6A26F03F06314388
:1011900019626168914210D84900401EB0FBF1F21B
:1011A000521CC2F30B02042A01D2042022E0B0FB3D
:1011B000F1F0401CC0F30B001CE0A268F2B301EB9D
:1011C000C10303EB0116431EB3FBF6F35B1C43F4B0
:1011D00080431B0549D092B301EBC10202EB011120
:1011E000401EB0FBF1F0401CC0F30B0040F4804007
:1011F00040F400402168CA694CF6FF739A431043DB
:10120000C861D4E9071001432068026822F0C002D7
:1012100011430160D4E9030101432068826848F268
:10122000FF339A4311438160D4E9050108432168E3
:10123000CA6822F0FF021043C86001E00EE016E029
:101240002068016841F0010101602564202084F8D4
:101250003D00256384F83E50002070BD01EB41063F
:10126000431EB3FBF6F35B1CB3E70120C2E701EBBF
:101270004101401EB0FBF1F0401CC0F30B00B7E78A
:10128000A086010080841E0000093D0040420F003E
:101290002DE9FF4F81B089460446FFF7FFFD054663
:1012A00094F83D004FF0010820287DD11923012238
:1012B00050492046009501F0C3FC002874D194F8F1
:1012C0003C00012870D0012084F83C0020680168AF
:1012D000C90703D1016841F001010160206801687C
:1012E00021F400610160242084F83D00002626647A
:1012F0004148E0624FF0011B20272068016841F45B
:10130000807101600095002259462046049B01F03F
:1013100097FC50B120680068C00502D54FF40070FA
:101320002064032005B0BDE8F08F216809F0FE00BD
:101330000861FFF7B3FD2168054648694969C0F3B4
:101340004000C1F380214FF0A00A0FE0FFF7A6FD97
:10135000411B0498814200D808B984F83DA0216857
:1013600048694969C0F34000C1F3802194F83D20E9
:10137000A02A02D008B90029E8D084F83D7020687E
:101380004169C943890716D4016841F400710160BD
:101390002068416980691923012216492046009579
:1013A00001F04EFCB8B900E021E084F83D7084F80B
:1013B0003C600020B6E7016841F4007101602168DB
:1013C0006FF480604861192301220A492046009584
:1013D00001F036FC08B10120A4E7039808F10108E8
:1013E00080458AD384F83D7084F83C60F3E702209E
:1013F00098E70000020010000000FFFF70477047F0
:10140000704700002DE9F84F1F4690468A46044673
:10141000DDF82890FFF742FD054694F83D002028AE
:101420007FD11923012240492046009501F008FC94
:10143000002876D194F83C00012872D0012084F86D
:101440003C0020680168C90703D1016841F001012F
:1014500001602068016821F400610160212084F8A6
:101460003D00102084F83E0000262664C4F8248045
:101470006785608D20852D48E0622B464A4651469F
:10148000204601F03BF890B92068416980690090DE
:1014900036E02A464946204601F084FC50B1206CD3
:1014A000042804D12068016841F400710160012022
:1014B000BDE8F88F606A216800780861606A401CA6
:1014C0006062618D491E6185218D491E89B2218529
:1014D00022685369DB435B070BD451B1007810617C
:1014E000606A401C6062608D401E6085208D401ED9
:1014F00020852A464946204601F07CFB0028CED1B3
:10150000208D0028C5D154F83D0B016841F40071CD
:101510000160202004F81E09E67766770020C7E7FF
:10152000FFE70220C4E70000020010000000FFFFF8
:10153000704770472DE9FF4F83B09A46DDE9119758
:1015400093460446DDF84080FFF7A8FC054694F872
:101550003D00202870D119230122714920460095B1
:1015600001F06EFB0028F5D194F83C00012863D00F
:10157000012084F83C0020680168C90703D1016894
:1015800041F0010101602068016821F400610160FF
:10159000222084F83D00402084F83E000026266486
:1015A000C4F82480A4F82A90608D20855D48E0620C
:1015B000CDE9007553465A462046049901F09AF940
:1015C00000287CD1208DD0B1012821D002282068AC
:1015D00024D0416980690090208D032869D80128B2
:1015E0002BD0514902283B464FF00002009559D0BC
:1015F0008846204601F024FB002860D13CE02068AA
:10160000416981690091016841F40071016077E0EE
:101610002068016821F480610160F0E7016821F42D
:10162000806101602068016841F400610160206808
:1016300041698069009063E06FE02A4639462046A0
:1016400001F07DFB98BB20680069616A08704EE07C
:101650002068016841F40071016020680069616AD6
:101660000870606A401C6062218D491E2185618D71
:10167000491E6185216838E02068016821F4806195
:10168000016020680069616A0870606A401C6062DD
:10169000208D401E2085608D401E60853B460022C7
:1016A00041460095204601F0CBFA00B9D0E706E0AC
:1016B000FFE72A463946204601F041FB18B10120D8
:1016C00007B0BDE8F08F20680069616A0870606A41
:1016D000401C6062218D491E2185618D491E6185F6
:1016E00021684A69D24352070AD409690170606AC5
:1016F000401C6062208D401E2085608D401E6085EC
:10170000208D00287FF468AF202084F83D0084F805
:101710003E6084F83C600020D2E70220D0E7000061
:10172000020010000000FFFF040001002DE9FF4F40
:1017300083B09A46DDE9119793460446DDF8408070
:10174000FFF7ACFB054694F83D0020287FD1192314
:10175000012240492046009501F072FA002876D116
:1017600094F83C00012872D0012084F83C002068E5
:101770000168C90703D1016841F0010101602068D7
:10178000016821F400610160212084F83D004020BF
:1017900084F83E0000262664C4F82480A4F82A9029
:1017A000608D20852C48E062CDE9007553465A468D
:1017B0002046049901F01CF970B930E02A463946F8
:1017C000204601F0EFFA58B1206C042804D12068BB
:1017D000016841F400710160012007B0BDE8F08F9D
:1017E000606A216800780861606A401C6062218D2F
:1017F000491E89B22185628D521E62852268536915
:10180000DB435B070BD469B100781061606A401C50
:101810006062208D401E2085608D401E6085208D79
:101820000028CBD12A463946204601F0E3F90028AA
:10183000CAD154F83D0B016841F4007101602020C9
:1018400004F81E09E67766770020C6E7FFE7022066
:10185000C3E70000020010000000FFFFF8B50024FD
:10186000DDE90676009490F83D50202D59D12E4D9B
:1018700046F2A81C2D68B5FBFCF505EBC50C0CEB7E
:10188000051500956D1E009506D00568AD69ED4300
:10189000AD070DD4009DF5E740F8304F202141738E
:1018A0008473016941F02001016104730120F8BDD6
:1018B00090F83C50012D34D0012580F83C5005684B
:1018C000D5F800C05FEACC7C05D1D5F800C04CF05B
:1018D000010CC5F800C00568D5F800C02CF4006CF8
:1018E000C5F800C0212580F83D50402580F83E50C5
:1018F000046447624685458D05850C4DC56241648B
:101900008264C364046501680A6842F480720A60F4
:1019100080F83C400068416841F4E061416000208B
:10192000F8BD0220F8BD00003C0000200000FFFFD1
:1019300070B586B0064614216846FEF779FC234947
:101940003068884240D122480025016841F00201F8
:1019500001600068694600F002000590C020009018
:101960001220019001200290032003900420049093
:101970001848FFF7B1F916481030016841F400111A
:1019800001600068154C00F40010059012482060BA
:101990004005C4E90105C013C4E903508010656126
:1019A000C4E90650256220466562FFF7F1F808B1E8
:1019B000FEF77EFFB463002203211F20A66300F020
:1019C00079F81F2000F068F806B070BD00540040A0
:1019D000303802400004024010600240A80000209D
:1019E00070477047024881680278114481607047EF
:1019F000300000200B4810B5016841F4007101600F
:101A0000016841F480610160016841F48071016006
:101A1000032000F06FF8002000F006F800F024F832
:101A2000002010BD003C024070B50D4D04464FF43F
:101A30007A712878B1FBF0F00A490968B1FBF0F03F
:101A400000F0F2FA48B9102C07D200222146501EAD
:101A500000F030F800206C6070BD012070BD000007
:101A6000300000203C0000200A4808B5016841F41D
:101A700080410160006800F4804000900548001F2C
:101A8000016841F080510160006800F080500090D2
:101A900008BD000044380240002809DB00F01F02A6
:101AA000012191404009800000F1E020C0F80011C0
:101AB00070470000F0B40E4B1B680C46C3F30223C2
:101AC000C3F10705042D00D90425191D072901D2EA
:101AD000002300E0DB1E012606FA05F1491E214025
:101AE00099409E40761E16403143F0BC01F0F0BB99
:101AF0000CED00E0064900F0070208684FF6FF030E
:101B0000184040EA0220034A104308607047000072
:101B10000CED00E00000FA052DE9F0470E46050047
:101B200065D0DFF81481D8F80000F7B200F00F009C
:101B3000B04207D288F80070D8F8000000F00F001B
:101B4000B04254D128683D4C810712D5400703D5D7
:101B5000206840F4E05020602878000703D5206812
:101B600040F4604020602068A96820F0F00008433D
:101B700020602878C0072DD03049686808390128CE
:101B800012D0022813D0032811D009688907002930
:101B90002DDA216821F0030101432160FFF77EF96E
:101BA000814641F2883A0EE009688903EFE7096847
:101BB0008901ECE7FFF772F9A0EB0901514502D961
:101BC0000320BDE8F0872068696800F00C00B0EBE6
:101BD000810FEFD1D8F80010404601F00F01B1425B
:101BE00007D90770006800F00F00B04201D0012053
:101BF000E7E72878400705D52068E96820F4E05039
:101C0000084320602878000706D52068296920F459
:101C1000604040EAC100206000F028F82168084ACE
:101C2000C1F30311515CC8400649086006480068CA
:101C3000FFF7FAFE0020C4E7003C024008380240EB
:101C4000886E00083C00002034000020044805494C
:101C500000680968044AC1F38221515CC84070479A
:101C60003C00002008380240986E0008154810B566
:101C7000006810F00C02144813D04110042A0FD051
:101C8000082A0ED10F4C241F2268236802F03F025D
:101C90005B0207D52068C0F38810A0FB010106E0B5
:101CA000084610BD2168C1F38811A1FB0001002383
:101CB000FEF786FA2168C1F30141491C4900B0FBD7
:101CC000F1F010BD083802400024F4002DE9F84F6F
:101CD000040076D02078DFF838A3CE4DC00749D075
:101CE000DAF800105046C1F38101012908D00068DC
:101CF000C0F3810002280AD1281D0068400206D5E1
:101D00002868800336D560680028E2D032E0606839
:101D1000B0F5803F10D0B0F5A02F286810D020F487
:101D200080302860286820F4802028606068A0B196
:101D3000FFF7B4F806460CE0286840F48030F4E77A
:101D400040F480202860F7E7FFF7A8F8801B64289C
:101D500073D828688003F7D50CE0FFF79FF8064694
:101D600005E000BFFFF79AF8801B6428F0D82868C8
:101D70008003F7D42078DFF8A08280074FF00009B5
:101D80003ED5DAF80010504611F00C0F09D000686B
:101D9000C0F3810002280BD19D48001F006840025B
:101DA00006D42868800715D5E068012809D111E01C
:101DB000E068B8B10120C8F80000FFF76FF80646E8
:101DC00005E020E1FFF76AF8801B0228C0D82868E8
:101DD0008007F7D52868216920F0F80040EAC100A3
:101DE00028600DE0C8F80090FFF758F8064604E0B8
:101DF000FFF754F8801B02281FD828688007F7D403
:101E00002078000722D5824E844861696C3671B112
:101E100001210160FFF742F8074604E0FFF73EF8B2
:101E2000C01B022809D830688007F7D50EE0C0F83B
:101E30000090FFF733F8074605E082E0FFF72EF841
:101E4000C01B02287DD830688007F7D4207840076F
:101E500068D5DFF8BCB100270BF1380BDBF80000C8
:101E6000C0000BD4DBF8001041F08051CBF800101B
:101E7000DBF80000012700F080500090684E3068C9
:101E8000C00510D4306840F480703060FFF706F869
:101E9000009005E0FFF702F80099401A022850D898
:101EA0003068C005F6D55A4EA068683601280FD0B4
:101EB0000528306810D020F001003060306820F034
:101EC00004003060A068B8B1FEF7E8FF00900FE0B2
:101ED000306840F00100F4E740F004003060F7E7BC
:101EE000FEF7DCFF0099411A41F28830814266D842
:101EF00030688007F4D50EE0FEF7D0FF009007E0D1
:101F0000FEF7CCFF0099411A41F28830814256D841
:101F100030688007F4D42FB1DBF8001021F0805135
:101F2000CBF80010A069D0B3DAF800205146C2F314
:101F30008102022A4AD00228484607D0C8F8600029
:101F400000E03CE0FEF7AAFF04463BE04746C8F845
:101F50006000FEF7A3FF064605E000BFFEF79EFF08
:101F6000801B02282BD828688001F7D4D4E9070108
:101F70000843A16A2B4A490802EB0141626A41EA1F
:101F80008211084394F82C1040EA01612048001F98
:101F9000016001203866FEF781FF044605E034E069
:101FA000FEF77CFF001B022809D828688001F7D5BE
:101FB0002BE000BFFEF772FF001B022802D90320AE
:101FC000BDE8F88F28688001F4D41EE00128F7D01E
:101FD0000868E26900F48001914214D1226A00F09D
:101FE0003F0191420FD147F6C071626A01409142B0
:101FF00009D1A26A00F44031914204D1E16A00F0B3
:102000007060884201D00120DAE70020D8E70000A4
:10201000083802400038024000004742800E474224
:10202000007000400000FFFF10B5401EB0F1807F3F
:1020300001D3012010BD4FF0E02460610F21601733
:1020400001F046F90020A06107202061002010BDAA
:10205000FEE700007CB500F022FF012540240021AE
:1020600080233D4A0846CDE9004500F020FF01F0FD
:10207000A1F800F014FF00218023384A0846CDE97A
:10208000004500F014FF01F095F800F008FF002172
:102090008023334A0846CDE9004500F008FF01F0EF
:1020A00089F800F0FCFE002180232E4A0846CDE985
:1020B000004500F0FCFE01F07DF800F0F0FE00218C
:1020C0008023294A0846CDE9004500F0F0FE01F0E2
:1020D00071F800F0E4FE00218023244A0846CDE98F
:1020E000004500F0E4FE01F065F800F0D8FE0021A4
:1020F00080231F4A0846CDE9004500F0D8FE01F0D4
:1021000059F800F0CCFE002180231A4A0846CDE998
:10211000004500F0CCFE01F04DF800F0C0FE0021BB
:102120008023154A0846CDE9004500F0C0FE01F0C5
:1021300041F800F0B4FE00218023104A0846CDE9A2
:10214000004500F0B4FE01F035F800F0A8FEBDE84F
:102150007C4001F02FB80000143F00081443000831
:1021600014470008144B0008144F000814530008CB
:1021700014570008145B0008145F0008146300087B
:102180000148FEF793BE00004000002010B5806BB0
:1021900090F83D20436B002103B1D963836B03B1F9
:1021A000D96303681C6824F480641C604185436B18
:1021B00003B11965836B03B1196503681C6824F0CA
:1021C00001041C6090F83D402023602C0BD0282493
:1021D00034EA02020FD080F83D3080F83E1000BF94
:1021E000FEF791FF10BD80F83D3080F83E1001648D
:1021F000FEF75AFE10BD0268136843F00103136036
:102200000268136843F480631360016380F83D4003
:10221000E6E7000070B5044690F83D0094F83E10E3
:10222000102906D1222804D121680A6822F400620C
:102230000A60282131EA00024FF000054FF0200625
:1022400026D021684968090503D4602801D084F8A4
:102250003D60256384F83E5020684168090537D504
:10226000416821F400614160606B90F835203C4981
:10227000012A11D00165606BFEF7A4FB38B320681A
:10228000016821F00101016084F83D60606B1CE091
:10229000256384F83D10DFE7A06B0165A06BFEF7B6
:1022A00091FBA0B120684169C943490605D4006982
:1022B000616A0870606A401C60622068016821F0F1
:1022C0000101016084F83D60A06B016D884710E05A
:1022D00094F83D10602910D04169C943490605D4DE
:1022E0000069616A0870606A401C60622046FEF7FF
:1022F0000AFF206CC1071CD115E084F83D602564FD
:102300004169C943490605D40069616A0870606A79
:10231000401C60622068016821F0010101602046D4
:10232000FEF7C2FDE5E7810703D4410701D40007AA
:1023300004D52068416821F4E061416094F83D00D3
:10234000216C49070BD5282809D10648E06225638E
:1023500084F83D6084F83E502046FFF74FF870BD8A
:102360008D2100080000FFFF01684A69D243520531
:102370000FD46FF480624A61002140F8301F2022A0
:1023800042738173026942F0040202610173012009
:1023900070470020704710B5C26A438D0168042B56
:1023A00006D0438D032B08D0438D022B1DD012E0A5
:1023B0004A6822F480624A600CE04B6823F4806330
:1023C0004B60042A06D0022A04D001680A6822F46D
:1023D00080620A6001680969426A1170416A491C99
:1023E0004162418D491E418510BD012A30D0102A1D
:1023F0002ED0042A30D0022A2ED00A6842F400726D
:102400000A6001680969426A1170416A491C4162A7
:10241000428D521E4285026812690A70416A491C47
:102420004162418D491E418501684A6822F440722B
:102430004A60202180F83D1090F83E200021402A7B
:1024400080F83E100CD012210163FEF7D8FF10BDBA
:102450000A6822F48062D3E70A6842F48062CFE718
:102460000163FFF765F810BD10B590F83D10222903
:1024700014D1418D032912D901680969426A11708A
:10248000416A491C4162418D491E4185418D0329A4
:1024900004D10068416821F48061416010BDC26AC6
:1024A000022AFBD0012901D00029F7D101680A686E
:1024B00022F480620A6001684A6822F4E0624A609D
:1024C00001680969426A1170416A491C4162418D83
:1024D000491E4185202180F83D1090F83E200021C2
:1024E000402A80F83E1004D012210163FEF787FFD6
:1024F00010BD0163FFF71CF810BD0000F8B50446DD
:10250000C06A1E460D461746082807D0012805D088
:1025100010F5803F02D0206B122804D1206801689A
:1025200041F480710160134600224FF001112046F2
:10253000009600F085FB40B120680068C00502D518
:102540004FF4007020640320F8BD2069B0F5804F7F
:102550000ED00620216800EAD51040F0F000086196
:1025600033463A460B49204600F09EFB78B902E01C
:1025700005F0FE0000E0E8B2216808610549334635
:102580003A46891F204600F08FFB0028DCD001204E
:10259000F8BD00000800010010B5C26A90F83D10B7
:1025A000212907D090F83E1040290FD1BDE81040F6
:1025B00000F06AB9418D51B1416A02680978116130
:1025C000416A491C4162418D491E418510BD20234D
:1025D0000021082A13D0202A11D012F5803F0ED0F6
:1025E0000268546824F4E06454601122026380F8A5
:1025F0003E1080F83D3000BFFEF702FF10BD0268BC
:10260000546824F4E06454600268146844F400746C
:102610001460016380F83D3090F83E2080F83E1051
:10262000402AE9D1FEF785FF10BD000010B590F8F3
:102630003D1090F83E30C26A048DB4B1212903D018
:10264000402B11D122290FD1418DE1B390F83E10DA
:10265000402942D0416A026809781161416A491CE7
:102660004162418D491E418510BD2129E8D12023B9
:102670000021082A13D0202A11D012F5803F0ED055
:102680000268546824F4E06454601122026380F804
:102690003E1080F83D3000BFFEF7B2FE10BD02686C
:1026A000546824F4E06454600268146844F40074CC
:1026B0001460016380F83D3090F83E2080F83E10B1
:1026C000402AE9D100E002E0FEF733FF10BD0068C8
:1026D000416821F48061416010BDBDE8104000F008
:1026E000D3B8000078B590F83E50C26A036B90F8FA
:1026F0003D6000240168222E7AD1066D0EB9402D6E
:1027000076D0056D1DB90569B5F5404F09D0458DE9
:1027100005B3468D384D012E0ED0438D022B3AD095
:102720005DE04A698A6900920A6842F480720A6030
:10273000016D491C016578BDAA4213D10A6822F4D3
:1027400080620A6001684A68120503D50A6822F4AB
:10275000806216E04A698A6900920A6842F400724F
:102760000A6039E0082A10D0202A0ED0122B0AD095
:10277000042A03D0022A01D0102AE7D10A6842F4C1
:1027800080620A6024E0012AE0D00A6822F48062B4
:102790000A600168DEE7042A21D0022A1FD0102A2D
:1027A0001DD00B6823F480630B6001680B6843F451
:1027B00000630B6001684B681B0509D5AA4212D063
:1027C000012A10D0082A0ED0102A0CD0202A0AD0B4
:1027D00001684A6989690091046578BD08E00B6861
:1027E00043F48063E5E74A6842F480524A60EFE7C9
:1027F000486988690090F0E70000FFFF90F83E10FC
:10280000402910D00169B1F5804F19D0016DA9B3ED
:10281000016D012910D1416C5FF0F10201F44071AA
:1028200042EAD11106E0016D0029416C05D0C9B220
:1028300041F0010100680161704701F0FE01F9E714
:1028400090F83D102129416C09D0C9B241F0010135
:1028500002681161416B29B1C96B49B902E001F00D
:10286000FE01F5E7816B0029E6D0C96B0029E3D0B2
:102870000068416841F4006141607047FFE7416CC6
:10288000F02201F44071CBE7016DC1B1016D012966
:1028900023D0016D022911D190F83D10222923D0B7
:1028A00090F83D10212909D1416A02680978116127
:1028B000416A491C4162418D491E41857047C16C86
:1028C0000129816C02D0C1F3072108E00268C9B276
:1028D0001161016D891C01657047816CC9B2026884
:1028E0001161016D491CF6E70068016841F48071CF
:1028F000016070472DE9F84F0446006889460B9D3A
:1029000001689846174641F48061016020680168BB
:1029100041F48071016000954FF0011B002259467F
:1029200020460A9B00F08CF94FF4007A40B12068F1
:102930000068C00501D5C4F840A00320BDE8F88FA9
:10294000216809F0FE0008612B46284920460A9AB2
:1029500000F0AAF9F0BB20684169806900902A461E
:1029600020460A9900F01EFA40B1206C04283AD1A2
:102970002068016841F40071016034E0FEB2B8F1F2
:10298000010F09D02168380A08612A4620460A99B1
:1029900000F008FA0028E8D1206806612A4620469F
:1029A0000A9900F0FFF90028DFD12068016841F49E
:1029B0008071016000950022594620460A9B00F074
:1029C0003FF90028B3D1216809F0FF0040F0010071
:1029D000086100E007E02B46044920460A9A00F00F
:1029E00063F90028AAD00120A8E700000200010036
:1029F0002DE9F843044600680D46DDE908970168B3
:102A00009846164641F4807101604B4600224FF013
:102A100001112046009700F013F948B120680068C2
:102A2000C00502D54FF4007020640320BDE8F88390
:102A3000216805F0FE0008613B464A4615492046DC
:102A400000F032F988B920684169806900903A46FF
:102A50004946204600F0A6F948B1206C042804D16C
:102A60002068016841F4007101600120DEE7F5B2E1
:102A7000B8F1010F09D02168300A08613A46494689
:102A8000204600F08FF90028E7D12068056100207A
:102A9000CCE7000002000100F8B590F83D60044664
:102AA0000068416821F4E0614160206800254169C7
:102AB0000091016841F0010101602068016821F482
:102AC0008061016020684168090520D5474F222EAA
:102AD00048D02A2E46D0616B096849686185618DAE
:102AE00019B1216C41F004012164416821F40061B5
:102AF0004160606BFDF778FF012808D0606B0765C7
:102B0000606BFDF75FFF10B1606B016D8847608DF2
:102B100008B320684169C943490708D40069616A5C
:102B20000870606A401C6062608D401E608520688D
:102B30004169C943490608D40069616A0870606A3E
:102B4000401C6062608D401E6085608D18B1206CF5
:102B500040F004002064206C00B32046BDE8F8403B
:102B6000FFF758BBA16B096849686185618D19B190
:102B7000216C41F004012164416821F4006141604D
:102B8000A06BFDF731FF0128C1D0A06B0765A06BDA
:102B9000FDF718FF0028BAD0A06BB6E72A2E06D1A1
:102BA0002563282084F83D002046FEF719FF94F89D
:102BB0003D10202028290DD0216B222901D0222E62
:102BC00007D1256384F83D0084F83E502046FEF787
:102BD00007FFF8BD0649E162256384F83D0084F8EB
:102BE0003E502046FEF70AFCF8BD00008D2100088B
:102BF0000000FFFF70B516460D4604460DE0204666
:102C0000FFF7B2FB08B1012070BD681C05D0FEF7CC
:102C100045F9801BA84207D835B120684069C043F8
:102C20004007ECD4002070BD002044F8300F202174
:102C30006173A073216941F0200121612073E2E7F3
:102C40002DE9F0471E4690460D460446C1F307475E
:102C5000DDF8209008E0701C06D0FEF71FF9A0EB0D
:102C60000900B0420FD876B12068012F18D08069D2
:102C700025EA00000004000C14D000214145EAD0F0
:102C80000020BDE8F087002044F8300F2021617358
:102C9000A073216941F02001216120730120F0E738
:102CA0004069E5E70121E9E72DE9F0479A469146B9
:102CB0000E46044600254FF02008C1F3074725E0E3
:102CC00020684069C043400514D42068016841F47D
:102CD0000071016021686FF480604861256384F8A9
:102CE0003D8084F83E50206C40F00400206484F85D
:102CF0003C501FE0B9F1FF3F08D0FEF7CFF8A0EB42
:102D00000A0149450CD8B9F1000F09D02068012FFC
:102D100013D0806926EA00000004000C0BD0CFE736
:102D200044F8305F84F80D80A573206940F02000DE
:102D3000206125730120BDE8F0874069EAE72DE9AD
:102D4000F041002590460E460446202717E04069D2
:102D5000C043C0060CD454F8301B6FF0100048611B
:102D600044F810596777A577206A2062257717E025
:102D7000FEF794F8A0EB0800B04208D83EB12068F6
:102D80004169C9434906E2D40020BDE8F08144F816
:102D9000305F6773A573206940F0200020612573C0
:102DA0000120F2E770B516460D4604460DE02046B8
:102DB000FFF7DAFA08B1012070BD681C05D0FEF7F4
:102DC0006DF8801BA84207D835B120684069C04320
:102DD0000006ECD4002070BD002044F8300F202104
:102DE0006173A073216941F0200121612073E2E742
:102DF00070B586B014216846FDF71AFA22480024FF
:102E0000016841F010010160016801F010010591B5
:102E1000016841F080010160016801F080010591C5
:102E2000016841F001010160016801F001010591B3
:102E3000016841F0020101600068144E00F00200D8
:102E4000059000223F213046FEF722F83F20012561
:102E5000CDE900050320CDE9024069463046FDF783
:102E60003BFF0B480095CDE9010469460948FDF791
:102E700033FF002201210620FEF71CFE0620FEF78C
:102E80000BFE06B070BD000030380240001002405A
:102E90000000111000000240FEE77047704710B5B7
:102EA000002000F05DF8BDE8104000F083B92DE986
:102EB000FF4F83468946D81DC11700EB517000278C
:102EC0001D464FEAE00A3E46DDF8348024E0002447
:102ED0001AE0600702D07806070E08E0E01704EB5E
:102EE0005071029800EBE10116FB0A1007783806D2
:102EF00008D50E981FFA89F1C2B20BEB040080B21C
:102F000000F00EF8641C24B2AC42E2DB761C09F13E
:102F1000010036B20FFA80F94645D8DBBDE8FF8FD5
:102F200070B5802813D2402911D20B4B012401F037
:102F300007051E79AC40094BC90800EBC1100EB162
:102F400032B101E0012A03D0195CA143195470BDCC
:102F5000195C2143FAE70000280000200801002046
:102F600028B1FF224FF480610248FDF75AB90022D0
:102F7000F8E7000008010020014A108051807047E6
:102F80002800002010B500F093FF44F620630122D2
:102F900078215448FEF77CF908B1002010BD40F6B6
:102FA000C210401EFDD1AE220021782000F086FF25
:102FB00020220021782000F081FF102200217820BB
:102FC00000F07CFFB0220021782000F077FFC822BB
:102FD0000021782000F072FF00221146782000F0D6
:102FE0006DFF10220021782000F068FF40220021B0
:102FF000782000F063FF81220021782000F05EFF3E
:10300000FF220021782000F059FFA1220021782022
:1030100000F054FFA6220021782000F04FFFA822E4
:103020000021782000F04AFF3F220021782000F0A4
:1030300045FFA4220021782000F040FFD322002188
:10304000782000F03BFF00221146782000F036FF88
:10305000D5220021782000F031FFF02200217820D5
:1030600000F02CFFD9220021782000F027FF222237
:103070000021782000F022FFDA220021782000F0E1
:103080001DFF12220021782000F018FFDB22002112
:10309000782000F013FF20220021782000F00EFF9E
:1030A0008D220021782000F009FF142200217820D1
:1030B00000F004FFAF220021782000F0FFFE2E2256
:1030C0000021782000F0FAFE0020FFF749FF00F011
:1030D00071F80548002101804180012141710846B5
:1030E00010BD000040000020280000202DE9F0471E
:1030F000814625480D46924601882A781144802948
:1031000005D28046408869780844402802D30020D0
:10311000BDE8F08700262AE0A9F1200111FB00603C
:103120006A68002432F810701DE000BF07FA04F04E
:10313000000409D5B8F80210B8F800003144204462
:1031400089B280B252460BE0BAF1000F1AD00022C9
:10315000B8F80210B8F800003144204489B280B2B7
:10316000FFF7DEFE641C2878A042DFD8761C687862
:10317000B042D1D8B8F800102A7848461144A8F8CF
:103180000010C5E70122E3E72800002070B51546CE
:103190000E46044609E02A463146FFF7A7FF21788C
:1031A000884201D0C8B270BD641C20780028F2D1DA
:1031B000C0B270BD70B5104D002400BF04F1B00066
:1031C000C2B20021782000F079FE0022114678205A
:1031D00000F074FE10220021782000F06FFE05EB55
:1031E000C41280234021782000F078FE641CE4B2F1
:1031F000082CE3D370BD0000080100207047FEF7E3
:10320000F1BB000030B593B030216846FDF710F8EF
:1032100014210CA8FDF70CF819480025016841F0AD
:1032200080510160006800F08050119015480168DD
:1032300041F4804101600068022400F48040119054
:1032400001200090000401908001CDE9064008AA09
:103250000420A82182E813000B906846FEF736FD93
:103260000CA90F2081E831004FF4A0500F90E0022C
:10327000109005210CA8FEF74FFC13B030BD0000E4
:1032800040380240007000400548016841F4700178
:10329000016003494FF0006080390860704700000A
:1032A00088ED00E0FEE700000FB4084B10B504A95C
:1032B00002AA039800F0EEF8044602A9002000F0EC
:1032C00080FC204610BC5DF814FB0000C33B0008E6
:1032D0000907090E002804DB00F1E02080F8001443
:1032E000704700F00F0000F1E02080F8141D7047D7
:1032F00002E008C8121F08C1002AFAD170477047BF
:10330000002001E001C1121F002AFBD1704700001C
:103310002DE9FF5F82B00021DDE90430020DDDF808
:1033200040B0034318D044F61050A2F2FF3242439B
:103330001514119801281FD0A5EB0B00401C5FEA63
:10334000000A4FF000064E4FDFF83891B046504665
:1033500015D5CAF1000413E0119801244AA30128ED
:1033600001D16FEA0B010298119AC0E90031C0E95E
:10337000024206B0BDE8F09FCBF10000DFE7044653
:103380000021404A491842EB0450CDE9001012E0F8
:10339000E00707D032463B4640464946FCF7FAFF75
:1033A0008046894632463B4610461946FCF7F2FFF6
:1033B00006460F466410002CEAD1DDE90401DDE980
:1033C0000023BAF1000F06DAFCF7E4FF42464B4651
:1033D000FCF7E0FF05E0FDF766F942464B46FDF7D6
:1033E00062F904460E460022284BFDF7E3F903D8A4
:1033F0004FF0FF30014607E00022254B20463146C2
:10340000FCF721FFFDF7BEF9102409E0002C0ADBD0
:103410000A220023FCF7D4FE039B30321A55641EA7
:1034200050EA0102F2D1641C039AC4F1110314445E
:10343000119A012A03D0012208430DD10AE0084362
:1034400004D000204FF0110B119072E7A3EB0B0595
:103450006D1E0DE05B4504DD4FF0000205F1010536
:1034600004E003DA4FF00002A5F10105002AECD0D8
:1034700002981199C0E90231C0E9004579E70000DE
:10348000000014400000F03F300000000000F04356
:103490000000E03F2DE9FF4F95B09B468946064668
:1034A00000250FE2252877D100242746F84A01217C
:1034B000059400E0044316F8013F203B01FA03F0B5
:1034C0001042F7D130782A2811D06FF02F033078CE
:1034D000A0F13002092A16D8059A44F0020402EB42
:1034E000820203EB42021044761C0590EFE759F884
:1034F000042B0592002A03DA504244F4005405904C
:1035000044F00204761C30782E2816D116F8010FEC
:1035100044F004042A280DD06FF02F023078A0F177
:103520003003092B09D807EB870302EB4303C718C5
:10353000761CF3E759F8047B761C30786C280FD0A2
:1035400006DC4C2817D068280DD06A2814D104E076
:10355000742810D07A280FD10DE044F400140AE04A
:1035600044F4801401E044F440147278824202D1A1
:1035700004F58014761C761C307866280BD013DC9A
:10358000582877D009DC002875D04528F6D0462881
:10359000F4D047281AD19DE118E0632835D064287B
:1035A00079D0652812D195E1702873D008DC67289E
:1035B000F1D069286FD06E280DD06F2806D1B5E004
:1035C00073282CD0752875D0782874D05A4617994E
:1035D00090476D1C75E1C4F30250022809D00328FE
:1035E0000DD0D9F8001004280DD00D6009F10409A0
:1035F00067E1D9F80010EA17C1E90052F6E7D9F8F7
:1036000000100D80F2E70D70F0E719F8041B8DF83B
:10361000001000208DF80100EA46012003E059F86F
:1036200004AB4FF0FF3061074FF0000102D40DE012
:1036300008F101018846B9420FDA8045F8DB1AF833
:1036400008100029F4D108E008F101018846814200
:10365000FADB1AF808100029F6D105985B46A0EBB2
:10366000080721463846179A00F094FA284400EBE0
:10367000080507E04DE029E10DE01AF8010B5A4674
:1036800017999047B8F10108F7D25B4621463846B2
:10369000179A13E142E00A220092C4F302524FF05B
:1036A000000A022A08D059F804CB032A4FEAEC7129
:1036B0000AD00DE029E02AE009F1070121F0070214
:1036C000F2E802C1914609E00FFA8CFC4FEAEC7176
:1036D000042A03D14FFA8CFC4FEAEC71002907DA77
:1036E0000A460021DCF1000C61EB02012D2202E010
:1036F000220504D52B228DF80420012203E0E207E5
:1037000001D02022F7E7904659E00A2102E010227A
:103710000DE010214FF0000A00910BE010224FF055
:10372000000A44F004040827009203E008224FF046
:10373000000A0092C4F30252022A05D059F804CBC1
:103740000021032A08D009E009F1070121F007024E
:10375000F2E802C1914605E01FFA8CFC042A01D16F
:103760000CF0FF0C4FF00008220728D5702806D077
:10377000009B83F0100353EA0A0305D00EE04022B9
:103780008DF80420012208E05CEA010206D0302214
:103790008DF804208DF8050002229046009B83F0EE
:1037A000080353EA0A030AD15CEA010201D1620765
:1037B00005D530228DF804204FF001087F1E5828CF
:1037C00004D034A003900EA802900DE036A0F9E7D3
:1037D00053466046009AFCF7F3FC84460398825CEB
:1037E0000298401E029002705CEA0100F0D102983B
:1037F00006A9081A00F1200A600702D524F48034D3
:1038000000E00127574502DDA7EB0A0000E0002099
:1038100000EB0A01009005984144401A0590E0032E
:1038200006D45B462146179A059800F0B3F9054483
:10383000002706E001A85A46C05D179990476D1C05
:103840007F1C4745F6DBE0030CD55B462146179A03
:10385000059800F09FF9054404E030205A46179976
:1038600090476D1C0099481E00900029F5DC08E087
:10387000029802995A460078491C0291179990477C
:103880006D1CBAF10001AAF1010AF1DC65E100004A
:103890000928010030313233343536373839616226
:1038A00063646566000000003031323334353637EA
:1038B00038394142434445460000000000F058F9C1
:1038C0000544761C307800287FF4ECAD19B028460A
:1038D000BDE8F08F620700D4062709F1070222F045
:1038E000070CFCE80223E14603F000485FEA080CFD
:1038F00002D00FF2702C0DE05FEA045C02D50FF2EB
:10390000682C07E05FEAC47C02D00FF2602C01E073
:10391000AFF2700C4FF0FF3823F00043CDF850C0E9
:1039200065280CD006DC452809D046281DD047283C
:103930003DD13DE0662818D067287ED138E00021CF
:10394000112F01DB112000E0781CCDE9000106A950
:103950000EA8FFF7DDFCDDE90F010E9A03910021AF
:10396000009207F1010A04914DE04FF000400097EA
:10397000CDE9011006A90EA8FFF7CAFCDDE90F0288
:1039800003920E9B11990022DDF80CA00093049283
:1039900011B9791C00EB010AB7EB0A0004D4C0F19D
:1039A000FF3007F1010A0490AAEB0700019044E000
:1039B000012F00DA01270021112F01DD112000E085
:1039C0003846CDE9000106A90EA8FFF7A1FCDDE904
:1039D0000F010E9A0391002104910092BA4621072B
:1039E0000CD40399514500DA8A46BAF1010F05DD7E
:1039F000009AAAF10101515C302908D0B84202DADC
:103A000010F1040F06DA0121CDE9011015E0AAF149
:103A10000101E9E7002805DC049901440491AAEBBF
:103A2000000102E0411C514500DD8A460499401A1C
:103A3000401C01904FF000400290200704D40198F0
:103A4000504501DBCDF8048000208DF84F0002982E
:103A50000DF14F07B0F1004F25D02B200E900298AA
:103A60004FF0020800280CDA404202902D200E9000
:103A700007E00A210298FCF73BFD3031029007F87D
:103A8000011DB8F10001A8F10108F2DC029800283C
:103A9000EFD1791E0E980870307800F0200040F0C9
:103AA000450007F8020D12A8C01B00F10708149882
:103AB000007800B1012000EB0A01019801EBE071F0
:103AC00005984144401A401E0590E00306D45B4629
:103AD0002146179A059800F05DF80544149800787F
:103AE00018B15A46179990476D1CE00324D55B46E0
:103AF0002146179A059800F04DF805441CE00498FB
:103B0000002807DBDDE90301884203DD0098405C03
:103B1000179901E0179930205A469047049805F10B
:103B20000105401C04900198401E019004D12E20F4
:103B30005A46179990476D1CBAF10001AAF1010A83
:103B4000DDDC05E017F8010B5A46179990476D1C0C
:103B5000B8F10001A8F10108F4DC5B462146179A90
:103B60000598ABE62D0000002B00000020000000AF
:103B70002DE9F041044600251E461746880404D46A
:103B800005E039462020B0476D1C641EF9D5284653
:103B9000BDE8F0812DE9F041044600251E4690461F
:103BA000C80301D5302700E02027880404D505E0AC
:103BB00041463846B0476D1C641EF9D52846BDE81D
:103BC000F0810A68531C0B601070704730B585B0E7
:103BD00000208DF80C008DF81000012503A8CDE918
:103BE000000564242B460F22D02102940F48FDF7D4
:103BF000A1FC9DF80C00400716D404A8CDE90005EF
:103C000001230E22D02102940848FDF793FC9DF871
:103C10001000012340F02000CDE900050E22D02144
:103C200002940248FDF782FD05B030BD400000203F
:103C300008B5FDF7DFFEFFF7E5FAFFF7D9F875489D
:103C400073494FF4804201607349416000218160F3
:103C5000C0E9031241618161C1610162FDF754FA5B
:103C60006E48016841F4001101600068002200F410
:103C70000010009002210B20FDF71CFF0B20FDF728
:103C80000BFFFFF77FF90020FFF76AF9FFF792FAC1
:103C9000FEF7E0F9FEF7DEF9FEF7DCF9604C00BF55
:103CA000FCF73CFE01210846FFF766F920780090FA
:103CB00058486378A2785BA15430FFF7F5FA55486D
:103CC00001225C495430FFF761FAFFF773FA0121D2
:103CD0003820FFF751F90122564957A0FFF756FA4D
:103CE000FFF768FA01214620FFF746F9A079009016
:103CF00048486379227951A15430FFF7D5FA4548F5
:103D000001224C495430FFF741FAFFF753FAFFF70D
:103D10005DFFFCF7CFFD84ED030A28210520FFF7A6
:103D20002BF90122434949A0FFF730FAFFF742FA85
:103D300032212320FFF720F9E068FCF7AAFB41ECD1
:103D4000100B344853EC102B45A15430FFF7ACFA5C
:103D50003048012237495430FFF718FAFFF72AFAA2
:103D600032214620FFF708F9012232493EA0FFF731
:103D70000DFAFFF71FFAE078012818D002281ED0AC
:103D8000032824D004282AD0052830D0062836D08D
:103D9000072885D114212320FFF7EEF825490122B9
:103DA00032A000BFFFF7F2F9FFF704FA78E7142119
:103DB0002320FFF7E1F801221E492FA0F2E714218A
:103DC0002320FFF7D9F801221A492DA0EAE7142190
:103DD0002320FFF7D1F8012216492BA0E2E7142196
:103DE0002320FFF7C9F80122124929A0DAE714219C
:103DF0002320FFF7C1F801220E4928A0D2E71421A1
:103E00002320FFF7B9F801220A4927A0CAE70000DA
:103E10000054004040000020801A06003038024064
:103E200000000020253032643A253032643A2530D3
:103E300032640000200000207C7C000025303264C9
:103E40002D253032642D2530326400005468652001
:103E500074656D7065726174757265203A0000005A
:103E600025302E32660000002A430000534154558D
:103E7000524441590000000053554E44415900003E
:103E80004D4F4E444159000054554553444159004B
:103E90005745444E4553444159000000544855523B
:103EA0005344415900000000465249444159000022
:103EB0000148401EFDD1704790D003001CB502237D
:103EC0008DF804100A2100918DF80520014601AA01
:103ED0000148FDF797FA1CBD4000002070B5C2B044
:103EE00000248DF8041001A904E0155D0E19641C6E
:103EF0007570E4B29C42F8D30A2100915B1C014624
:103F00009BB201AA0248FDF77DFA42B070BD0000E5
:103F10004000002000000000000000000000000041
:103F20000000000000000000000000000000000091
:103F30000000000000000000000000000000000081
:103F40000000000000000000000000000000000071
:103F50000000000000000000000000000000000061
:103F60000000000000000000000000000000000051
:103F70000000000000000000000000000000000041
:103F80000000000000000000000000000000000031
:103F90000000000000000000000000000000000021
:103FA0000000000000000000000000000000000011
:103FB0000000000000000000000000000000000001
:103FC00000000000000000000000000000000000F1
:103FD00000000000000000000000000000000000E1
:103FE00000000000000000003FF86000000000003A
:103FF000000000000000001FFFFFF00000000000B4
:10400000000000000000007FFFFFC0000000000073
:1040100000000000000005FFFFFFE40000000000BA
:104020000000000000000FFFFFFF80000000000004
:104030000000000000000F000FFF00000000000063
:10404000000000000000060000FF800000000000EB
:104050000000000000001860001FF80000000000D1
:104060000000000000003C78000780000000000015
:10407000000000000000306E0000000000000000A2
:1040800000000000000050738000000000000000ED
:104090000000000000008000C00005FF0037F000B5
:1040A000001F800000010000FC0000000007FF80EE
:1040B00003F0300000000800380000000000BFFFDF
:1040C000FFE004000001900060000000000087FF96
:1040D000FFFE00000001E00060000000000001FFA2
:1040E000FFFFC00000004000600600000000001F4D
:1040F000FC00080000000000E00600001000800046
:104100000000000000000000600600003001800098
:1041100000000000000000007006000030070000F2
:1041200000000000000000007FC60000E00F00005B
:10413000000000000000000F81CC0010E0380000FB
:10414000000000000000000FC008860000600000B2
:10415000000000000000001FF620000021C0000049
:10416000000000000000001FC00000000000000070
:10417000000000000000003E0000000004010000FC
:1041800000000000000000F80000000048000000EF
:1041900000000000000001F00000000070000000BE
:1041A000000000000000072000000000F000780080
:1041B0000000000000003C3800000000F000780023
:1041C000000000000000783000000001C00078000E
:1041D000000000000001E00000000003800070000B
:1041E000000000000003C000000000060000700096
:1041F00000000000000000000000001C0000300073
:1042000000000000000000000000003C0000300042
:1042100000000000000000000000007800007000B6
:104220000000000000000000000001E00000F000BD
:104230000000000000000000000003C00003F000C8
:1042400000000000000000000000060000078000E1
:10425000000000000000000000000000000000005E
:10426000000000000000000000000000000000004E
:10427000000000000000000000000000000000003E
:10428000000000000000000000000000000000002E
:10429000000000000000000000000000000000001E
:1042A000000000000000000000000000000000000E
:1042B00000000000000000000000000000000000FE
:1042C00000000000000000000000000000000000EE
:1042D00000000000000000000000000000000000DE
:1042E00000000000000000000000000000000000CE
:1042F00000000000000000000000000000000000BE
:1043000000000000000000000000000000000000AD
:10431000000000000000000000000000000000009D
:10432000000000000000000000000000000000008D
:10433000000000000000000000000000000000007D
:10434000000000000000000000000000000000006D
:10435000000000000000000000000000000000005D
:10436000000000000000000000000000000000004D
:10437000000000000000000000000000000000003D
:10438000000000000000000000000000000000002D
:10439000000000000000000000000000000000001D
:1043A000000000000000000000000000000000000D
:1043B00000000000000000000000000000000000FD
:1043C00000000000000000000000000000000000ED
:1043D00000000000000000000000000000000000DD
:1043E00000000000000000003FF860000000000036
:1043F000000000000000001FFFFFF00000000000B0
:10440000000000000000007FFFFFC000000000006F
:1044100000000000000005FFFFFFE40000000000B6
:104420000000000000000FFFFFFF80000000000000
:104430000000000000000F000FFF0000000000005F
:10444000000000000000060000FF800000000000E7
:104450000000000000001860001FF80000000000CD
:104460000000000000003C78000780000000000011
:10447000000000000000306E00000000000000009E
:1044800000000000000050738000000000000000E9
:104490000000000000008000C00005FF0037F000B1
:1044A000001F800000010000FC0000000007FF80EA
:1044B00003F0300000000800380000000000BFFFDB
:1044C000FFE004000001900060000000000087FF92
:1044D000FFFE00000001E00060000000000001FF9E
:1044E000FFFFC00000004000600600000000001F49
:1044F000FC00080000000000E00600001000800042
:104500000000000000000000600600003001800094
:1045100000000000000000007006000030070000EE
:1045200000000000000000007FC60000E00F000057
:10453000000000000000000F81CC0010E0380000F7
:10454000000000000000000FC008860000600000AE
:10455000000000000000001FF620000021C0000045
:10456000000000000000001FC0000000000000006C
:10457000000000000000003E0000000004010000F8
:1045800000000000000000F80000000048000000EB
:1045900000000000000001F00000000070000000BA
:1045A000000000000000072000000000F00078007C
:1045B0000000000000003C3800000000F00078001F
:1045C000000000000000783000000001C00078000A
:1045D000000000000001E000000000038000700007
:1045E000000000000003C000000000060000700092
:1045F00000000000000000000000001C000030006F
:1046000000000000000000000000003C000030003E
:1046100000000000000000000000007800007000B2
:104620000000000000000000000001E00000F000B9
:104630000000000000000000000003C00003F000C4
:1046400000000000000000000000060000078000DD
:10465000000000000000000000000000000000005A
:10466000000000000000000000000000000000004A
:10467000000000000000000000000000000000003A
:10468000000000000000000000000000000000002A
:10469000000000000000000000000000000000001A
:1046A000000000000000000000000000000000000A
:1046B00000000000000000000000000000000000FA
:1046C00000000000000000000000000000000000EA
:1046D00000000000000000000000000000000000DA
:1046E00000000000000000000000000000000000CA
:1046F00000000000000000000000000000000000BA
:1047000000000000000000000000000000000000A9
:104710000000000000000000000000000000000099
:104720000000000000000000000000000000000089
:104730000000000000000000000000000000000079
:104740000000000000000000000000000000000069
:104750000000000000000000000000000000000059
:104760000000000000000000000000000000000049
:104770000000000000000000000000000000000039
:104780000000000000000000000000000000000029
:104790000000000000000000000000000000000019
:1047A0000000000000000000000000000000000009
:1047B00000000000000000000000000000000000F9
:1047C00000000000000000000000000000000000E9
:1047D00000000000000000000000000000000000D9
:1047E00000000000000000000006000000000000C3
:1047F00000000000000000000FFFB00000000000FB
:10480000000000000000007FFFFC0000000000002E
:1048100000000000000001FFFFF81FC000000000C2
:104820000000000000000FFFFFFFF8000000000084
:104830000000000000001FE01FFFC000000000009B
:104840000000000000001E83887F80000000000040
:104850000000000000003C00000FF000000000001D
:10486000000000000000F8FA0003870000000000CC
:10487000000000000000F8FE0000C0000000000082
:10488000000000000001E0E706003000000000002A
:104890000000FF0000010003CE0007800FF7FFF0CB
:1048A000000FFC0000020200DC00007FC007FFFFD9
:1048B000F1FF800000041800780000000000DFFF16
:1048C000FFFC00000007400030000000000043FF34
:1048D000FFF000000003C000200004001800603F4B
:1048E000FF800000000180005FFFFF00187FA00331
:1048F000E0000000000000007FEFFF801CFFA00030
:104900000000000000000000601C00000C006000BF
:1049100000000000000000003F1800000E00E00052
:10492000000000000000003FC03800000601E00069
:104930000000000000000078003C0005FE21A000FF
:1049400000000000000000E3FCA3E7F01FFFD00020
:1049500000000000000001803F8018000183080073
:1049600000000000000003004200000000C3060039
:104970000000000000000F00C40000000023FCF055
:104980000000000000001E0090000000001103F075
:104990000000000000001C0120000000000D00F8D5
:1049A0000000000000007C0180000000000780384B
:1049B0000000000000007003800000000007C01825
:1049C0000000000000000007000000000007C00C0D
:1049D000000000000000000E000000000007C00CF6
:1049E000000000000000001C000000000007800E16
:1049F0000000000000000038000000000007000E6A
:104A0000000000000000007000000000000E000E1A
:104A100000000000000001E000000000001E000E89
:104A2000000000000000078000000000003C001EA5
:104A300000000000000000000000000001FC003E3B
:104A40000000000000000000000000000F8000389F
:104A50000000000000000000000000001F00000037
:104A60000000000000000000000000000000000046
:104A70000000000000000000000000000000000036
:104A80000000000000000000000000000000000026
:104A90000000000000000000000000000000000016
:104AA0000000000000000000000000000000000006
:104AB00000000000000000000000000000000000F6
:104AC00000000000000000000000000000000000E6
:104AD00000000000000000000000000000000000D6
:104AE00000000000000000000000000000000000C6
:104AF00000000000000000000000000000000000B6
:104B000000000000000000000000000000000000A5
:104B10000000000000000000000000000000000095
:104B20000000000000000000000000000000000085
:104B30000000000000000000000000000000000075
:104B40000000000000000000000000000000000065
:104B50000000000000000000000000000000000055
:104B60000000000000000000000000000000000045
:104B70000000000000000000000000000000000035
:104B80000000000000000000000000000000000025
:104B90000000000000000000000000000000000015
:104BA0000000000000000000000000000000000005
:104BB00000000000000000000000000000000000F5
:104BC00000000000000000000000000000000000E5
:104BD00000000000000000000000000000000000D5
:104BE00000000000000000000000000000000000C5
:104BF00000000000000000000000000000000000B5
:104C0000000000000000007FF01DC0000000000058
:104C10000000000000001FFFFFFF00000000000078
:104C20000000000000001FFFFFFFF0000000000078
:104C30000000000000001F803FFFFFC000000000D8
:104C40000000000000001E8388FFE000000000005C
:104C500000000000000078C0001FF8000000000005
:104C6000000000000000F1E20003E6000000000088
:104C7000000000000001F1F80000600000000000EA
:104C8000000000000003418F0C001800000000002D
:104C900000000000000600038C0007800001FFFFF9
:104CA00080000800000C0200F800000FC03FFFFF6A
:104CB000F0183000000E4000300000000000FFFF40
:104CC000FFE1C000000F80003000000000003FFF47
:104CD000FFFF004000078000200004000000103F9C
:104CE000FFFE1E00000000005FFDFF00007FF000DF
:104CF000FFFFE000000000007FEFFF8000FFF000FA
:104D00000000000000000000401C00000000100037
:104D10000000000000000000701800000180180072
:104D2000000000000000000060300000018018005A
:104D30000000000000000001807E0000F1C01C00A7
:104D40000000000000000007FFFDF5FE0FFFEE0071
:104D50000000000000000028FBE80E0000100F809B
:104D6000000000000000007E01080000000C070E9B
:104D700000000000000001E001100000000303FF3C
:104D8000000000000000070001100000000041CFFB
:104D90000000000000003C0001900000000011E352
:104DA000800000000001F80000A00000000007E102
:104DB000C00000000007E00000E00000000003E089
:104DC000E0000000001F000000E00000000001E023
:104DD000700000000000000000E00000000000E0A3
:104DE0003C0000000000000000C00000000000E0E7
:104DF0000FC000000000000000C00000000000E044
:104E000007E00000000000000080000000000070CB
:104E100000E00000000000000180000000000070C1
:104E20000000000000000000018000000000007889
:104E3000000000000000000003800000000003C02C
:104E400000000000000000001F00000000000F0034
:104E500000000000000000003E00000000001F00F5
:104E60000000000000000000000000000000000042
:104E70000000000000000000000000000000000032
:104E80000000000000000000000000000000000022
:104E90000000000000000000000000000000000012
:104EA0000000000000000000000000000000000002
:104EB00000000000000000000000000000000000F2
:104EC00000000000000000000000000000000000E2
:104ED00000000000000000000000000000000000D2
:104EE00000000000000000000000000000000000C2
:104EF00000000000000000000000000000000000B2
:104F000000000000000000000000000000000000A1
:104F10000000000000000000000000000000000091
:104F20000000000000000000000000000000000081
:104F30000000000000000000000000000000000071
:104F40000000000000000000000000000000000061
:104F50000000000000000000000000000000000051
:104F60000000000000000000000000000000000041
:104F70000000000000000000000000000000000031
:104F80000000000000000000000000000000000021
:104F90000000000000000000000000000000000011
:104FA0000000000000000000000000000000000001
:104FB00000000000000000000000000000000000F1
:104FC00000000000000000000000000000000000E1
:104FD00000000000000000000000000000000000D1
:104FE00000000000000000000000000000000000C1
:104FF00000000000000000000000000000000000B1
:1050000000000000000003FFF000000000000000AE
:105010000000000000000FFFFF8000000000000003
:105020000000000000001FFFFFFFF0000000000074
:105030000000000000001FFFFFFFF0000000000064
:105040000000000000001E383FFFFE0000000000CE
:10505000000000000000700000FF888000000000D9
:10506000000000000000F1E00C5FC0000000000044
:10507000000000000001F1F01C4B80000000000067
:1050800000000000000381BC0C0040000000000094
:10509000000000000000023F000218001F8000070F
:1050A000F800000000181807D80001001001FFFFE9
:1050B000FF800000001C0000F8000008100027FF1F
:1050C000FFE00000001F0000744A10281488007FD1
:1050D000FFFC000000060000200000000000101887
:1050E000FFFFF0000000000028000000000010009A
:1050F0000007F000000000004858000816001000EB
:1051000000000000000000004C5B081C36901000FE
:1051100000000000000000004C7209181790000009
:1051200000000000000000007C30000803000000C8
:105130000000000000000000783000031F80030022
:1051400000000000000000004C3E00C000400018BD
:10515000000000000000000080FFC000000F801C65
:1051600000000000000000010B108000000003BCE4
:105170000000000000000001040840000000003EA4
:105180000000000000000002100040000000001EAF
:105190000000000000000004400220000000000F9A
:1051A0000000000000000009000120000000000FC6
:1051B000800000000000001E0000900000000007BA
:1051C000C00000000000003C000078000000000764
:1051D000F000000000000070000038000000000730
:1051E000FC000000000000C00000380000000007C4
:1051F000FE0000000000078000001800000000070B
:105200008000000000000F0000000C000000000102
:10521000C00000000000780000000E000000000048
:10522000F00000000000F80000000700000000008F
:10523000F00000000000000000000F00000000006F
:10524000300000000000000000003E0000000000F0
:10525000000000000000000000007C0000000000D2
:10526000000000000000000000000000000000003E
:10527000000000000000000000000000000000002E
:10528000000000000000000000000000000000001E
:10529000000000000000000000000000000000000E
:1052A00000000000000000000000000000000000FE
:1052B00000000000000000000000000000000000EE
:1052C00000000000000000000000000000000000DE
:1052D00000000000000000000000000000000000CE
:1052E00000000000000000000000000000000000BE
:1052F00000000000000000000000000000000000AE
:10530000000000000000000000000000000000009D
:10531000000000000000000000000000000000008D
:10532000000000000000000000000000000000007D
:10533000000000000000000000000000000000006D
:10534000000000000000000000000000000000005D
:10535000000000000000000000000000000000004D
:10536000000000000000000000000000000000003D
:10537000000000000000000000000000000000002D
:10538000000000000000000000000000000000001D
:10539000000000000000000000000000000000000D
:1053A00000000000000000000000000000000000FD
:1053B00000000000000000000000000000000000ED
:1053C00000000000000000000000000000000000DD
:1053D00000000000000000000000000000000000CD
:1053E00000000000000000000000000000000000BD
:1053F000000000000000007C000000000000000031
:1054000000000000000001FF80000000000000001C
:1054100000000000000003FFF80000000000000092
:1054200000000000000007FFFFFE00000000000079
:105430000000000000000F80FFFFC7C00000000058
:105440000000000000003E8387FFFC000000000019
:105450000000000000007CE000FFF80000000000F9
:10546000000000000000FCF2001FC200000000006D
:1054700000000000000180F80003E00000000000D0
:10548000000000000002009E0000E000000000009C
:1054900000000000000C030F80001C01800FFFFFC4
:1054A000FFF800000006B003C00000700000FFFF1E
:1054B000FFFF000000078000EC000000000047FF35
:1054C000FFFFC000000300007C000000000041FF5F
:1054D000FFF0600000000000380004000000403FC2
:1054E000FFFE1800000000001FFBFF001C7F4000B3
:1054F000F800C400000000003FFDFF800CFFC0006A
:105500000000000000000000200C00000600400029
:105510000000000000000000100C0000030020004C
:105520000000000000000000180C00000F00300018
:1055300000000000000000000E0C0001FCC007F09D
:10554000000000000000000007FDFF9C003FFFF08E
:105550000000000000000000040FA7C0000007F8D2
:105560000000000000000000041BF80000000638E6
:105570000000000000000000023408000000061CCB
:105580000000000000000000022304000000070EDD
:1055900000000000000000000220C2000000070719
:1055A000000000000000000002403200000007037D
:1055B000C00000000000000002400D8000000383D6
:1055C000E00000000000000003C003C0000000F87D
:1055D0007F0000000000000003C001E00000003C6C
:1055E0000F000000000000000380003800000000F1
:1055F00000000000000000000300000F0000000099
:105600000000000000000000030000078000000010
:10561000000000000000000007000001C0000000C2
:10562000000000000000000006000000E000000094
:1056300000000000000000003E000000E00000004C
:105640000000000000000000F80000002000000042
:10565000000000000000000000000000000000004A
:10566000000000000000000000000000000000003A
:10567000000000000000000000000000000000002A
:10568000000000000000000000000000000000001A
:10569000000000000000000000000000000000000A
:1056A00000000000000000000000000000000000FA
:1056B00000000000000000000000000000000000EA
:1056C00000000000000000000000000000000000DA
:1056D00000000000000000000000000000000000CA
:1056E00000000000000000000000000000000000BA
:1056F00000000000000000000000000000000000AA
:105700000000000000000000000000000000000099
:105710000000000000000000000000000000000089
:105720000000000000000000000000000000000079
:105730000000000000000000000000000000000069
:105740000000000000000000000000000000000059
:105750000000000000000000000000000000000049
:105760000000000000000000000000000000000039
:105770000000000000000000000000000000000029
:105780000000000000000000000000000000000019
:105790000000000000000000000000000000000009
:1057A00000000000000000000000000000000000F9
:1057B00000000000000000000000000000000000E9
:1057C00000000000000000000000000000000000D9
:1057D00000000000000000000000000000000000C9
:1057E00000000000000000000000000000000000B9
:1057F00000000000000000FFC000000000000000EA
:1058000000000000000001FFF800000000000000A0
:1058100000000000000003FFFE0000000000000088
:1058200000000000000007FFFF80000000000000F3
:105830000000000000000783FFE0070000000000F8
:105840000000000000001E839FFC0E00000000000E
:105850000000000000003E3003FFFC0000000000DC
:105860000000000000007CBE003FF00000000000CF
:10587000000000000000803E0007FC000000000067
:10588000000000000001000F0000E000F1F01FE048
:10589000000000000002030300002006000FFFFCD0
:1058A0000000000000038001800007E00001CFFF3E
:1058B000FFFFC0000003C000C0000000000081FF27
:1058C000FFFFF80000008000600000003000807FD3
:1058D000FFFF3E0000000000600004003000801F59
:1058E000FFFF8100000000003FFFFF00387F8007BE
:1058F000FE002000000000001FFFBF8018FE800097
:1059000000000000000000000C01C00018010000B1
:1059100000000000000000000400C000180E00009D
:1059200000000000000000000400E0005E03FF0033
:1059300000000000000000000400600300E0FF0021
:10594000000000000000000003FF7F98000FE780C8
:10595000000000000000000000C07FC00001C38004
:105960000000000000000000002070000001C1C025
:10597000000000000000000000107000000380E044
:105980000000000000000000000868000003007034
:105990000000000000000000000468000007007024
:1059A0000000000000000000000238000006007C3B
:1059B00000000000000000000001F8000007003EA9
:1059C00000000000000000000000FE0400070006C8
:1059D00000000000000000000000FFFFF0070000D2
:1059E00000000000000000000000701FE003000045
:1059F0000000000000000000000030000000000077
:105A0000000000000000000000001800000000007E
:105A1000000000000000000000000C00000000007A
:105A2000000000000000000000000E000000000068
:105A3000000000000000000000001C00000000004A
:105A400000000000000000000000F0000000000066
:105A500000000000000000000001F0000000000055
:105A60000000000000000000000000000000000036
:105A70000000000000000000000000000000000026
:105A80000000000000000000000000000000000016
:105A90000000000000000000000000000000000006
:105AA00000000000000000000000000000000000F6
:105AB00000000000000000000000000000000000E6
:105AC00000000000000000000000000000000000D6
:105AD00000000000000000000000000000000000C6
