:020000040800F2
:10000000680400209D010008930F00081F0F0008DE
:10001000910F0008A9020008FB1200080000000070
:10002000000000000000000000000000970F000822
:10003000AB02000800000000950F0008990F0008AF
:10004000B7010008B7010008B7010008B7010008B0
:10005000B7010008B7010008B7010008B7010008A0
:10006000B7010008B7010008B7010008B701000890
:10007000B7010008B7010008B7010008B701000880
:10008000B7010008B7010008B7010008B701000870
:10009000B7010008B7010008B7010008B701000860
:1000A000B7010008B7010008B7010008B701000850
:1000B000B7010008B7010008B7010008B701000840
:1000C000B7010008B7010008B7010008B701000830
:1000D000B7010008B7010008B7010008B701000820
:1000E000B7010008B7010008B7010008B701000810
:1000F000B7010008B7010008B7010008B701000800
:10010000B7010008B7010008B7010008B7010008EF
:100110003D100008B7010008B7010008B70100084A
:10012000B7010008B7010008B7010008B7010008CF
:10013000B7010008B7010008B7010008B7010008BF
:10014000B7010008B7010008B7010008B7010008AF
:10015000B7010008B7010008B7010008B70100089F
:10016000B7010008B7010008B7010008B70100088F
:10017000B7010008B7010008B7010008000000003F
:10018000B7010008B7010008DFF80CD000F07AF8DA
:10019000004800473D1300086804002006488047D7
:1001A00006480047FEE7FEE7FEE7FEE7FEE7FEE75C
:1001B000FEE7FEE7FEE7FEE72110000889010008E0
:1001C0002DE9F05F0546002092469B46884606468C
:1001D000814640241BE0284641464746224600F01F
:1001E00041F853465A46C01A914110D31146184659
:1001F000224600F028F82D1A67EB01084F462246E8
:100200000120002100F01FF817EB00094E41201ECD
:10021000A4F10104DFDC484631462A464346BDE8E6
:10022000F09FD2B201E000F8012B491EFBD27047CB
:100230000022F6E710B513460A4604461946FFF7B2
:10024000F0FF204610BD202A04DB203A00FA02F11C
:10025000002070479140C2F1200320FA03F31943B4
:1002600090407047202A04DB203A21FA02F0002156
:10027000704721FA02F3D040C2F1200291400843B6
:1002800019467047064C074D06E0E06840F0010350
:1002900094E8070098471034AC42F6D3FFF778FF94
:1002A0002814000848140008FEE7704790F835103D
:1002B000022903D08021416501207047052180F883
:1002C00035100068016821F00101016000207047CD
:1002D00070B5044600F0F6F80546601C02D00448EC
:1002E0000078044400F0EEF8401BA042FAD370BD41
:1002F000180000202DE9F84F00224FF001080325D7
:100300004FF00F0E0B6808FA02F42340A3426ED19F
:100310004E68012E05D0022E03D0112E01D0122ED0
:1003200012D186684FEA420C05FA0CF7BE43CF683B
:1003300007FA0CF7374387604668A6430C79C4F385
:100340000014944034434460C668570005FA07FC23
:100350008C6826EA0C06BC403443C4604C68022C0E
:1003600001D0122C13D1D40800EB8404A346D4F896
:10037000209054074FEAD46A0EFA0AF629EA0609D1
:100380000E6906FA0AF646EA0906CBF82060066806
:100390000C7926EA0C0604F00304BC4034430460E4
:1003A0004C68E40065D5364C266846F480462660E5
:1003B000246822F0030604F480440094314C344451
:1003C000A446D4F808489607370F0EFA07F6B44348
:1003D0002D4EB04201D1002624E02C4EB04201D176
:1003E00001261FE02A4EB04202D102261AE040E068
:1003F000284EB04201D1032614E0274EB04201D16D
:1004000004260FE0254EB04201D105260AE0244E15
:10041000B04201D1062605E0224EB04201D10726A6
:1004200000E00826BE402643CCF808681E4E34681B
:100430004F689C43FF0300D51C4334601A4C241DB5
:1004400026684F689E43BF0300D51E432660164EA4
:10045000083634684F689C43FF0200D51C43346063
:10046000114E0C3634684F689C43BF0200D51C43C4
:100470003460521C102AFFF445AFBDE8F88F00002D
:1004800044380240003001400000024000040240B5
:1004900000080240000C024000100240001402401C
:1004A00000180240001C0240003C0140426931EA51
:1004B000020200D10904816170470AB1816170476D
:1004C0000904FBE70148806870470000180000201D
:1004D000024881680278114481607047180000204A
:1004E0000B4810B5016841F400710160016841F4E6
:1004F00080610160016841F480710160032000F0B7
:100500006FF8002000F006F800F024F8002010BD7D
:10051000003C024070B50D4D04464FF47A712878C6
:10052000B1FBF0F00A490968B1FBF0F000F002FB02
:1005300048B9102C07D200222146501E00F030F896
:1005400000206C6070BD012070BD0000180000200C
:10055000240000200A4808B5016841F48041016088
:10056000006800F4804000900548001F016841F0D9
:1005700080510160006800F08050009008BD0000CC
:1005800044380240002809DB00F01F02012191409D
:100590004009800000F1E020C0F800117047000021
:1005A000F0B40E4B1B680C46C3F30223C3F10705DE
:1005B000042D00D90425191D072901D2002300E0CC
:1005C000DB1E012606FA05F1491E214099409E4096
:1005D000761E16403143F0BC00F090BE0CED00E0FA
:1005E000064900F0070208684FF6FF03184040EA8A
:1005F0000220034A10430860704700000CED00E041
:100600000000FA052DE9F0470E46050065D0DFF839
:100610001481D8F80000F7B200F00F00B04207D202
:1006200088F80070D8F8000000F00F00B04254D1F4
:1006300028683D4C810712D5400703D5206840F457
:10064000E05020602878000703D5206840F460401F
:1006500020602068A96820F0F00008432060287816
:10066000C0072DD0304968680839012812D0022807
:1006700013D0032811D00968890700292DDA2168D1
:1006800021F0030101432160FFF71CFF814641F285
:10069000883A0EE009688903EFE709688901ECE709
:1006A000FFF710FFA0EB0901514502D90320BDE877
:1006B000F0872068696800F00C00B0EB810FEFD183
:1006C000D8F80010404601F00F01B14207D9077079
:1006D000006800F00F00B04201D00120E7E7287861
:1006E000400705D52068E96820F4E0500843206001
:1006F0002878000706D52068296920F4604040EA80
:10070000C100206000F038F82168084AC1F30311E5
:10071000515CC8400649086006480068FFF7FAFEC9
:100720000020C4E7003C024008380240AC13000837
:10073000240000201C0000200448054900680968C6
:10074000044AC1F38221515CC84070472400002054
:1007500008380240BC1300080448054900680968CD
:10076000044AC1F34231515CC84070472400002064
:1007700008380240BC130008154810B5006810F096
:100780000C02144813D04110042A0FD0082A0ED1AD
:100790000F4C241F2268236802F03F025B0207D53A
:1007A0002068C0F38810A0FB010106E0084610BDD8
:1007B0002168C1F38811A1FB00010023FFF700FDB0
:1007C0002168C1F30141491C4900B0FBF1F010BDA3
:1007D000083802400024F4002DE9F84F040076D0D8
:1007E0002078DFF838A3CE4DC00749D0DAF80010E2
:1007F0005046C1F38101012908D00068C0F381008F
:1008000002280AD1281D0068400206D52868800306
:1008100036D560680028E2D032E06068B0F5803FED
:1008200010D0B0F5A02F286810D020F480302860B8
:10083000286820F4802028606068A0B1FFF742FE9D
:1008400006460CE0286840F48030F4E740F480204D
:100850002860F7E7FFF736FE801B642873D8286806
:100860008003F7D50CE0FFF72DFE064605E000BF3C
:10087000FFF728FE801B6428F0D828688003F7D48F
:100880002078DFF8A08280074FF000093ED5DAF823
:100890000010504611F00C0F09D00068C0F3810021
:1008A00002280BD19D48001F0068400206D428682A
:1008B000800715D5E068012809D111E0E068B8B1DA
:1008C0000120C8F80000FFF7FDFD064605E020E125
:1008D000FFF7F8FD801B0228C0D828688007F7D5ED
:1008E0002868216920F0F80040EAC10028600DE086
:1008F000C8F80090FFF7E6FD064604E0FFF7E2FDCA
:10090000801B02281FD828688007F7D420780007AA
:1009100022D5824E844861696C3671B10121016033
:10092000FFF7D0FD074604E0FFF7CCFDC01B02280F
:1009300009D830688007F7D50EE0C0F80090FFF7BF
:10094000C1FD074605E082E0FFF7BCFDC01B0228A1
:100950007DD830688007F7D42078400768D5DFF865
:10096000BCB100270BF1380BDBF80000C0000BD442
:10097000DBF8001041F08051CBF80010DBF80000EC
:10098000012700F080500090684E3068C00510D4F8
:10099000306840F480703060FFF794FD009005E00F
:1009A000FFF790FD0099401A022850D83068C00522
:1009B000F6D55A4EA068683601280FD00528306851
:1009C00010D020F001003060306820F0040030606A
:1009D000A068B8B1FFF776FD00900FE0306840F0F6
:1009E0000100F4E740F004003060F7E7FFF76AFD2C
:1009F0000099411A41F28830814266D830688007F8
:100A0000F4D50EE0FFF75EFD009007E0FFF75AFD1A
:100A10000099411A41F28830814256D830688007E7
:100A2000F4D42FB1DBF8001021F08051CBF8001086
:100A3000A069D0B3DAF800205146C2F38102022A3D
:100A40004AD00228484607D0C8F8600000E03CE0E1
:100A5000FFF738FD04463BE04746C8F86000FFF763
:100A600031FD064605E000BFFFF72CFD801B022884
:100A70002BD828688001F7D4D4E907010843A16A7C
:100A80002B4A490802EB0141626A41EA821108439C
:100A900094F82C1040EA01612048001F01600120F9
:100AA0003866FFF70FFD044605E034E0FFF70AFD66
:100AB000001B022809D828688001F7D52BE000BF69
:100AC000FFF700FD001B022802D90320BDE8F88FC4
:100AD00028688001F4D41EE00128F7D00868E26994
:100AE00000F48001914214D1226A00F03F0191424A
:100AF0000FD147F6C071626A0140914209D1A26AE2
:100B000000F44031914204D1E16A00F07060884203
:100B100001D00120DAE70020D8E7000008380240C1
:100B20000038024000004742800E474200700040FB
:100B30000000FFFF10B5401EB0F1807F01D30120FF
:100B400010BD4FF0E02460610F21601700F0D6FB6C
:100B50000020A06107202061002010BD7047000028
:100B600070B5026804461068D168536910F00F0F21
:100B700052D003F0010501F490762E435FD0C207F6
:100B800005D0CA0503D5E26B42F00102E2634207D9
:100B900005D5DA0703D0E26B42F00202E263820776
:100BA00005D5DA0703D0E26B42F00402E2630207E4
:100BB00007D501F020022A4303D0E26B42F008027D
:100BC000E263E26B002A33D0800604D5880602D5A2
:100BD000204600F04FFA20684069E16BC0F38010B6
:100BE000090700D428B3204600F036FA206841698E
:100BF00049061AD5416921F040014161606BA0B1FD
:100C00001B490165606BFFF751FB002810D0606B3A
:100C1000016DBDE870400847830610D58B060ED5E0
:100C20002046BDE8704000F025BA2046FFF796FF49
:100C300070BD2046FFF792FF0020E06370BD030601
:100C400006D50B0604D52046BDE8704000F0F2BA88
:100C50004006F3D54806F1D5D168204621F0400181
:100C6000D160202184F8391000F058F970BD0000DF
:100C70004910000870B5040004D094F8390000252C
:100C800010B106E0012070BD84F83850204600F015
:100C900023F8242084F839002068C16821F4005129
:100CA000C160204600F032FA2068016921F49041C9
:100CB00001612068416921F02A0141612068C16811
:100CC00041F40051C160E563202084F8390084F8C4
:100CD0003A00002070BD000010B586B00446142113
:100CE0006846FFF7A5FA17492068884227D11648B9
:100CF000016841F400210160006800F400200590C3
:100D000011481038016841F00101016000680221BA
:100D100000F0010005900320CDE900010121CDE99B
:100D200002100820049069460848FFF7E3FA002201
:100D300011463420FFF734FC3420FFF723FC06B0C3
:100D400010BD0000004C004040380240000002404E
:100D500090F83A30202B22D1F9B1F2B190F8383026
:100D6000012B1CD081628285C2850021C1632222B1
:100D700080F83A2080F838100168CA6842F480721E
:100D8000CA6001684A6942F001024A610068C168AC
:100D900041F02001C160002070470120704702200F
:100DA0007047000010B51C4900680968884231D1BD
:100DB0001A481B4C4FF47A7302780146672A11D007
:100DC000722A17D0622A1DD06F2A23D114224969B2
:100DD000114800F027F84FF400512046BDE81040BC
:100DE000FFF764BB142289680B4800F01BF84FF42E
:100DF0008051F2E71422C968074800F013F84FF455
:100E00008041EAE714220969034800F00BF84FF427
:100E10000041E2E710BD0000280000200000002093
:100E2000000C02402DE9F843044690F839001F46B3
:100E300016460D46202850D1B5B1AEB194F8380011
:100E400001284AD0012084F838004FF00008C4F887
:100E50003C80212084F83900FFF734FBA6848146CA
:100E6000E68484F8388026E00120BDE8F883E08C31
:100E7000401EE084A0684B46B0F5805F4FF0000252
:100E80004FF080012046009703D000F004FAE8B943
:100E90000DE000F000FAC8B928882168C0F3080006
:100EA0004860206908B16D1C05E0AD1C03E02168B5
:100EB00015F8010B4860E08C0028D8D14B46002281
:100EC00040212046009700F0E6F908B10320CCE766
:100ED000202084F839000020C7E70220C5E790F8F9
:100EE0003930202B18D1A9B1A2B190F83830012B9C
:100EF00012D001628284C2840021C163212280F861
:100F0000392080F838100068C16841F08001C16064
:100F10000020704701207047022070477047FEE7AD
:100F200070B586B014216846FFF782F9164800258F
:100F3000016841F080010160016801F080010591C4
:100F4000016841F001010160016801F001010591B2
:100F5000016841F00801016000680C4E00F00800D3
:100F60004FF470440590002221463046FFF7A5FA61
:100F70000120CDE900400320CDE90250694630460A
:100F8000FFF7B8F906B070BD30380240000C0240DF
:100F9000FEE7704770477047FFF79ABA30B593B0D5
:100FA00030216846FFF744F914210CA8FFF740F9F7
:100FB00019480025016841F080510160006800F087
:100FC000805011901548016841F48041016000682B
:100FD000022400F480401190012000900004019050
:100FE0008001CDE9064008AA0420A82182E8130068
:100FF0000B906846FFF7F0FB0CA90F2081E8310049
:101000004FF4A0500F90E002109005210CA8FFF7BC
:10101000F9FA13B030BD00004038024000700040C3
:101020000548016841F47001016003494FF0006018
:10103000803908607047000088ED00E00148FFF744
:101040008FBD00002800002010B5806B0021C185F5
:10105000C184FFF783FD10BD0168CA6822F4907255
:10106000CA6001684A6922F001024A61202180F8C1
:101070003A10704710B590F83A10222901D002209A
:1010800010BD8168B1F5805F11D001690029016848
:101090001FD0496801F07F03816A4A1C82620B708D
:1010A000C18D491E0904090CC18518D02BE00269C5
:1010B000816A002A0268526805D0D2B20A80816A29
:1010C000491C8162ECE7C2F308020A80816A891C2C
:1010D000F7E74A68816A4B1C83620A70E0E701689F
:1010E000CA6822F02002CA600168CA6822F48072CD
:1010F000CA6001684A6922F001024A61202180F831
:101100003A10FFF74FFE002010BD00002DE9F0411E
:10111000044600680169E26821F44051114301610D
:101120002169A068E26908436169114308432168A5
:10113000CA6849F20C639A430243CA602068416955
:10114000A26921F4407111434161E06919276425C6
:101150003226B0F5004F354A354920684FF0000877
:1011600006D0884201D0904236D1FFF7F5FA35E03B
:10117000884201D0904202D1FFF7EEFA01E0FFF77A
:10118000DBFA61684A18A0FB070148EB0803FFF788
:1011900017F80146B0FBF5F00201B1FBF5F06FF076
:1011A0001803584301EB800006EBC000B0FBF5F0DC
:1011B00000F0F80002EB4002B1FBF5F0584301EB00
:1011C000800006EBC000B0FBF5F000F007002168DE
:1011D00010448860BDE8F081FFF7AEFA61688B0FBC
:1011E0008A00A0FB0701FEF7EBFF0146B0FBF5F01C
:1011F0006FF01802504301EB800006EB0010B0FBCB
:10120000F5F000F0F002B1FBF5F002EB0012B1FBDB
:10121000F5F06FF01803584301EB800006EB001067
:10122000B0FBF5F000F00F00D1E700000014014022
:101230000010014090F83910212901D00220704798
:101240008168B1F5805F016A0BD04A1C02620268B6
:1012500009785160C18C491E0904090CC1840ED063
:1012600017E009880268C1F308015160016900298B
:10127000016A02D0491C0162ECE7891CFBE70168A6
:10128000CA6822F08002CA600068C16841F040016B
:10129000C160002070472DE9F041984617460E4680
:1012A0000446069D1DE0681C1BD02DB1FFF70AF90E
:1012B000A0EB0800A84214D92068C16821F4D071BD
:1012C000C1602068416921F001014161202084F85A
:1012D000390084F83A00002084F838000320BDE883
:1012E000F0812068006836EA000004D00020B8428F
:1012F000D9D00020F3E70120F9E7FEE70907090E3E
:10130000002804DB00F1E02080F80014704700F0B2
:101310000F0000F1E02080F8141D704702E008C8BB
:10132000121F08C1002AFAD170477047002001E05F
:1013300001C1121F002AFBD170470000FFF7D0F84F
:10134000FFF72CFEFFF7ECFD164C15480C21206032
:101350004FF4E13060600020A060E060C4E9040167
:10136000A061E0612046FFF785FC2068C16841F07C
:101370004001C1602068C16841F02001C1600A4895
:101380000E2241682046FFF7AAFD4FF47A7401222D
:1013900005490448FFF7DCFC2046FEF799FFF6E715
:1013A000004C004028000020000000200000000049
:1013B0000000000001020304060708090000000005
:1013C0000102030420546F67676C65205265642036
:1013D0004C65640D0A00000020546F67676C65203F
:1013E0004F72616E6765204C65640D0A0000000055
:1013F00020546F67676C6520426C7565204C65648E
:101400000D0A000020436F6E74726F6C204C65648F
:101410000D0A000020546F67676C65204772656590
:101420006E204C65640D0A0048140008000000207E
:10143000280000001C130008701400082800002079
:10144000400400002C1300080000000004140008F1
:1014500014140008C4130008F0130008D81300087F
:101460000100000010000000000000000024F40053
:040000050800018965
:00000001FF
