:020000040800F2
:10000000780400209D010008AB1500084D1500087C
:10001000A91500081907000855160008000000007F
:10002000000000000000000000000000AF15000804
:100030001B07000800000000AD150008B1150008FE
:10004000B7010008B7010008B7010008B7010008B0
:10005000B7010008B7010008B7010008B7010008A0
:10006000B7010008B7010008B7010008B701000890
:10007000B7010008B7010008B7010008B701000880
:10008000B7010008B7010008E5050008B70100083E
:10009000B7010008B7010008B7010008B701000860
:1000A000B7010008B7010008B7010008B701000850
:1000B000B7010008B7010008B7010008B701000840
:1000C000B7010008B7010008B7010008B701000830
:1000D000B7010008B7010008B7010008B701000820
:1000E000B7010008B7010008B7010008B701000810
:1000F000B7010008B7010008B7010008B701000800
:10010000B7010008B7010008B7010008B7010008EF
:10011000B7010008B7010008B7010008B7010008DF
:10012000B7010008B7010008B7010008B7010008CF
:10013000B7010008B7010008B7010008B7010008BF
:10014000B7010008B7010008B7010008B7010008AF
:10015000B7010008B7010008B7010008B70100089F
:10016000B7010008B7010008B7010008B70100088F
:10017000B7010008B7010008B7010008000000003F
:10018000B7010008B7010008DFF80CD000F018FA3A
:10019000004800479516000878040020064880476C
:1001A00006480047FEE7FEE7FEE7FEE7FEE7FEE75C
:1001B000FEE7FEE7FEE7FEE73916000889010008C2
:1001C0002DE9F05F0546002092469B46884606468C
:1001D000814640241BE0284641464746224600F01F
:1001E0004BF953465A46C01A914110D3114618464E
:1001F000224600F032F92D1A67EB01084F462246DD
:100200000120002100F029F917EB00094E41201EC2
:10021000A4F10104DFDC484631462A464346BDE8E6
:10022000F09FD2B201E000F8012B491EFBD27047CB
:100230000022F6E710B513460A4604461946FFF7B2
:10024000F0FF204610BD2DE9FE4F81EA030404F0C3
:10025000004421F0004100944FF0000B23F00043D4
:1002600050EA01045ED052EA03045BD0C3F30A549F
:10027000C1F30A552C44A4F2F3340194A0FB0254B8
:10028000C1F3130141F48011C3F3130343F480134A
:1002900001FB024400FB034E840A970A44EA81549E
:1002A00047EA8357A4FB076802958D0A05FB07857B
:1002B0004FEA932C04FB0C542705029D4FEA065885
:1002C00047EA1637B5EB08056EEB070C870E920E62
:1002D00047EA811742EA8312A7FB0201B6EB0B0142
:1002E00064EB00042B0D43EA0C335E1844EB1C5006
:1002F000DA465146E7FB0201C5F313044FEA0B331C
:1003000043EA14534FEA0432019C43EA0603A4F182
:100310000C040294009CCDE900B400F003F903B092
:10032000BDE8F08F00200146F9E72DE9F04D81EAA4
:10033000030404F0004B21F0004514464FF0000A7E
:1003400023F0004150EA050220D054EA01021DD0FA
:10035000C5F30A570246C5F31303C1F31300C1F3F3
:100360000A5640F4801543F48013A7EB0608101BCF
:10037000D64608F2FD3873EB050002D308F10108F8
:1003800001E092185B41B8F1000F03DA002001464A
:10039000BDE8F08D00204FF48011064684460EE043
:1003A000171B73EB050705D3121B63EB050306430D
:1003B0004CEA010C49084FEA300092185B4150EAC0
:1003C0000107EDD152EA030012D082EA040083EA69
:1003D0000501084305D0101BAB4106D201220023C2
:1003E00006E000224FF0004302E06FF001025310DC
:1003F0001AEB06004CEB085110EB0A0041EB0B0125
:10040000BDE8F04D00F07FB80EB540F233410291E7
:100410000021CDE900110A460B4600F083F803B035
:1004200000BD01F0004330B421F0004150EA010268
:1004300006D00A0DA2F56072C1F31301002A02DC96
:1004400030BC00207047440F44EAC104C100E018EA
:1004500030BC00EBC25000F01FB8202A04DB203A69
:1004600000FA02F1002070479140C2F1200320FA07
:1004700003F3194390407047202A04DB203A21FA05
:1004800002F00021704721FA02F3D040C2F12002AD
:1004900091400843194670470029A8BF7047401C87
:1004A000490008BF20F00100704710B4B0FA80FC8A
:1004B00000FA0CF050EA010404BF10BC704749B1C7
:1004C000CCF1200421FA04F411FA0CF118BF012137
:1004D00021430843A3EB0C01CB1D4FEA00614FEA17
:1004E000102042BF002010BC704700EBC3501044E6
:1004F0000029A4BF10BC7047401C490008BF20F071
:10050000010010BC704710B5141E73F1000408DA26
:10051000401C41F1000192185B411A4301D120F0C7
:10052000010010BD2DE9F04D92469B4611B1B1FA84
:1005300081F202E0B0FA80F220329046FFF78DFFA0
:1005400004460F4640EA0A0041EA0B0153465A4668
:10055000084313D0114653EA010019D0C8F14002F4
:100560005046FFF789FF05460E465046594642461B
:10057000FFF773FF084305D0012004E02046394609
:10058000BDE8F08D0020054346EAE0762C43374372
:100590000A986305E40AA0EB08000022FD0A44EA79
:1005A00047540A3002D500200146E9E70105101939
:1005B0006941DDE9084500196941BDE8F04DA2E750
:1005C000064C074D06E0E06840F0010394E80700A0
:1005D00098471034AC42F6D3FFF7DAFD80170008D5
:1005E000A0170008014800F06FB900001C000020AF
:1005F000464910B54A6822F440324A604A68436866
:100600001A434A6001684A6822F480724A600168AD
:100610004A68036942EA03224A6001684A6822F094
:1006200040724A6001684A6883681A434A600168F8
:100630008A6822F400628A6001688A68C3681A4383
:100640008A60816A6FF07062D14201688A6822F024
:1006500070628A6001688A680CD0836A1A438A6073
:1006600001688A6822F040528A6001688A68C36A19
:100670001A4301E022F040528A6001688A6822F041
:1006800002028A6001688A68037E42EA43028A6045
:1006900090F82010002901684A680FD042F40062E7
:1006A0004A6001684A6822F460424A6001684A6808
:1006B000174C436A04EB43331A4301E022F400620F
:1006C0004A600168CA6A22F47002CA620168CA6A92
:1006D000838B104C04EB03531A43CA6201688A6887
:1006E00022F400728A6001688A6890F8303042EA29
:1006F00043228A6001688A6822F480628A60016805
:100700008A68406942EA8020886010BD0023014069
:1007100000E0FFFF0000F0FFFEE7704770470000B9
:1007200078B50024009490F83C20012A19D00122C9
:1007300080F83C200A6807230568092A13D9EE6867
:100740000A3A02EB420293409E43EE600B788A68BD
:100750000A3B03EB43039A400368DD682A43DA60EF
:1007600010E0022078BD2E6902EB420293409E43C6
:100770002E610B788A6803EB43039A4003681D6976
:100780002A431A614A681F23072A13D205686E6B31
:10079000521E02EB820293409E436E630B790A88DD
:1007A0005B1E92B203EB83039A4003685D6B2A439E
:1007B0005A6327E005680D2A12D22E6BD21F02EB76
:1007C000820293409E432E630B790A88DB1F92B20C
:1007D00003EB83039A4003681D6B2A431A6311E0FD
:1007E000EE6A0D3A02EB820293409E43EE620B7971
:1007F0000A880D3B92B203EB83039A400368DD6ADB
:100800002A43DA62164B0568144A9D4206D10D68E8
:10081000122D03D1556845F48005556005689D4249
:1008200018D10B68102B01D0112B13D1536843F44E
:1008300000035360096810290CD10A490A4A096863
:10084000B1FBF2F101EB8101490000E0491E00918A
:100850000029FBD180F83C40002078BD00230140F6
:10086000002001401800002040420F0010B50E4942
:1008700000680968884216D10B4800F022F80B4C3A
:1008800080B22080FFF7C0FD9FED091B53EC112BB8
:10089000FFF74BFD9FED081B53EC112BFFF7D3FC2B
:1008A000FFF7BFFDA06010BD1C000020000000206D
:1008B0000000000000FEAF40000000000000084003
:1008C00070470068C06C704770B5044600680168E6
:1008D0004268C1F34001C2F3401251B34AB3216CE4
:1008E000C90603D4216C41F400712164816811F0C0
:1008F000405F17D1217EA9B9C16A11F4700F02D0EF
:10090000816849050ED4416821F020014160206CC6
:1009100020F480702064206CC00403D4206C40F06C
:10092000010020642046FFF7A1FF21686FF012004C
:100930000860206801684268C1F38001C2F3C012F8
:1009400089B382B3216CC90603D4216C41F40051F0
:100950002164816811F4401F1ED1816B11F4401F86
:1009600002D08168490517D44168490514D48168CB
:1009700011F0405F10D1217E71B9416821F08001F2
:100980004160206C20F480502064206CC00503D4AA
:10099000206C40F0010020642046FFF7BFFE216874
:1009A0006FF00C00086020680168426811F0010FC8
:1009B000C2F380120ED06AB10068C0070AD0206C62
:1009C00040F480302064204600F046F821686FF043
:1009D00001000860206801684268C1F34011C2F359
:1009E000806200290DD0002A0BD0616C41F0020119
:1009F00061646FF0200505602046FFF761FF206805
:100A0000056070BD70B504004FF0000503D0206C88
:100A1000002610B107E0012070BD204600F01EF84E
:100A2000666484F83C60206CC00610D4206C20F40E
:100A3000885040F0020020642046FFF7D9FD66642C
:100A4000206C20F0020040F00100206400E001254D
:100A500084F83C60284670BD7047000010B586B031
:100A6000044614216846FFF7E3FB154920688842D5
:100A700024D114480021026842F4807202600068A8
:100A800000F4807005900F481438026842F00102AB
:100A90000260006800F00100059001200090032032
:100AA000CDE901016946084800F048F9002201211A
:100AB000122000F08DFA122000F07CFA06B010BD72
:100AC00000200140443802400000024018B50021D7
:100AD000009190F83C20012A07D0012280F83C20A8
:100AE00002689368DB0702D011E0022018BD93680A
:100AF00043F0010393602C4A2C4B1268B2FBF3F2D3
:100B000002EB420200E0521E0092002AFBD1026872
:100B10009368DB0746D0036C40F20164A34343F4BF
:100B20008073036453685B0505D5036C23F400539D
:100B300043F480530364036CDB0404D5436C23F05B
:100B40000603436400E0416480F83C10184B6FF0EA
:100B50002201116001684A68164C22434A605968B4
:100B60000068CA06144906D088421BD1816811F07A
:100B7000405F13D016E08842F8D0104A904203D16B
:100B8000D1F80423D206F1D00D4A90420AD1D1F80F
:100B9000041301F01F011029E8D303E0816841F03C
:100BA00080418160002018BD1800002040420F00E5
:100BB00000230140200000040020014000210140EA
:100BC0000022014070B54379012B1AD001264671ED
:100BD0000223037105682C6840F6FE7393409C4322
:100BE000D1E900310B43934023432B6001680B682C
:100BF000C0249440A3430B60067100214171084654
:100C000070BD022070BD70B5040003D020790025AE
:100C100010B105E0012070BD6571204600F008F8B4
:100C200002202071256101202071002070BD00008C
:100C300010B586B0044614216846FFF7F9FA114949
:100C4000206888421CD110480021026842F00052FE
:100C50000260006800F0005005900B4810380268F0
:100C600042F001020260006800F0010005902020BF
:100C700000900320CDE901016946044800F05EF8C8
:100C800006B010BD00740040403802400000024031
:100C900018B5046800940068104421B11430009025
:100CA0000360002018BD0830F9E730B54279012A09
:100CB00016D0012242710223037103681D6802FAF3
:100CC00001F425431D60002901680B680AD00C68F7
:100CD00003F4802304F46014B3F5802F0FD015E0E3
:100CE000022030BD0C6803F0040304F03804042B28
:100CF0000CD1382C0AD14B6843F0010305E0B4F560
:100D0000601F03D14B6843F002034B600271002166
:100D10004171084630BD000070B5044600F0EAF8A5
:100D20000546601C02D004480078044400F0E2F854
:100D3000401BA042FAD370BD0C0000202DE9F84FF3
:100D400000224FF0010803254FF00F0E0B6808FA40
:100D500002F42340A3426ED14E68012E05D0022E2C
:100D600003D0112E01D0122E12D186684FEA420C08
:100D700005FA0CF7BE43CF6807FA0CF737438760D4
:100D80004668A6430C79C4F300149440344344608D
:100D9000C668570005FA07FC8C6826EA0C06BC40BA
:100DA0003443C4604C68022C01D0122C13D1D408F7
:100DB00000EB8404A346D4F8209054074FEAD46A89
:100DC0000EFA0AF629EA06090E6906FA0AF646EA52
:100DD0000906CBF8206006680C7926EA0C0604F0B8
:100DE0000304BC40344304604C68E40065D5364CD1
:100DF000266846F480462660246822F0030604F440
:100E000080440094314C3444A446D4F808489607F2
:100E1000370F0EFA07F6B4432D4EB04201D100262B
:100E200024E02C4EB04201D101261FE02A4EB042F0
:100E300002D102261AE040E0284EB04201D103263A
:100E400014E0274EB04201D104260FE0254EB042F7
:100E500001D105260AE0244EB04201D1062605E064
:100E6000224EB04201D1072600E00826BE402643AC
:100E7000CCF808681E4E34684F689C43FF0300D5C9
:100E80001C4334601A4C241D26684F689E43BF03E0
:100E900000D51E432660164E083634684F689C43C2
:100EA000FF0200D51C433460114E0C3634684F6885
:100EB0009C43BF0200D51C433460521C102AFFF42F
:100EC00045AFBDE8F88F00004438024000300140D3
:100ED000000002400004024000080240000C0240F2
:100EE000001002400014024000180240001C0240A2
:100EF000003C014001488068704700000C00002061
:100F00000248816802781144816070470C0000201B
:100F10000B4810B5016841F400710160016841F4AB
:100F200080610160016841F480710160032000F07C
:100F30006FF8002000F006F800F024F8002010BD43
:100F4000003C024070B50D4D04464FF47A7128788C
:100F5000B1FBF0F00A490968B1FBF0F000F0E2FAE9
:100F600048B9102C07D200222146501E00F030F85C
:100F700000206C6070BD012070BD00000C000020DE
:100F8000180000200A4808B5016841F4804101605A
:100F9000006800F4804000900548001F016841F09F
:100FA00080510160006800F08050009008BD000092
:100FB00044380240002809DB00F01F020121914063
:100FC0004009800000F1E020C0F8001170470000E7
:100FD000F0B40E4B1B680C46C3F30223C3F10705A4
:100FE000042D00D90425191D072901D2002300E092
:100FF000DB1E012606FA05F1491E214099409E405C
:10100000761E16403143F0BC00F025BB0CED00E02D
:10101000064900F0070208684FF6FF03184040EA4F
:101020000220034A10430860704700000CED00E006
:101030000000FA052DE9F0470E46050065D0DFF8FF
:101040001481D8F80000F7B200F00F00B04207D2C8
:1010500088F80070D8F8000000F00F00B04254D1BA
:1010600028683D4C810712D5400703D5206840F41D
:10107000E05020602878000703D5206840F46040E5
:1010800020602068A96820F0F000084320602878DC
:10109000C0072DD0304968680839012812D00228CD
:1010A00013D0032811D00968890700292DDA216897
:1010B00021F0030101432160FFF71CFF814641F24B
:1010C000883A0EE009688903EFE709688901ECE7CF
:1010D000FFF710FFA0EB0901514502D90320BDE83D
:1010E000F0872068696800F00C00B0EB810FEFD149
:1010F000D8F80010404601F00F01B14207D907703F
:10110000006800F00F00B04201D00120E7E7287826
:10111000400705D52068E96820F4E05008432060C6
:101120002878000706D52068296920F4604040EA45
:10113000C100206000F018F82168084AC1F30311CB
:10114000515CC8400649086006480068FFF7FAFE8F
:101150000020C4E7003C0240083802407017000835
:101160001800002010000020154810B5006810F08D
:101170000C02144813D04110042A0FD0082A0ED1B3
:101180000F4C241F2268236802F03F025B0207D540
:101190002068C0F38810A0FB010106E0084610BDDE
:1011A0002168C1F38811A1FB00010023FFF708F8B3
:1011B0002168C1F30141491C4900B0FBF1F010BDA9
:1011C000083802400024F4002DE9F84F040076D0DE
:1011D0002078DFF838A3CE4DC00749D0DAF80010E8
:1011E0005046C1F38101012908D00068C0F3810095
:1011F00002280AD1281D0068400206D5286880030D
:1012000036D560680028E2D032E06068B0F5803FF3
:1012100010D0B0F5A02F286810D020F480302860BE
:10122000286820F4802028606068A0B1FFF762FE83
:1012300006460CE0286840F48030F4E740F4802053
:101240002860F7E7FFF756FE801B642873D82868EC
:101250008003F7D50CE0FFF74DFE064605E000BF22
:10126000FFF748FE801B6428F0D828688003F7D475
:101270002078DFF8A08280074FF000093ED5DAF829
:101280000010504611F00C0F09D00068C0F3810027
:1012900002280BD19D48001F0068400206D4286830
:1012A000800715D5E068012809D111E0E068B8B1E0
:1012B0000120C8F80000FFF71DFE064605E020E10A
:1012C000FFF718FE801B0228C0D828688007F7D5D2
:1012D0002868216920F0F80040EAC10028600DE08C
:1012E000C8F80090FFF706FE064604E0FFF702FE8E
:1012F000801B02281FD828688007F7D420780007B1
:1013000022D5824E844861696C3671B10121016039
:10131000FFF7F0FD074604E0FFF7ECFDC01B0228D5
:1013200009D830688007F7D50EE0C0F80090FFF7C5
:10133000E1FD074605E082E0FFF7DCFDC01B022867
:101340007DD830688007F7D42078400768D5DFF86B
:10135000BCB100270BF1380BDBF80000C0000BD448
:10136000DBF8001041F08051CBF80010DBF80000F2
:10137000012700F080500090684E3068C00510D4FE
:10138000306840F480703060FFF7B4FD009005E0F5
:10139000FFF7B0FD0099401A022850D83068C00508
:1013A000F6D55A4EA068683601280FD00528306857
:1013B00010D020F001003060306820F00400306070
:1013C000A068B8B1FFF796FD00900FE0306840F0DC
:1013D0000100F4E740F004003060F7E7FFF78AFD12
:1013E0000099411A41F28830814266D830688007FE
:1013F000F4D50EE0FFF77EFD009007E0FFF77AFDE1
:101400000099411A41F28830814256D830688007ED
:10141000F4D42FB1DBF8001021F08051CBF800108C
:10142000A069D0B3DAF800205146C2F38102022A43
:101430004AD00228484607D0C8F8600000E03CE0E7
:10144000FFF758FD04463BE04746C8F86000FFF749
:1014500051FD064605E000BFFFF74CFD801B02284A
:101460002BD828688001F7D4D4E907010843A16A82
:101470002B4A490802EB0141626A41EA82110843A2
:1014800094F82C1040EA01612048001F01600120FF
:101490003866FFF72FFD044605E034E0FFF72AFD2C
:1014A000001B022809D828688001F7D52BE000BF6F
:1014B000FFF720FD001B022802D90320BDE8F88FAA
:1014C00028688001F4D41EE00128F7D00868E2699A
:1014D00000F48001914214D1226A00F03F01914250
:1014E0000FD147F6C071626A0140914209D1A26AE8
:1014F00000F44031914204D1E16A00F0706088420A
:1015000001D00120DAE70020D8E7000008380240C7
:101510000038024000004742800E47420070004001
:101520000000FFFF10B5401EB0F1807F01D3012005
:1015300010BD4FF0E02460610F21601700F08BF8C0
:101540000020A06107202061002010BDFEE7000000
:101550007FB5002412480094019402940F4903942B
:1015600001604FF48031C0E9011401250461057662
:1015700080F820400B49C0E90A14C561C46080F8B6
:1015800030404561FFF73EFA07200094CDE9015055
:1015900069460348FFF7C4F87FBD00000020014002
:1015A0001C0000200100000FFEE7704770477047E5
:1015B000FFF7A6BC30B593B030216846FEF738FE81
:1015C00014210CA8FEF734FE19480025016841F0EB
:1015D00080510160006800F080501190154801684A
:1015E00041F4804101600068022400F480401190C1
:1015F00001200090000401908001CDE9064008AA76
:101600000420A82182E813000B906846FFF7DCFD58
:101610000CA90F2081E831004FF4A0500F90E00298
:10162000109005210CA8FFF705FD13B030BD000098
:1016300040380240007000400548016841F47001E4
:10164000016003494FF00060803908607047000076
:1016500088ED00E0FEE70907090E002804DB00F131
:10166000E02080F80014704700F00F0000F1E02047
:1016700080F8141D704702E008C8121F08C1002A34
:10168000FAD170477047002001E001C1121F002A03
:10169000FBD170472DED048B82B0FFF739FCFFF7CB
:1016A00089FF2B480024016841F080010160016836
:1016B00001F080010091016841F0010101600068C2
:1016C00000F001000090FFF743FF234900942148F8
:1016D000019408600846FFF796FA009410226946C4
:1016E0001D480194FFF76EFA1B484838FFF7EEF9E2
:1016F00010211948FFF7D9FADFED188A9FED189AE3
:10170000184D194CDFED199AB0EE088A4FF4FA66BD
:10171000D4ED010A0022102180EE880A0E4820EE46
:10172000280ABCEEC00A10EE103AFFF7B1FA3046B4
:10173000FFF7F2FA94ED010A30EE090A10EE100AF2
:1017400084ED010AA842E3DDC4ED019AE0E7000060
:1017500030380240007400406400002000F07F45F3
:10176000CDCC4C3E666646400000002000000000E4
:101770000000000000000000010203040607080941
:10178000A0170008000000201C00000076160008CA
:10179000BC1700081C0000205C040000861600082E
:1017A0000000000000000000000000000100000038
:0C17B00010000000000000000024F40005
:040000050800018965
:00000001FF
