:020000040800F2
:10000000680400209D010008B71600086B15000861
:10001000B51600084B070008D917000800000000BB
:100020000000000000000000000000001B17000896
:100030004D07000800000000B91600081D17000851
:10004000B7010008B7010008B7010008B7010008B0
:10005000B7010008B7010008B7010008B7010008A0
:10006000B7010008B7010008B7010008B701000890
:10007000B7010008B7010008B7010008B701000880
:10008000B7010008B7010008B7010008B701000870
:10009000B7010008B7010008B7010008B701000860
:1000A000B7010008B7010008B7010008B701000850
:1000B000B7010008B7010008B7010008B701000840
:1000C000B7010008B7010008B7010008B701000830
:1000D000B7010008B7010008B7010008B701000820
:1000E000B7010008BD160008B7010008B7010008F5
:1000F000B7010008B7010008B7010008B701000800
:10010000B7010008B7010008B7010008B7010008EF
:10011000B7010008B7010008B7010008B7010008DF
:10012000B7010008B7010008B7010008B7010008CF
:10013000B7010008B7010008B7010008B7010008BF
:10014000B7010008B7010008B7010008B7010008AF
:10015000B7010008B7010008B7010008B70100089F
:10016000B7010008B7010008B7010008B70100088F
:10017000B7010008B7010008B7010008000000003F
:10018000B7010008B7010008DFF80CD000F05CFAF6
:10019000004800479922000868040020064880476C
:1001A00006480047FEE7FEE7FEE7FEE7FEE7FEE75C
:1001B000FEE7FEE7FEE7FEE7BD170008890100083D
:1001C0002DE9F05F0546002092469B46884606468C
:1001D000814640241BE0284641464746224600F01F
:1001E0006AF853465A46C01A914110D31146184630
:1001F000224600F051F82D1A67EB01084F462246BF
:100200000120002100F048F817EB00094E41201EA4
:10021000A4F10104DFDC484631462A464346BDE8E6
:10022000F09FD2B201E000F8012B491EFBD27047CB
:100230000022F6E710B513460A4604461946FFF7B2
:10024000F0FF204610BD00F0004230F000400AD020
:10025000C10D01F56071C0F3160042EA0151C208F8
:1002600040071143704700200146704730B50B46E8
:10027000014600202022012409E021FA02F59D42D6
:1002800005D303FA02F5491B04FA02F52844151EAA
:10029000A2F10102F1DC30BD202A04DB203A00FA91
:1002A00002F1002070479140C2F1200320FA03F3CD
:1002B000194390407047202A04DB203A21FA02F0CB
:1002C0000021704721FA02F3D040C2F12002914090
:1002D0000843194670472DE9FE4F804681EA030026
:1002E000C00F0C46009021F0004123F00045B8EB10
:1002F0000200A94105D24046214690461C460B46C5
:10030000024623F00040104347D0270DC7F30A00F0
:10031000C3F30A510290401A019040286BDAC3F3EC
:10032000130040F4801B0098924620B10023D2EBCA
:10033000030A63EB0B0B01985946C0F1400250468B
:10034000FFF7AAFF06460D4650465946019A00F0AF
:100350008DF910EB08006141002487EA115284EA0C
:10036000E7731A4340D0009A62B3019A012A4FEA18
:10037000075215DC001B61EB02014FF0004202EA5C
:100380000752CDE90042001C41F5801132462B4650
:1003900000F08DF903B0BDE8F08F40462146F9E743
:1003A000001B61EB0201001C41F5801300185B414A
:1003B0002018A2F5001747EB030140EAD570B619E3
:1003C0006D4111E06D084FEA360645EAC0754FEA07
:1003D0000752001B61EB0201001C41F58011490826
:1003E0004FEA30000019514132462B4603B0BDE8B8
:1003F000F04F00F04DB90098012240000023D0EBEF
:10040000020263EBE073009821464FEAE074B8EB18
:10041000000061EB0401E9E783F000435BE781F052
:10042000004158E72DE9FE4F81EA030404F000443F
:1004300021F0004100944FF0000B23F0004350EAFC
:1004400001045ED052EA03045BD0C3F30A54C1F343
:100450000A552C44A4F2F3340194A0FB0254C1F3D6
:10046000130141F48011C3F3130343F4801301FB20
:10047000024400FB034E840A970A44EA815447EA87
:100480008357A4FB076802958D0A05FB07854FEA91
:10049000932C04FB0C542705029D4FEA065847EAAB
:1004A0001637B5EB08056EEB070C870E920E47EA80
:1004B000811742EA8312A7FB0201B6EB0B0164EB42
:1004C00000042B0D43EA0C335E1844EB1C50DA4653
:1004D0005146E7FB0201C5F313044FEA0B3343EA2D
:1004E00014534FEA0432019C43EA0603A4F10C04BE
:1004F0000294009CCDE900B400F0D9F803B0BDE847
:10050000F08F00200146F9E72DE9F04D81EA030460
:1005100004F0004B21F0004514464FF0000A23F090
:10052000004150EA050220D054EA01021DD0C5F373
:100530000A570246C5F31303C1F31300C1F30A5669
:1005400040F4801543F48013A7EB0608101BD64631
:1005500008F2FD3873EB050002D308F1010801E051
:1005600092185B41B8F1000F03DA00200146BDE8A4
:10057000F08D00204FF48011064684460EE0171BD4
:1005800073EB050705D3121B63EB050306434CEA27
:10059000010C49084FEA300092185B4150EA01070C
:1005A000EDD152EA030012D082EA040083EA050189
:1005B000084305D0101BAB4106D20122002306E000
:1005C00000224FF0004302E06FF0010253101AEBDB
:1005D00006004CEB085110EB0A0041EB0B01BDE8A3
:1005E000F04D00F055B8C1F30A52C1F3130140F2C7
:1005F000FF3341F480119A4202DA0020014670472D
:1006000040F233439A42A2F2334202DC5242FFF7F5
:1006100052BEFFF741BE000030B5041E71F1000468
:1006200004DB4FF00044404264EB0101141E73F1FF
:10063000000405DB1C464FF00043524263EB040309
:10064000994208BF904230BD064C074D06E0E06875
:1006500040F0010394E8070098471034AC42F6D309
:10066000FFF796FD1423000834230008202A06DB38
:10067000CB17203A41FA02F043EAE07306E041FA70
:1006800002F3D040C2F1200291400843194670475E
:1006900010B5141E73F1000408DA401C41F100018A
:1006A00092185B411A4301D120F0010010BD2DE9E1
:1006B000F04D92469B4611B1B1FA81F202E0B0FAD8
:1006C00080F220329046FFF7E7FD04460F4640EAED
:1006D0000A0041EA0B0153465A46084313D011461B
:1006E00053EA010019D0C8F140025046FFF7E3FD7C
:1006F00005460E46504659464246FFF7CDFD084393
:1007000005D0012004E020463946BDE8F08D0020E8
:10071000054346EAE0762C4337430A986305E40A2A
:10072000A0EB08000022FD0A44EA47540A3002D533
:1007300000200146E9E7010510196941DDE9084596
:1007400000196941BDE8F04DA2E7FEE770470000DF
:1007500070B5044600F0F0F80546601C02D004486D
:100760000078044400F0E8F8401BA042FAD370BDC2
:10077000040000202DE9F84F00224FF00108032566
:100780004FF00F0E0B6808FA02F42340A3426ED11B
:100790004E68012E05D0022E03D0112E01D0122E4C
:1007A00012D186684FEA420C05FA0CF7BE43CF68B7
:1007B00007FA0CF7374387604668A6430C79C4F301
:1007C0000014944034434460C668570005FA07FC9F
:1007D0008C6826EA0C06BC403443C4604C68022C8A
:1007E00001D0122C13D1D40800EB8404A346D4F812
:1007F000209054074FEAD46A0EFA0AF629EA06094D
:100800000E6906FA0AF646EA0906CBF82060066881
:100810000C7926EA0C0604F00304BC40344304605F
:100820004C68E40065D5364C266846F48046266060
:10083000246822F0030604F480440094314C3444CC
:10084000A446D4F808489607370F0EFA07F6B443C3
:100850002D4EB04201D1002624E02C4EB04201D1F1
:1008600001261FE02A4EB04202D102261AE040E0E3
:10087000284EB04201D1032614E0274EB04201D1E8
:1008800004260FE0254EB04201D105260AE0244E91
:10089000B04201D1062605E0224EB04201D1072622
:1008A00000E00826BE402643CCF808681E4E346897
:1008B0004F689C43FF0300D51C4334601A4C241D31
:1008C00026684F689E43BF0300D51E432660164E20
:1008D000083634684F689C43FF0200D51C433460DF
:1008E000114E0C3634684F689C43BF0200D51C4340
:1008F0003460521C102AFFF445AFBDE8F88F0000A9
:100900004438024000300140000002400004024030
:1009100000080240000C0240001002400014024097
:1009200000180240001C0240003C01400AB18161F5
:1009300070470904FBE70000014880687047000029
:1009400004000020024881680278114481607047E9
:10095000040000200B4810B5016841F400710160EB
:10096000016841F480610160016841F480710160B7
:10097000032000F06FF8002000F006F800F024F8E3
:10098000002010BD003C024070B50D4D04464FF4F0
:100990007A712878B1FBF0F00A490968B1FBF0F0F0
:1009A00000F0CFFD48B9102C07D200222146501E7E
:1009B00000F030F800206C6070BD012070BD0000B8
:1009C00004000020100000200A4808B5016841F426
:1009D00080410160006800F4804000900548001FDD
:1009E000016841F080510160006800F08050009083
:1009F00008BD000044380240002809DB00F01F0257
:100A0000012191404009800000F1E020C0F8001170
:100A100070470000F0B40E4B1B680C46C3F3022372
:100A2000C3F10705042D00D90425191D072901D29A
:100A3000002300E0DB1E012606FA05F1491E2140D5
:100A400099409E40761E16403143F0BC00F0DABE5D
:100A50000CED00E0064900F0070208684FF6FF03BE
:100A6000184040EA0220034A104308607047000023
:100A70000CED00E00000FA052DE9F843054600689A
:100A80004FF00109C1074FF0000601D1400727D5FB
:100A9000DFF80C81C8F86860FFF74EFF0746414C4D
:100AA00005E000BFFFF748FFC01B022857D82068A9
:100AB0000001F7D468688101287A41EA0070394959
:100AC00084310860C8F86890FFF736FF074604E0F5
:100AD000FFF732FFC01B022841D820680001F7D57C
:100AE0002878800752D52F484030016841F0805166
:100AF000016000682C4C00F080500090206840F4A9
:100B000080702060FFF718FF074604E0FFF714FF2E
:100B1000C01B022823D82068C005F7D5214C7034AB
:100B2000206810F4407020D0A98901F440718142FE
:100B30001BD020681D4920F44070C1F800900E6061
:100B400020602068C00710D0FFF7F6FE064641F28D
:100B5000883707E0FFF7F0FE801BB84202D9032078
:100B6000BDE8F88320688007F4D5E9680D48C1F333
:100B700001220830032A0BD0016821F4F81101602A
:100B80002068A989C1F30B01084320600020E7E732
:100B90000268074B22F4F81219400A430260EFE79B
:100BA000000047420038024000700040400E4742BB
:100BB000FFFCFF0F2DE9F0470E46050065D0DFF87A
:100BC0001481D8F80000F7B200F00F00B04207D24D
:100BD00088F80070D8F8000000F00F00B04254D13F
:100BE00028683D4C810712D5400703D5206840F4A2
:100BF000E05020602878000703D5206840F460406A
:100C000020602068A96820F0F00008432060287860
:100C1000C0072DD0304968680839012812D0022851
:100C200013D0032811D00968890700292DDA21681B
:100C300021F0030101432160FFF77EFE814641F26E
:100C4000883A0EE009688903EFE709688901ECE753
:100C5000FFF772FEA0EB0901514502D90320BDE860
:100C6000F0872068696800F00C00B0EB810FEFD1CD
:100C7000D8F80010404601F00F01B14207D90770C3
:100C8000006800F00F00B04201D00120E7E72878AB
:100C9000400705D52068E96820F4E050084320604B
:100CA0002878000706D52068296920F4604040EACA
:100CB000C100206000F018F82168084AC1F3031150
:100CC000515CC8400649086006480068FFF75CFEB2
:100CD0000020C4E7003C024008380240042300081A
:100CE0001000002008000020154810B5006810F022
:100CF0000C02144813D04110042A0FD0082A0ED138
:100D00000F4C241F2268236802F03F025B0207D5C4
:100D10002068C0F38810A0FB010106E0084610BD62
:100D20002168C1F38811A1FB00010023FFF748FAF5
:100D30002168C1F30141491C4900B0FBF1F010BD2D
:100D4000083802400024F4002DE9F84F040076D062
:100D50002078DFF838A3CE4DC00749D0DAF800106C
:100D60005046C1F38101012908D00068C0F3810019
:100D700002280AD1281D0068400206D52868800391
:100D800036D560680028E2D032E06068B0F5803F78
:100D900010D0B0F5A02F286810D020F48030286043
:100DA000286820F4802028606068A0B1FFF7C4FDA7
:100DB00006460CE0286840F48030F4E740F48020D8
:100DC0002860F7E7FFF7B8FD801B642873D8286810
:100DD0008003F7D50CE0FFF7AFFD064605E000BF46
:100DE000FFF7AAFD801B6428F0D828688003F7D499
:100DF0002078DFF8A08280074FF000093ED5DAF8AE
:100E00000010504611F00C0F09D00068C0F38100AB
:100E100002280BD19D48001F0068400206D42868B4
:100E2000800715D5E068012809D111E0E068B8B164
:100E30000120C8F80000FFF77FFD064605E020E12D
:100E4000FFF77AFD801B0228C0D828688007F7D5F5
:100E50002868216920F0F80040EAC10028600DE010
:100E6000C8F80090FFF768FD064604E0FFF764FD50
:100E7000801B02281FD828688007F7D42078000735
:100E800022D5824E844861696C3671B101210160BE
:100E9000FFF752FD074604E0FFF74EFDC01B022896
:100EA00009D830688007F7D50EE0C0F80090FFF74A
:100EB00043FD074605E082E0FFF73EFDC01B022828
:100EC0007DD830688007F7D42078400768D5DFF8F0
:100ED000BCB100270BF1380BDBF80000C0000BD4CD
:100EE000DBF8001041F08051CBF80010DBF8000077
:100EF000012700F080500090684E3068C00510D483
:100F0000306840F480703060FFF716FD009005E017
:100F1000FFF712FD0099401A022850D83068C0052A
:100F2000F6D55A4EA068683601280FD005283068DB
:100F300010D020F001003060306820F004003060F4
:100F4000A068B8B1FFF7F8FC00900FE0306840F0FF
:100F50000100F4E740F004003060F7E7FFF7ECFC35
:100F60000099411A41F28830814266D83068800782
:100F7000F4D50EE0FFF7E0FC009007E0FFF7DCFCA3
:100F80000099411A41F28830814256D83068800772
:100F9000F4D42FB1DBF8001021F08051CBF8001011
:100FA000A069D0B3DAF800205146C2F38102022AC8
:100FB0004AD00228484607D0C8F8600000E03CE06C
:100FC000FFF7BAFC04463BE04746C8F86000FFF76D
:100FD000B3FC064605E000BFFFF7AEFC801B02280D
:100FE0002BD828688001F7D4D4E907010843A16A07
:100FF0002B4A490802EB0141626A41EA8211084327
:1010000094F82C1040EA01612048001F0160012083
:101010003866FFF791FC044605E034E0FFF78CFCEE
:10102000001B022809D828688001F7D52BE000BFF3
:10103000FFF782FC001B022802D90320BDE8F88FCD
:1010400028688001F4D41EE00128F7D00868E2691E
:1010500000F48001914214D1226A00F03F019142D4
:101060000FD147F6C071626A0140914209D1A26A6C
:1010700000F44031914204D1E16A00F0706088428E
:1010800001D00120DAE70020D8E70000083802404C
:101090000038024000004742800E47420070004086
:1010A0000000FFFF7047704710B504460068816874
:1010B000C9040CD5C068C00509D52046FFF7F3FF69
:1010C0002068C16801F0800161F4C071C1602068CE
:1010D000816889040CD5C068800509D52046FFF7D2
:1010E000E1FF2068C16801F0800161F42071C160F6
:1010F00003494FF4003008600120607710BD000004
:10110000143C014070B5040002D0607F10B106E0CD
:10111000012070BD00202077204600F049F8022011
:1011200060772168CA2048622168532048622046BF
:1011300000F0D6FAFF25042618BB206881681B4AF8
:10114000114081602168886862681043D4E90423F3
:101150001A43104388602168E068086120680169CB
:10116000228941EA024101612068C16821F08001C1
:10117000C16020688068800607D4204600F0C6F968
:1011800018B1206845626677C2E72068016C21F4D7
:10119000802101642068016CA26911430164206808
:1011A000456201206077002070BD0000BFFF8FFF07
:1011B00010B50068084988420CD108490120086030
:1011C000014600222920FFF725FCBDE81040292018
:1011D000FFF712BC10BD0000002800403C0E474243
:1011E000F8B503465A480C464FF4FA410068B0FB84
:1011F000F1F0491148430090187F012863D001267F
:101200001E770220587718680025002A80684FEA68
:1012100040605AD0002800DBE570A0782278E7789B
:1012200040EA02406278E169120242EA0742104352
:1012300094F8202040EA026008436169A2690843EB
:1012400061681F681143CA227A621F6853227A625A
:10125000626AFF27B2F5807F1A684FF0030C94682A
:101260004ED024F4007494601A68D46804F08004AA
:1012700064F42074D4601A68009CB4F1010ECDF8B7
:1012800000E05ED3D468A407F6D5106218688164C4
:101290001868816841F4007181601868816841F4C0
:1012A000005181602B48016841F4003101602948F8
:1012B0000830016841F400310160186847625E77C8
:1012C0001D770020F8BD0220F8BD002800DBE57086
:1012D000207800F0F9F90204607800F0F5F942EAAC
:1012E0000022A07800F0F0F90243E07842EA0042E0
:1012F00094F8200000F0E8F942EA0060E1699BE719
:1013000024F4807494601A68D46804F0800464F44F
:10131000C074D4601A68009CB4F1010ECDF800E0EE
:101320000FD3D468E407F6D0D06118684164186818
:10133000816841F4807181601868816841F480514E
:10134000AFE7576283F81DC01D770320F8BD00008A
:1013500010000020003C01402DE9F0470446007FCA
:101360000B4601281FD04FF0010984F81C90022081
:101370006077DAB19878D97840EA014558781978D9
:10138000000240EA413005432168CA2048622168D2
:1013900053204862204600F0A3F90026FF274FF0B3
:1013A000040860BB1AE00220BDE8F0875878C10647
:1013B00003D500F0EF000A305870D87800F084F9B7
:1013C0000204587800F080F942EA0022987800F090
:1013D0007BF90243187842EA4035D5E70F480540CB
:1013E000206845602068C16821F08001C1602068E4
:1013F000806880060AD4204600F088F830B1206862
:10140000476284F81D8026770120CDE72068476277
:1014100084F81D9026770020C6E700003FFFFF00FC
:101420002DE9F0470446007F0D46012827D04FF0F4
:10143000010A84F81CA002206077206800268068DA
:101440004FEA4060F2B1002800DBEE70A8782978FE
:1014500040EA01476878E978000240EA0140074322
:101460002168CA204862216853204862204600F063
:1014700037F94FF0FF084FF00409A0BB16E0022037
:10148000BDE8F087002800DBEE70287800F01CF93A
:101490000204687800F018F942EA0022A87800F007
:1014A00013F90243E87842EA0047D9E716480740B3
:1014B000206807602068816821F480218160D5E977
:1014C0000301084321688A68104388602068C16866
:1014D00021F08001C1602068806880060BD420461E
:1014E00000F014F838B12168C1F8248084F81D9008
:1014F00026770120C4E72168C1F8248084F81DA064
:1015000026770020BCE700007F7F7F0070B504468F
:101510000068C16821F0A001C160FFF70DFA05461F
:101520004FF47A7607E000BFFFF706FA401BB0429F
:1015300001D9032070BD2068C0688006F4D5002062
:1015400070BD10B5401EB0F1807F01D3012010BDE9
:101550004FF0E02460610F21601700F053F9002084
:10156000A06107202061002010BDFEE72DE9F043B7
:1015700087B014216846FEF75BFE2048002401680E
:1015800041F010010160016801F01001059101684E
:1015900041F080010160016801F08001059101685E
:1015A00041F0080101600068DFF8548000F0080095
:1015B000059000223F214046FFF7B8F9DFF844903C
:1015C0004FF48057002239464846FFF7AFF93F20D5
:1015D00001250326CDE90005CDE9024669464046CE
:1015E000FFF7C8F800970396CDE9015469464846CD
:1015F000FFF7C0F807B0BDE8F083000030380240C4
:1016000000100240000C024030B591B014210AA82D
:10161000FEF70EFE0024282168460F94FEF708FE10
:1016200023482249C0E900147F218160FF21C0E9DD
:10163000031444618461FFF765FD0B258DF8285084
:101640002B208DF829008DF82A400D9400220AA93C
:1016500017480E94FFF7E4FE07208DF83C000220A7
:101660008DF83D0009208DF83E0014208DF83F00D4
:1016700000220FA90E48FFF76FFE8DF800502F20B3
:101680008DF80100039401208DF8200004940002DD
:101690008DF8024001940990059406940794002265
:1016A00069460348FFF79CFD11B030BD002800409B
:1016B00014000020FEE77047704700000148FFF764
:1016C000F3BC000014000020002102E00A38C0B280
:1016D000491C0A28FAD2090740EA11607047000045
:1016E00070B504460068C168490614D44FF0FF3154
:1016F000C160FFF721F905464FF47A7607E000BF95
:10170000FFF71AF9401BB04201D9032070BD2068D1
:10171000C0684006F4D5002070BD7047FFF712B9CD
:1017200030B597B030216846FEF782FD14210CA831
:10173000FEF77EFD00251F4811951295139514950F
:10174000016841F080510160006800F08050159000
:101750001948016841F4804101600068022400F4E6
:1017600080401590092000904FF4803001900120B6
:10177000CDE905048005079008AA0420A82182E885
:1017800013000B906846FFF7DFFA0CA90F2081E8E1
:1017900031004FF4A0500F90E002109005210CA8EA
:1017A000FFF708FA20021490119411A8FFF764F9CA
:1017B00017B030BD40380240007000400548016855
:1017C00041F47001016003494FF000608039086006
:1017D0007047000088ED00E0FEE700000FB4084B02
:1017E00010B504A902AA039800F0EEF8044602A975
:1017F000002000F080FC204610BC5DF814FB0000C7
:10180000F72000080907090E002804DB00F1E0209A
:1018100080F80014704700F00F0000F1E02080F81D
:10182000141D704702E008C8121F08C1002AFAD12F
:1018300070477047002001E001C1121F002AFBD150
:10184000704700002DE9FF5F82B00021DDE9043020
:10185000020DDDF840B0034318D044F61050A2F258
:10186000FF3242431514119801281FD0A5EB0B003D
:10187000401C5FEA000A4FF000064E4FDFF8389137
:10188000B046504615D5CAF1000413E01198012462
:101890004AA3012801D16FEA0B010298119AC0E90D
:1018A0000031C0E9024206B0BDE8F09FCBF1000074
:1018B000DFE704460021404A491842EB0450CDE9D5
:1018C000001012E0E00707D032463B46404649464A
:1018D000FEF7A8FD8046894632463B46104619462B
:1018E000FEF7A0FD06460F466410002CEAD1DDE9A4
:1018F0000401DDE90023BAF1000F06DAFEF792FDDC
:1019000042464B46FEF78EFD05E0FEF7FDFD4246E2
:101910004B46FEF7F9FD04460E460022284BFEF723
:101920007BFE03D84FF0FF30014607E00022254B35
:1019300020463146FEF7CFFCFEF755FE102409E0A5
:10194000002C0ADB0A220023FEF73AFC039B30320C
:101950001A55641E50EA0102F2D1641C039AC4F1C4
:1019600011031444119A012A03D0012208430DD116
:101970000AE0084304D000204FF0110B119072E7E9
:10198000A3EB0B056D1E0DE05B4504DD4FF000027F
:1019900005F1010504E003DA4FF00002A5F10105AD
:1019A000002AECD002981199C0E90231C0E9004543
:1019B00079E70000000014400000F03F3000000014
:1019C0000000F0430000E03F2DE9FF4F95B09B463B
:1019D0008946064600250FE2252877D100242746B0
:1019E000F84A0121059400E0044316F8013F203B2A
:1019F00001FA03F01042F7D130782A2811D06FF0A5
:101A00002F033078A0F13002092A16D8059A44F045
:101A1000020402EB820203EB42021044761C0590A2
:101A2000EFE759F8042B0592002A03DA504244F4F8
:101A30000054059044F00204761C30782E2816D10C
:101A400016F8010F44F004042A280DD06FF02F027D
:101A50003078A0F13003092B09D807EB870302EB9C
:101A60004303C718761CF3E759F8047B761C3078DB
:101A70006C280FD006DC4C2817D068280DD06A28B7
:101A800014D104E0742810D07A280FD10DE044F46A
:101A900000140AE044F4801401E044F44014727825
:101AA000824202D104F58014761C761C30786628B8
:101AB0000BD013DC582877D009DC002875D04528D6
:101AC000F6D04628F4D047281AD19DE118E06328C3
:101AD00035D0642879D0652812D195E1702873D06B
:101AE00008DC6728F1D069286FD06E280DD06F28E8
:101AF00006D1B5E073282CD0752875D0782874D01D
:101B00005A46179990476D1C75E1C4F3025002289C
:101B100009D003280DD0D9F8001004280DD00D608D
:101B200009F1040967E1D9F80010EA17C1E9005288
:101B3000F6E7D9F800100D80F2E70D70F0E719F81C
:101B4000041B8DF8001000208DF80100EA460120EA
:101B500003E059F804AB4FF0FF3061074FF000018C
:101B600002D40DE008F101018846B9420FDA804540
:101B7000F8DB1AF808100029F4D108E008F1010197
:101B800088468142FADB1AF808100029F6D1059838
:101B90005B46A0EB080721463846179A00F094FAF6
:101BA000284400EB080507E04DE029E10DE01AF8B4
:101BB000010B5A4617999047B8F10108F7D25B46D6
:101BC00021463846179A13E142E00A220092C4F3F4
:101BD00002524FF0000A022A08D059F804CB032A17
:101BE0004FEAEC710AD00DE029E02AE009F1070183
:101BF00021F00702F2E802C1914609E00FFA8CFCDD
:101C00004FEAEC71042A03D14FFA8CFC4FEAEC71D5
:101C1000002907DA0A460021DCF1000C61EB020121
:101C20002D2202E0220504D52B228DF8042001226A
:101C300003E0E20701D02022F7E7904659E00A21AD
:101C400002E010220DE010214FF0000A00910BE09D
:101C500010224FF0000A44F004040827009203E029
:101C600008224FF0000A0092C4F30252022A05D063
:101C700059F804CB0021032A08D009E009F1070133
:101C800021F00702F2E802C1914605E01FFA8CFC40
:101C9000042A01D10CF0FF0C4FF00008220728D5D0
:101CA000702806D0009B83F0100353EA0A0305D086
:101CB0000EE040228DF80420012208E05CEA0102D7
:101CC00006D030228DF804208DF8050002229046BF
:101CD000009B83F0080353EA0A030AD15CEA01027D
:101CE00001D1620705D530228DF804204FF001089C
:101CF0007F1E582804D034A003900EA802900DE057
:101D000036A0F9E753466046009AFEF759FA844632
:101D10000398825C0298401E029002705CEA010007
:101D2000F0D1029806A9081A00F1200A600702D52E
:101D300024F4803400E00127574502DDA7EB0A00B8
:101D400000E0002000EB0A01009005984144401A91
:101D50000590E00306D45B462146179A059800F0EB
:101D6000B3F90544002706E001A85A46C05D17995B
:101D700090476D1C7F1C4745F6DBE0030CD55B46A6
:101D80002146179A059800F09FF9054404E0302099
:101D90005A46179990476D1C0099481E00900029DB
:101DA000F5DC08E0029802995A460078491C029135
:101DB000179990476D1CBAF10001AAF1010AF1DCF4
:101DC00065E10000092801003031323334353637FF
:101DD0003839616263646566000000003031323377
:101DE0003435363738394142434445460000000017
:101DF00000F058F90544761C307800287FF4ECADEB
:101E000019B02846BDE8F08F620700D4062709F113
:101E1000070222F0070CFCE80223E14603F0004829
:101E20005FEA080C02D00FF2702C0DE05FEA045C50
:101E300002D50FF2682C07E05FEAC47C02D00FF2F3
:101E4000602C01E0AFF2700C4FF0FF3823F000433C
:101E5000CDF850C065280CD006DC452809D04628AE
:101E60001DD047283DD13DE0662818D067287ED197
:101E700038E00021112F01DB112000E0781CCDE9B2
:101E8000000106A90EA8FFF7DDFCDDE90F010E9A9F
:101E900003910021009207F1010A04914DE04FF0F7
:101EA00000400097CDE9011006A90EA8FFF7CAFC73
:101EB000DDE90F0203920E9B11990022DDF80CA0C0
:101EC0000093049211B9791C00EB010AB7EB0A00E8
:101ED00004D4C0F1FF3007F1010A0490AAEB070017
:101EE000019044E0012F00DA01270021112F01DDCC
:101EF000112000E03846CDE9000106A90EA8FFF741
:101F0000A1FCDDE90F010E9A0391002104910092DA
:101F1000BA4621070CD40399514500DA8A46BAF132
:101F2000010F05DD009AAAF10101515C302908D0AA
:101F3000B84202DA10F1040F06DA0121CDE90110EE
:101F400015E0AAF10101E9E7002805DC0499014444
:101F50000491AAEB000102E0411C514500DD8A46D4
:101F60000499401A401C01904FF000400290200755
:101F700004D40198504501DBCDF8048000208DF891
:101F80004F0002980DF14F07B0F1004F25D02B20E4
:101F90000E9002984FF0020800280CDA404202909E
:101FA0002D200E9007E00A210298FEF75FF93031EC
:101FB000029007F8011DB8F10001A8F10108F2DC58
:101FC00002980028EFD1791E0E980870307800F042
:101FD000200040F0450007F8020D12A8C01B00F1D8
:101FE00007081498007800B1012000EB0A0101985D
:101FF00001EBE07105984144401A401E0590E00352
:1020000006D45B462146179A059800F05DF8054412
:102010001498007818B15A46179990476D1CE00340
:1020200024D55B462146179A059800F04DF80544E3
:102030001CE00498002807DBDDE90301884203DD8A
:102040000098405C179901E0179930205A46904754
:10205000049805F10105401C04900198401E019070
:1020600004D12E205A46179990476D1CBAF10001F1
:10207000AAF1010ADDDC05E017F8010B5A461799B1
:1020800090476D1CB8F10001A8F10108F4DC5B4633
:102090002146179A0598ABE62D0000002B000000A2
:1020A000200000002DE9F041044600251E46174699
:1020B000880404D405E039462020B0476D1C641E16
:1020C000F9D52846BDE8F0812DE9F0410446002508
:1020D0001E469046C80301D5302700E0202788041B
:1020E00004D505E041463846B0476D1C641EF9D55D
:1020F0002846BDE8F0810A68531C0B6010707047D9
:1021000010B51E20FEF724FB1A4C002204212046A5
:10211000FEF70CFC012208212046FEF707FC0022F6
:1021200010212046FEF702FC002220212046FEF767
:10213000FDFB002201212046FEF7F8FB01220221CF
:102140002046FEF7F3FB002202212046FEF7EEFBBD
:102150002821002000F030F80C21002000F02CF89D
:102160000621002000F028F80121BDE810400020E1
:1021700000F022B80010024010B5144630B101281A
:1021800006D0022806D0032811D105E0803104E0F2
:10219000C03102E0903100E0D031C9B2002000F03F
:1021A0000BF804E0C1B2012000F006F8641C2078AE
:1021B0000028F7D110BD000070B506460C4602207D
:1021C000FEF7C6FA334D0EB1012200E000220121D4
:1021D0002846FEF7ABFB200601D5012200E00022D5
:1021E00020212846FEF7A2FB600601D5012200E06F
:1021F000002210212846FEF799FBA00601D50122F6
:1022000000E0002208212846FEF790FBE00601D5F9
:10221000012200E0002204212846FEF787FB01226C
:1022200002212846FEF782FB002202212846FEF703
:102230007DFB200701D5012200E000222021284655
:10224000FEF774FB600701D5012200E00022102197
:102250002846FEF76BFBA00701D5012200E0002213
:1022600008212846FEF762FBE00701D0012200E0CA
:10227000002204212846FEF759FB012202212846AC
:10228000FEF754FB2846BDE8704000220221FEF70D
:102290004DBB000000100240FEF75CFBFFF740FA68
:1022A000FFF764F9FFF7B0F9FFF72AFF00210DA24D
:1022B0000846FFF761FF0DA200210120FFF75CFF38
:1022C0000C480068FDF7BFFF41EC100B0AA153EC6E
:1022D000102B0B48FFF782FA094A07210120FFF76C
:1022E0004BFFFEE77465737400000000686168616D
:1022F000686800000000002025302E3466000000D1
:10230000340000200000000000000000010203046F
:10231000060708093423000800000020140000000C
:10232000241800084823000814000020540400006A
:1023300034180008F085493C01000000100000003E
:08234000000000000024F4007D
:040000050800018965
:00000001FF
