:020000040800F2
:10000000600400209D0100085B0C0008650B0008DF
:10001000590C0008A9020008050D000800000000A6
:100020000000000000000000000000005F0C00085D
:10003000AB020008000000005D0C0008610C000825
:10004000B7010008B7010008B7010008B7010008B0
:10005000B7010008B7010008B7010008B7010008A0
:10006000B7010008B7010008B7010008B701000890
:10007000B7010008B7010008B7010008B701000880
:10008000B7010008B7010008B7010008B701000870
:10009000B7010008B7010008B7010008B701000860
:1000A000B7010008B7010008B7010008B701000850
:1000B000B7010008B7010008B7010008B701000840
:1000C000B7010008B7010008B7010008B701000830
:1000D000B7010008B7010008B7010008B701000820
:1000E000B7010008B7010008B7010008B701000810
:1000F000B7010008B7010008B7010008B701000800
:10010000B7010008B7010008B7010008B7010008EF
:10011000B7010008B7010008B7010008B7010008DF
:10012000B7010008B7010008B7010008B7010008CF
:10013000B7010008B7010008B7010008B7010008BF
:10014000B7010008B7010008B7010008B7010008AF
:10015000B7010008B7010008B7010008B70100089F
:10016000B7010008B7010008B7010008B70100088F
:10017000B7010008B7010008B7010008000000003F
:10018000B7010008B7010008DFF80CD000F07AF8DA
:1001900000480047450D00086004002006488047DD
:1001A00006480047FEE7FEE7FEE7FEE7FEE7FEE75C
:1001B000FEE7FEE7FEE7FEE7E90C0008890100081C
:1001C0002DE9F05F0546002092469B46884606468C
:1001D000814640241BE0284641464746224600F01F
:1001E00041F853465A46C01A914110D31146184659
:1001F000224600F028F82D1A67EB01084F462246E8
:100200000120002100F01FF817EB00094E41201ECD
:10021000A4F10104DFDC484631462A464346BDE8E6
:10022000F09FD2B201E000F8012B491EFBD27047CB
:100230000022F6E710B513460A4604461946FFF7B2
:10024000F0FF204610BD202A04DB203A00FA02F11C
:10025000002070479140C2F1200320FA03F31943B4
:1002600090407047202A04DB203A21FA02F0002156
:10027000704721FA02F3D040C2F1200291400843B6
:1002800019467047064C074D06E0E06840F0010350
:1002900094E8070098471034AC42F6D3FFF778FF94
:1002A000BC0D0008DC0D0008FEE77047002229B1F4
:1002B00001291AD002291BD04FF440720E490B6855
:1002C00023F440730B600B6813430B600A6822F041
:1002D000F8020A600A68022303EBC00002430A60C6
:1002E000086840F48030086070474FF48072E5E79A
:1002F0004FF40072E2E70000103C0240064A136827
:1003000023F44073136013681360136843F0010310
:100310001360017070470000103C0240094910B59D
:100320000C6824F440740C600C6844F440740C6055
:100330000C6844F001040C600260BFF36F8F4360EF
:1003400010BD0000103C0240074A136823F44073BC
:100350001360136843F480731360136843F0010360
:100360001360018070470000103C0240074A136888
:1003700023F440731360136843F40073136013682D
:1003800043F001031360016070470000103C02401D
:1003900017490868C206174805D5C26942F010021D
:1003A000C26110220A600A68920605D5C26942F04D
:1003B0000802C26120220A600A68520605D5C26995
:1003C00042F00402C26140220A600A68120605D5A2
:1003D000C26942F00202C26180220A600A68920782
:1003E00005D5C26942F02002C26102200860704750
:1003F0000C3C02404000002070B51149044600202A
:10040000C86100F091F806460E4D09E0601C07D067
:1004100024B100F089F8801BA04201D9032070BDEF
:100420002868C003F2D42868C00701D001202860E2
:10043000286810F0F200F2D0FFF7AAFF012070BD8B
:10044000400000200C3C024070B5044600F06CF8FF
:100450000546601C02D004480078044400F064F8AB
:10046000401BA042FAD370BD1C0000200348016865
:1004700041F000410160002070470000103C024044
:100480002DE9F0471B4E05461446307E1F4689462F
:10049000012808D0012030764CF250384046FFF752
:1004A000ABFF18B114E00220BDE8F0879DB1012D2B
:1004B00016D0022D19D022463B464846FFF72EFFA4
:1004C0004046FFF799FF0C490A6822F001020A60D2
:1004D00000213176E8E7E1B24846FFF70FFFEFE78A
:1004E000A1B24846FFF730FFEAE721464846FFF74A
:1004F0003DFFE5E740000020103C02400749002096
:100500000A68002A09DA054A054B0C3A1360054BC4
:1005100013600968002900DA01207047103C02408E
:1005200023016745AB89EFCD014880687047000023
:100530001C000020024881680278114481607047E5
:100540001C0000200B4810B5016841F400710160E7
:10055000016841F480610160016841F480710160CB
:10056000032000F061F8002000F006F800F024F805
:10057000002010BD003C024070B50D4D04464FF404
:100580007A712878B1FBF0F00A490968B1FBF0F004
:1005900000F0D4FA48B9102C07D200222146501E90
:1005A00000F022F800206C6070BD012070BD0000DA
:1005B0001C000020280000200A4808B5016841F40A
:1005C00080410160006800F4804000900548001FF1
:1005D000016841F080510160006800F08050009097
:1005E00008BD000044380240F0B40E4B1B680C46B6
:1005F000C3F30223C3F10705042D00D90425191DF7
:10060000072901D2002300E0DB1E012606FA05F1CE
:10061000491E214099409E40761E16403143F0BC51
:1006200000F071BB0CED00E0064900F0070208681D
:100630004FF6FF03184040EA0220034A10430860C7
:10064000704700000CED00E00000FA052DE9F047CE
:100650000E46050065D0DFF81481D8F80000F7B227
:1006600000F00F00B04207D288F80070D8F8000000
:1006700000F00F00B04254D128683D4C810712D5DC
:10068000400703D5206840F4E05020602878000738
:1006900003D5206840F4604020602068A96820F0FD
:1006A000F000084320602878C0072DD030496868E2
:1006B0000839012812D0022813D0032811D0096864
:1006C000890700292DDA216821F003010143216007
:1006D000FFF72AFF814641F2883A0EE00968890354
:1006E000EFE709688901ECE7FFF71EFFA0EB0901BE
:1006F000514502D90320BDE8F0872068696800F001
:100700000C00B0EB810FEFD1D8F80010404601F09B
:100710000F01B14207D90770006800F00F00B04226
:1007200001D00120E7E72878400705D52068E9686F
:1007300020F4E050084320602878000706D52068A0
:10074000296920F4604040EAC100206000F018F8F8
:100750002168084AC1F30311515CC840064908608A
:1007600006480068FFF708FF0020C4E7003C02408D
:1007700008380240AC0D00082800002020000020AE
:10078000154810B5006810F00C02144813D0411041
:10079000042A0FD0082A0ED10F4C241F2268236888
:1007A00002F03F025B0207D52068C0F38810A0FB6F
:1007B000010106E0084610BD2168C1F38811A1FBC4
:1007C00000010023FFF7FCFC2168C1F30141491C33
:1007D0004900B0FBF1F010BD083802400024F400DD
:1007E0002DE9F84F040076D02078DFF838A3CE4DFD
:1007F000C00749D0DAF800105046C1F38101012941
:1008000008D00068C0F3810002280AD1281D0068C2
:10081000400206D52868800336D560680028E2D0FB
:1008200032E06068B0F5803F10D0B0F5A02F2868A6
:1008300010D020F480302860286820F480202860C0
:100840006068A0B1FFF770FE06460CE0286840F42F
:100850008030F4E740F480202860F7E7FFF764FE7B
:10086000801B642873D828688003F7D50CE0FFF755
:100870005BFE064605E000BFFFF756FE801B6428BE
:10088000F0D828688003F7D42078DFF8A0828007AA
:100890004FF000093ED5DAF80010504611F00C0F69
:1008A00009D00068C0F3810002280BD19D48001FC9
:1008B0000068400206D42868800715D5E068012842
:1008C00009D111E0E068B8B10120C8F80000FFF7D5
:1008D0002BFE064605E020E1FFF726FE801B0228DE
:1008E000C0D828688007F7D52868216920F0F8006B
:1008F00040EAC10028600DE0C8F80090FFF714FE40
:10090000064604E0FFF710FE801B02281FD8286867
:100910008007F7D42078000722D5824E8448616989
:100920006C3671B101210160FFF7FEFD074604E05E
:10093000FFF7FAFDC01B022809D830688007F7D5F9
:100940000EE0C0F80090FFF7EFFD074605E082E0FB
:10095000FFF7EAFDC01B02287DD830688007F7D476
:100960002078400768D5DFF8BCB100270BF1380BC1
:10097000DBF80000C0000BD4DBF8001041F0805120
:10098000CBF80010DBF80000012700F08050009049
:10099000684E3068C00510D4306840F48070306014
:1009A000FFF7C2FD009005E0FFF7BEFD0099401A79
:1009B000022850D83068C005F6D55A4EA06868366F
:1009C00001280FD00528306810D020F001003060D9
:1009D000306820F004003060A068B8B1FFF7A4FDD3
:1009E00000900FE0306840F00100F4E740F00400B0
:1009F0003060F7E7FFF798FD0099411A41F288301F
:100A0000814266D830688007F4D50EE0FFF78CFD90
:100A1000009007E0FFF788FD0099411A41F2883005
:100A2000814256D830688007F4D42FB1DBF800102B
:100A300021F08051CBF80010A069D0B3DAF8002083
:100A40005146C2F38102022A4AD00228484607D002
:100A5000C8F8600000E03CE0FFF766FD04463BE0BC
:100A60004746C8F86000FFF75FFD064605E000BF97
:100A7000FFF75AFD801B02282BD828688001F7D485
:100A8000D4E907010843A16A2B4A490802EB014156
:100A9000626A41EA8211084394F82C1040EA01612D
:100AA0002048001F016001203866FFF73DFD044625
:100AB00005E034E0FFF738FD001B022809D828685C
:100AC0008001F7D52BE000BFFFF72EFD001B0228A9
:100AD00002D90320BDE8F88F28688001F4D41EE015
:100AE0000128F7D00868E26900F48001914214D12E
:100AF000226A00F03F0191420FD147F6C071626A4D
:100B00000140914209D1A26A00F44031914204D1DE
:100B1000E16A00F07060884201D00120DAE700202D
:100B2000D8E7000008380240003802400000474281
:100B3000800E4742007000400000FFFF10B5401ECD
:100B4000B0F1807F01D3012010BD4FF0E02460613F
:100B50000F21601700F0D7F80020A0610720206166
:100B6000002010BDFEE7000010B5124C6468204460
:100B700053B1012B0BD0022B08D1002316E000BF8C
:100B800010F8014BCC545B1C9342F9D310BD0023E9
:100B900005E000BF30F8024B21F813405B1C934284
:100BA000F8D310BD10C841F823405B1C9342F9D321
:100BB00010BD000014000020014A10705160704701
:100BC000140000202DE9F041224D0F469846696837
:100BD00016460C18FFF792FC02212878FFF766FBF7
:100BE000FFF744FCFFF78AFC5FEA080005D0012804
:100BF00010D0B8F1020F28D11AE0002507E0002339
:100C00007A5D21461846FFF73BFC641C6D1CB5421B
:100C1000F5D31AE0002508E037F815200023214617
:100C20000120FFF72DFCA41C6D1CB542F4D30CE091
:100C3000002508E057F82520002321460220FFF771
:100C40001FFC241D6D1CB542F4D3BDE8F041FFF735
:100C50000DBC000014000020FEE77047704770478D
:100C6000FFF768BC30B593B030216846FFF7E0FA73
:100C700014210CA8FFF7DCFA19480025016841F09F
:100C800080510160006800F08050119015480168A3
:100C900041F4804101600068022400F4804011901A
:100CA0000120039010200490009406940820CDE9C0
:100CB0000750A820CDE9090404200B906846FFF7EF
:100CC0008FFD0CA90F2081E831004FF4A0500F9048
:100CD000E002109005210CA8FFF7B8FC13B030BD5E
:100CE00040380240007000400548016841F470013E
:100CF000016003494FF000608039086070470000D0
:100D000088ED00E0FEE70907090E002804DB00F18A
:100D1000E02080F80014704700F00F0000F1E020A0
:100D200080F8141D704702E008C8121F08C1002A8D
:100D3000FAD170477047002001E001C1121F002A5C
:100D4000FBD1704708B5FFF7FDFBFFF78BFF13489A
:100D5000016841F080010160016801F080010091AB
:100D6000016841F00101016000680D4900F00100D7
:100D700000900B20FFF720FF0123052209490020E6
:100D8000FFF720FF4FF47A74012305220649002063
:100D9000FFF7EAFE2046FFF757FBF5E73038024041
:100DA00000000E08000000202C00002000000000C1
:100DB000000000000102030406070809DC0D00081A
:100DC000000000202C000000260D0008080E00087E
:100DD0002C00002034040000360D00081100000033
:100DE0002200000033000000440000005500000015
:100DF00000000000000000000100000010000000E2
:080E0000000000000024F400D2
:040000050800018965
:00000001FF
