:020000040800F2
:10000000600400209D010008A71200084D1200089E
:10001000A5120008B50700083D1300080000000005
:10002000000000000000000000000000AB1200080B
:10003000B707000800000000A9120008AD12000870
:10004000B7010008B7010008B7010008B7010008B0
:10005000B7010008B7010008B7010008B7010008A0
:10006000B7010008B7010008B7010008B701000890
:10007000B7010008B7010008B7010008B701000880
:10008000B7010008B701000881060008B7010008A1
:10009000B7010008B7010008B7010008B701000860
:1000A000B7010008B7010008B7010008B701000850
:1000B000B7010008B7010008B7010008B701000840
:1000C000B7010008B7010008B7010008B701000830
:1000D000B7010008B7010008B7010008B701000820
:1000E000B7010008B7010008B7010008B701000810
:1000F000B7010008B7010008B7010008B701000800
:10010000B7010008B7010008B7010008B7010008EF
:10011000B7010008B7010008B7010008B7010008DF
:10012000B7010008B7010008B7010008B7010008CF
:10013000B7010008B7010008B7010008B7010008BF
:10014000B7010008B7010008B7010008B7010008AF
:10015000B7010008B7010008B7010008B70100089F
:10016000B7010008B7010008B7010008B70100088F
:10017000B7010008B7010008B7010008000000003F
:10018000B7010008B7010008DFF80CD000F066FAEC
:10019000004800477D13000860040020064880479F
:1001A00006480047FEE7FEE7FEE7FEE7FEE7FEE75C
:1001B000FEE7FEE7FEE7FEE72113000889010008DD
:1001C0002DE9F05F0546002092469B46884606468C
:1001D000814640241BE0284641464746224600F01F
:1001E00086F953465A46C01A914110D31146184613
:1001F000224600F06DF92D1A67EB01084F462246A2
:100200000120002100F064F917EB00094E41201E87
:10021000A4F10104DFDC484631462A464346BDE8E6
:10022000F09FD2B201E000F8012B491EFBD27047CB
:100230000022F6E710B513460A4604461946FFF7B2
:10024000F0FF204610BD2DE9FE4F804681EA0300F5
:10025000C00F0C46009021F0004123F00045B8EBA0
:100260000200A94105D24046214690461C460B4655
:10027000024623F00040104347D0270DC7F30A0081
:10028000C3F30A510290401A019040286BDAC3F37D
:10029000130040F4801B0098924620B10023D2EB5B
:1002A000030A63EB0B0B01985946C0F1400250461C
:1002B00000F00EF906460D4650465946019A00F0E8
:1002C00026F910EB08006141002487EA115284EA04
:1002D000E7731A4340D0009A62B3019A012A4FEAA9
:1002E000075215DC001B61EB02014FF0004202EAED
:1002F0000752CDE90042001C41F5801132462B46E1
:1003000000F05DF903B0BDE8F08F40462146F9E703
:10031000001B61EB0201001C41F5801300185B41DA
:100320002018A2F5001747EB030140EAD570B61973
:100330006D4111E06D084FEA360645EAC0754FEA97
:100340000752001B61EB0201001C41F580114908B6
:100350004FEA30000019514132462B4603B0BDE848
:10036000F04F00F01DB90098012240000023D0EBAF
:10037000020263EBE073009821464FEAE074B8EBA9
:10038000000061EB0401E9E783F000435BE781F0E3
:10039000004158E72DE9F04D81EA030404F0004BD9
:1003A00021F0004514464FF0000A23F0004150EAC6
:1003B000050220D054EA01021DD0C5F30A570246B7
:1003C000C5F31303C1F31300C1F30A5640F48015BB
:1003D00043F48013A7EB0608101BD64608F2FD383D
:1003E00073EB050002D308F1010801E092185B41AC
:1003F000B8F1000F03DA00200146BDE8F08D0020BF
:100400004FF48011064684460EE0171B73EB050778
:1004100005D3121B63EB050306434CEA010C4908A4
:100420004FEA300092185B4150EA0107EDD152EAE1
:10043000030012D082EA040083EA0501084305D0D4
:10044000101BAB4106D20122002306E000224FF030
:10045000004302E06FF0010253101AEB06004CEB70
:10046000085110EB0A0041EB0B01BDE8F04D00F024
:1004700097B800F0004230F000400AD0C10D01F5FD
:100480006071C0F3160042EA0151C20840071143EF
:10049000704700200146704701F0004330B421F05E
:1004A000004150EA010206D00A0DA2F56072C1F3C4
:1004B0001301002A02DC30BC00207047440F44EADC
:1004C000C104C100E01830BC00EBC25000F031B8EC
:1004D000202A04DB203A00FA02F100207047914004
:1004E000C2F1200320FA03F3194390407047202AF9
:1004F00004DB203A21FA02F00021704721FA02F3CE
:10050000D040C2F120029140084319467047202A8A
:1005100006DBCB17203A41FA02F043EAE07306E02B
:1005200041FA02F3D040C2F120029140084319463B
:1005300070470029A8BF7047401C490008BF20F041
:100540000100704710B4B0FA80FC00FA0CF050EAD9
:10055000010404BF10BC704749B1CCF1200421FA5A
:1005600004F411FA0CF118BF012121430843A3EB55
:100570000C01CB1D4FEA00614FEA102042BF002062
:1005800010BC704700EBC35010440029A4BF10BC3E
:100590007047401C490008BF20F0010010BC7047A4
:1005A00010B5141E73F1000408DA401C41F100017B
:1005B00092185B411A4301D120F0010010BD2DE9D2
:1005C000F04D92469B4611B1B1FA81F202E0B0FAC9
:1005D00080F220329046FFF77BFF04460F4640EA48
:1005E0000A0041EA0B0153465A46084313D011460C
:1005F00053EA010019D0C8F140025046FFF777FFD7
:1006000005460E46504659464246FFF761FF0843ED
:1006100005D0012004E020463946BDE8F08D0020D9
:10062000054346EAE0762C4337430A986305E40A1B
:10063000A0EB08000022FD0A44EA47540A3002D524
:1006400000200146E9E7010510196941DDE9084587
:1006500000196941BDE8F04DA2E70000064C074DC6
:1006600006E0E06840F0010394E807009847103482
:10067000AC42F6D3FFF78CFD3C1400085C14000874
:10068000014800F046B9000018000020464910B5A6
:100690004A6822F440324A604A6843681A434A6012
:1006A00001684A6822F480724A6001684A680369F6
:1006B00042EA03224A6001684A6822F040724A60B6
:1006C00001684A6883681A434A6001688A6822F4AC
:1006D00000628A6001688A68C3681A438A60816A16
:1006E0006FF07062D14201688A6822F070628A609D
:1006F00001688A680CD0836A1A438A6001688A6834
:1007000022F040528A6001688A68C36A1A4301E095
:1007100022F040528A6001688A6822F002028A60F0
:1007200001688A68037E42EA43028A6090F82010DA
:10073000002901684A680FD042F400624A600168EB
:100740004A6822F460424A6001684A68174C436A6A
:1007500004EB43331A4301E022F400624A6001686B
:10076000CA6A22F47002CA620168CA6A838B104C9A
:1007700004EB03531A43CA6201688A6822F40072C8
:100780008A6001688A6890F8303042EA43228A60C1
:1007900001688A6822F480628A6001688A68406918
:1007A00042EA8020886010BD0023014000E0FFFF86
:1007B0000000F0FFFEE770477047000078B50024A6
:1007C000009490F83C20012A19D0012280F83C20A6
:1007D0000A6807230568092A13D9EE680A3A02EB6A
:1007E000420293409E43EE600B788A680A3B03EB1B
:1007F00043039A400368DD682A43DA6010E0022070
:1008000078BD2E6902EB420293409E432E610B7825
:100810008A6803EB43039A4003681D692A431A61FF
:100820004A681F23072A13D205686E6B521E02EB1B
:10083000820293409E436E630B790A885B1E92B2DC
:1008400003EB83039A4003685D6B2A435A6327E0F6
:1008500005680D2A12D22E6BD21F02EB8202934042
:100860009E432E630B790A88DB1F92B203EB83034E
:100870009A4003681D6B2A431A6311E0EE6A0D3A31
:1008800002EB820293409E43EE620B790A880D3B95
:1008900092B203EB83039A400368DD6A2A43DA626B
:1008A000164B0568144A9D4206D10D68122D03D1DE
:1008B000556845F48005556005689D4218D10B6860
:1008C000102B01D0112B13D1536843F40003536054
:1008D000096810290CD10A490A4A0968B1FBF2F1EA
:1008E00001EB8101490000E0491E00910029FBD184
:1008F00080F83C40002078BD0023014000200140EA
:100900001400002040420F00704770470068C06C20
:10091000704770B50446006801684268C1F3400141
:10092000C2F3401251B34AB3216CC90603D4216CFF
:1009300041F400712164816811F0405F17D1217E7C
:10094000A9B9C16A11F4700F02D0816849050ED4AB
:10095000416821F020014160206C20F48070206407
:10096000206CC00403D4206C40F0010020642046B9
:10097000FFF7CAFF21686FF0120008602068016865
:100980004268C1F38001C2F3C01289B382B3216C03
:10099000C90603D4216C41F400512164816811F42B
:1009A000401F1ED1816B11F4401F02D081684905A0
:1009B00017D44168490514D4816811F0405F10D103
:1009C000217E71B9416821F080014160206C20F4E2
:1009D00080502064206CC00503D4206C40F00100DE
:1009E00020642046FFF7E8FE21686FF00C000860E5
:1009F00020680168426811F0010FC2F380120ED026
:100A00006AB10068C0070AD0206C40F480302064CE
:100A1000204600F046F821686FF001000860206869
:100A200001684268C1F34011C2F3806200290DD011
:100A3000002A0BD0616C41F0020161646FF0200567
:100A400005602046FFF761FF2068056070BD70B546
:100A500004004FF0000503D0206C002610B107E021
:100A6000012070BD204600F01DF8666484F83C60EB
:100A7000206CC00610D4206C20F4885040F0020096
:100A800020642046FFF702FE6664206C20F002001E
:100A900040F00100206400E0012584F83C60284615
:100AA00070BD704708B500680B49884212D10B48E9
:100AB000016841F4807101600068002200F48070D8
:100AC00000900121122000F001F9BDE80840122039
:100AD00000F0EEB808BD000000200140443802409C
:100AE00018B50021009190F83C20012A07D001227E
:100AF00080F83C2002689368DB0702D011E00220F6
:100B000018BD936843F0010393602A4A2A4B126888
:100B1000B2FBF3F202EB420200E0521E0092002A06
:100B2000FBD102689368DB0741D0036C40F201649B
:100B3000A34343F48073036453685B0505D5036CDA
:100B400023F4005343F480530364036CDB0404D5A3
:100B5000436C23F00603436400E0416480F83C10DA
:100B600016496FF02203136049680068CA061449E9
:100B700006D088421BD1816811F0405F13D016E087
:100B80008842F8D00F4A904203D1D1F80423D2060C
:100B9000F1D00D4A90420AD1D1F8041301F01F019F
:100BA0001029E8D303E0816841F080418160002092
:100BB00018BD00001400002040420F000023014037
:100BC00000200140002101400022014070B5044690
:100BD00000F00EF80546601C02D00448007804447A
:100BE00000F006F8401BA042FAD370BD08000020B8
:100BF00001488068704700000800002002488168B2
:100C00000278114481607047080000200B4810B53D
:100C1000016841F400710160016841F48061016084
:100C2000016841F480710160032000F06FF800203A
:100C300000F006F800F024F8002010BD003C02404F
:100C400070B50D4D04464FF47A712878B1FBF0F081
:100C50000A490968B1FBF0F000F0E4FA48B9102C39
:100C600007D200222146501E00F030F800206C60B0
:100C700070BD012070BD000008000020140000209D
:100C80000A4808B5016841F480410160006800F439
:100C9000804000900548001F016841F080510160CC
:100CA000006800F08050009008BD00004438024009
:100CB000002809DB00F01F0201219140400980005B
:100CC00000F1E020C0F8001170470000F0B40E4BB6
:100CD0001B680C46C3F30223C3F10705042D00D99A
:100CE0000425191D072901D2002300E0DB1E01267F
:100CF00006FA05F1491E214099409E40761E164095
:100D00003143F0BC00F01BBB0CED00E0064900F0E5
:100D1000070208684FF6FF03184040EA0220034A22
:100D200010430860704700000CED00E00000FA0579
:100D30002DE9F0470E46050065D0DFF81481D8F89C
:100D40000000F7B200F00F00B04207D288F8007040
:100D5000D8F8000000F00F00B04254D128683D4C94
:100D6000810712D5400703D5206840F4E050206089
:100D70002878000703D5206840F460402060206890
:100D8000A96820F0F000084320602878C0072DD023
:100D9000304968680839012812D0022813D0032886
:100DA00011D00968890700292DDA216821F0030193
:100DB00001432160FFF71CFF814641F2883A0EE0B3
:100DC00009688903EFE709688901ECE7FFF710FF7D
:100DD000A0EB0901514502D90320BDE8F087206846
:100DE000696800F00C00B0EB810FEFD1D8F800106B
:100DF000404601F00F01B14207D90770006800F0CA
:100E00000F00B04201D00120E7E72878400705D560
:100E10002068E96820F4E050084320602878000743
:100E200006D52068296920F4604040EAC1002060AE
:100E300000F018F82168084AC1F30311515CC8405A
:100E40000649086006480068FFF7FAFE0020C4E77C
:100E5000003C0240083802402C1400081400002016
:100E60000C000020154810B5006810F00C02144862
:100E700013D01449042A0FD0082A0ED10F4C241F76
:100E80002268236802F03F025B0207D52068C0F3A6
:100E90008810A0FB010106E0084610BD2168C1F3DF
:100EA0008811A1FB00010023FFF78AF92168C1F333
:100EB0000141491C4900B0FBF1F010BD0838024067
:100EC0000024F40040787D012DE9F84F040076D02D
:100ED0002078DFF838A3CE4DC00749D0DAF80010EB
:100EE0005046C1F38101012908D00068C0F3810098
:100EF00002280AD1281D0068400206D52868800310
:100F000036D560680028E2D032E06068B0F5803FF6
:100F100010D0B0F5A02F286810D020F480302860C1
:100F2000286820F4802028606068A0B1FFF760FE88
:100F300006460CE0286840F48030F4E740F4802056
:100F40002860F7E7FFF754FE801B642873D82868F1
:100F50008003F7D50CE0FFF74BFE064605E000BF27
:100F6000FFF746FE801B6428F0D828688003F7D47A
:100F70002078DFF8A08280074FF000093ED5DAF82C
:100F80000010504611F00C0F09D00068C0F381002A
:100F900002280BD19D48001F0068400206D4286833
:100FA000800715D5E068012809D111E0E068B8B1E3
:100FB0000120C8F80000FFF71BFE064605E020E10F
:100FC000FFF716FE801B0228C0D828688007F7D5D7
:100FD0002868216920F0F80040EAC10028600DE08F
:100FE000C8F80090FFF704FE064604E0FFF700FE95
:100FF000801B02281FD828688007F7D420780007B4
:1010000022D5824E844861696C3671B1012101603C
:10101000FFF7EEFD074604E0FFF7EAFDC01B0228DC
:1010200009D830688007F7D50EE0C0F80090FFF7C8
:10103000DFFD074605E082E0FFF7DAFDC01B02286E
:101040007DD830688007F7D42078400768D5DFF86E
:10105000BCB100270BF1380BDBF80000C0000BD44B
:10106000DBF8001041F08051CBF80010DBF80000F5
:10107000012700F080500090684E3068C00510D401
:10108000306840F480703060FFF7B2FD009005E0FA
:10109000FFF7AEFD0099401A022850D83068C0050D
:1010A000F6D55A4EA068683601280FD0052830685A
:1010B00010D020F001003060306820F00400306073
:1010C000A068B8B1FFF794FD00900FE0306840F0E1
:1010D0000100F4E740F004003060F7E7FFF788FD17
:1010E0000099411A41F28830814266D83068800701
:1010F000F4D50EE0FFF77CFD009007E0FFF778FDE8
:101100000099411A41F28830814256D830688007F0
:10111000F4D42FB1DBF8001021F08051CBF800108F
:10112000A069D0B3DAF800205146C2F38102022A46
:101130004AD00228484607D0C8F8600000E03CE0EA
:10114000FFF756FD04463BE04746C8F86000FFF74E
:101150004FFD064605E000BFFFF74AFD801B022851
:101160002BD828688001F7D4D4E907010843A16A85
:101170002B4A490802EB0141626A41EA82110843A5
:1011800094F82C1040EA01612048001F0160012002
:101190003866FFF72DFD044605E034E0FFF728FD33
:1011A000001B022809D828688001F7D52BE000BF72
:1011B000FFF71EFD001B022802D90320BDE8F88FAF
:1011C00028688001F4D41EE00128F7D00868E2699D
:1011D00000F48001914214D1226A00F03F01914253
:1011E0000FD147F6C071626A0140914209D1A26AEB
:1011F00000F44031914204D1E16A00F0706088420D
:1012000001D00120DAE70020D8E7000008380240CA
:101210000038024000004742800E47420070004004
:101220000000FFFF10B5401EB0F1807F01D3012008
:1012300010BD4FF0E02460610F21601700F07FF8CF
:101240000020A06107202061002010BDFEE7000003
:101250001FB5002111480091019102910E4A03919E
:10126000C0E90021816001240161047680F820102A
:101270000B4AC0E90A21C461C16080F830104461A2
:10128000FFF7E5FB1020CDE9000407200290694636
:101290000248FFF793FA1FBD00200140180000200C
:1012A0000100000FFEE7704770477047FFF7A6BCCC
:1012B00010B592B030216846FEF7BAFF14210CA891
:1012C000FEF7B6FF14480024016841F08051016028
:1012D000006800F0805011901048016841F480418E
:1012E00001600068069400F4804011900220009094
:1012F00001200390102004906846FFF7E5FD0F20C1
:10130000CDE90C040E940F9400210CA81094FFF763
:101310000FFD12B010BD00004038024000700040C8
:101320000548016841F47001016003494FF0006015
:10133000803908607047000088ED00E0FEE709078B
:10134000090E002804DB00F1E02080F8001470474B
:1013500000F00F0000F1E02080F8141D704702E05B
:1013600008C8121F08C1002AFAD170477047002030
:1013700001E001C1121F002AFBD170472DED088B3F
:10138000FFF744FCFFF794FFFFF762FF1E48FFF7EB
:10139000A7FB1E4C9FED1E8ADFED1E8A9FED1EBA35
:1013A0009FED1E9B9FED1FABF3EE09BA4FF47A75CC
:1013B0001548FFF7ABFA00EE100AB8EE400A20EE2F
:1013C000080AC0EE280A80EE8B0A10EE100AFFF71A
:1013D00050F853EC192BFEF7D7FFFFF75DF8FFF736
:1013E00048F853EC1A2BFEF7D5FFFFF755F800EE3F
:1013F000100A284684ED000A30EE2B0A84ED010A1B
:10140000FFF7E4FBD4E700001800002000000020F4
:1014100000404E4500F07F4500007A4452B81E85DA
:10142000EB51E83F7B14AE47E17A643F00000000D7
:101430000000000001020304060708095C1400080C
:1014400000000020180000005E130008741400085B
:1014500018000020480400006E130008000000007F
:10146000000000000100000010000000000000006B
:041470000024F40060
:040000050800018965
:00000001FF
