:020000040800F2
:10000000A0040020D1010008771700082717000876
:1000100075170008E50200084926000800000000E6
:10002000000000000000000000000000B51A0008F9
:10003000E70200080000000079170008B71A00085E
:10004000EB010008EB010008EB010008EB010008E0
:10005000EB010008EB010008EB010008EB010008D0
:10006000EB010008EB010008EB010008EB010008C0
:10007000EB010008EB010008EB010008EB010008B0
:10008000EB010008EB010008EB010008EB010008A0
:10009000EB010008EB010008EB010008EB01000890
:1000A000EB010008EB010008EB010008EB01000880
:1000B000EB010008EB010008EB010008EB01000870
:1000C000EB010008EB010008EB010008EB01000860
:1000D000EB010008EB010008EB0100083D260008D9
:1000E000EB010008EB010008EB010008EB01000840
:1000F000EB010008EB010008EB0100080000000024
:10010000EB010008EB010008EB010008EB0100081F
:10011000EB010008EB010008EB010008EB0100080F
:10012000EB010008EB010008EB010008EB010008FF
:10013000EB010008EB010008EB010008EB010008EF
:10014000EB010008EB010008EB010008EB010008DF
:10015000EB010008EB010008EB010008EB010008CF
:10016000EB010008EB010008EB010008EB010008BF
:10017000EB010008EB010008000000000000000097
:10018000EB010008EB010008EB010008EB0100089F
:10019000EB010008EB010008000000000000000077
:1001A0000000000000000000EB010008EB01000867
:1001B000EB010008EB010008EB010008DFF80CD0B0
:1001C00000F07EF80048004789260008A0040020BF
:1001D0000648804706480047FEE7FEE7FEE7FEE7E1
:1001E000FEE7FEE7FEE7FEE7FEE7FEE7291B000865
:1001F000BD0100082DE9F05F0546002092469B46B0
:1002000088460646814640241BE02846414647462C
:10021000224600F044F853465A46C01A914110D382
:1002200011461846224600F02BF82D1A67EB0108FC
:100230004F4622460120002100F022F817EB00096A
:100240004E41201EA4F10104DFDC484631462A4617
:10025000434600F000B830BCBDE8C09FD2B201E018
:1002600000F8012B491EFBD270470022F6E710B5BB
:1002700013460A4604461946FFF7F0FF204610BD14
:10028000202A04DB203A00FA02F100207047914056
:10029000C2F1200320FA03F3194390407047202A4B
:1002A00004DB203A21FA02F00021704721FA02F320
:1002B000D040C2F120029140084319467047000027
:1002C000064C074D06E0E06840F0010394E80700A3
:1002D00098471034AC42F6D3FFF774FF3427000878
:1002E00054270008FEE7704710B590F82510002449
:1002F000022903D00421C16301242BE001680A68AC
:1003000022F00E020A6001680A6822F001020A6007
:10031000816C0A6822F480720A6090F84410036CC1
:1003200001F01C01012202FA01F15960D0E9131316
:100330004B60416D31B10B6823F480730B60D0E9E1
:1003400016134B6080F82520002180F82410816B63
:1003500001B18847204610BD70B5044600F0EEF8A4
:100360000546601C02D004484068044400F0E6F8EA
:10037000401BA042FAD370BD040000202DE9F84FC5
:10038000DFF888B100234FF0010C4FF0030A4FF063
:100390000F090BF1040EB1E00CFA03F632406FD0F6
:1003A0004C68022C01D0122C11D1DC0800EB840720
:1003B0003C6A5D07ED0E09FA05F824EA0804D1F855
:1003C000108008FA05F848EA0408C7F82080076892
:1003D0005D0091F804800AFA05F408F00308A743C9
:1003E00008FA05F848EA0708C0F800804F68012FAE
:1003F00005D0022F03D0112F01D0122F10D1D0F829
:100400000880CF6828EA0408AF4047EA08078760F9
:100410004768B7430E79C6F300169E403E434660D8
:10042000C668A6438C68AC403443C4604C68E400A2
:1004300063D5374C256E45F001052566246E23F003
:10044000030504F001040094324C2F19BD689C0789
:10045000260F09FA06F4A543B0F1904F04D02E4CB4
:10046000A04203D1012421E000241FE02B4CA04234
:1004700001D102241AE02A4CA04202D1032415E043
:100480003BE0284CA04201D104240FE0264CA042BE
:1004900001D105240AE0254CA04201D1062405E043
:1004A000234CA04201D1072400E00824B4402C438F
:1004B000BC60DBF800405D464E689443F60300D50F
:1004C00014432C60DEF8004075464E689443B60332
:1004D00000D514432C600D4D08352C684E689443AC
:1004E000F60200D514432C60084D0C352C684E687C
:1004F0009443B60200D514432C605B1C0A6832FAA0
:1005000003F47FF449AF00F015B800000004014087
:1005100000100240000001400004004800080048AC
:10052000000C004800100048001400480018004863
:10053000001C004818BCBDE8E08F0000014880683E
:10054000704700000400002002488168426811449E
:10055000816070470400002010B50024032000F0E3
:1005600071F8002000F008F808B1012401E000F063
:1005700025F8204610BD000070B50E4E054600243B
:10058000706898B14FF47A71B1FBF0F00A490968CC
:10059000B1FBF0F000F0B6FE40B9102D06D20022FB
:1005A0002946501E00F02EF8356000E00124204658
:1005B00070BD00000400002010000020094808B5AC
:1005C000016E41F001010166016E01F0010100912F
:1005D000816D41F080518165806D00F08050009008
:1005E00008BD000000100240002809DB00F01F02D7
:1005F000012191404009800000F1E020C0F8001185
:1006000070470000F0B40E4B1B680C46C3F3022386
:10061000C3F10705042D00D90425191D072901D2AE
:10062000002300E0DB1E012606FA05F1491E2140E9
:1006300099409E40761E16403143F0BC02F005B84A
:100640000CED00E0064900F0070208684FF6FF03D2
:10065000184040EA0220034A104308607047000037
:100660000CED00E00000FA052B492C4B0A68322102
:100670004A432B4940B1B0F5007F086829D020F4E7
:10068000C06040F480602CE00868C0F3412002287C
:1006900004D051F8800F20F4807022E0D1F880005F
:1006A00020F48070C1F88000086820F4C06040F435
:1006B00000700860B2FBF3F0401C00E0401E4A6985
:1006C000520501D50028F9D1486940050AD5032013
:1006D0007047C0F34120022806D051F8800F40F443
:1006E0008070086000207047D1F8800040F480706E
:1006F000C1F88000086820F4C06040F40070086011
:10070000B2FBF3F0401C00E0401E4A695205DBD505
:100710000028F9D1D8E700001000002040420F0067
:100720000070004008480168C1F34121022906D049
:10073000D0F88000C00505D54FF4007070474FF425
:100740008060704700207047007000402DE9F84F2E
:100750000446002700883E46010504F12008FE4DAE
:100760001ED5E06E40280AD003DC68B1202804D1F1
:100770000FE0602821D080281FD001270FE0E86813
:1007800040F48030E86018E00021201D00F0F6FF02
:1007900003E00021404601F085F807000DD03E46F9
:1007A0002088C0042BD5206FB0F5007F16D00DDC5B
:1007B000C8B1B0F5807F0FD11AE0D5F89C00E16E8A
:1007C00020F0E0000843C5F89C00E9E7B0F5407F61
:1007D00013D0B0F5806F10D001270FE0E86840F427
:1007E0008030E86009E00021201D00F0C7FF03E031
:1007F0000021404601F056F80746F7B13E46206812
:1008000080033AD5A86D4FF00008C00009D4A86D48
:1008100040F08050A865A86D4FF0010800F08050AE
:100820000090DFF838A3DAF8001041F48071CAF8BC
:100830000010FFF783FE814610E0D5F89C00216F81
:1008400020F4E0600843C5F89C00D8E7FFF776FE87
:10085000A0EB0900022801D9032705E0DAF800001F
:10086000C005F3D5002F7CD04FEA0706B8F1000F82
:1008700003D0A86D20F08050A8652078C00707D06D
:10088000D5F88800E16B20F003000843C5F8880024
:100890002078800707D5D5F88800216C20F00C005F
:1008A0000843C5F888002078400707D5D5F88800A8
:1008B000616C20F030000843C5F8880020780007FC
:1008C00007D5D5F88800A16C20F0C0000843C5F812
:1008D00088002078C00607D5D5F88800E16C20F4A0
:1008E00040700843C5F888002078800607D5D5F801
:1008F0008800216D20F440600843C5F888002088F6
:10090000800507D5D5F88800616E20F440200843A3
:10091000C5F888002088400507D5D5F88800A16E65
:1009200020F440100843C5F888002078400607D519
:10093000D5F88800616D20F440500843C5F8880060
:100940002078000607D5D5F88800A16D20F4404036
:100950000843C5F888002088C00509D5D5F8880067
:1009600000E027E0E16D20F440300843C5F888003E
:100970002068C00207D5D5F89C00216E20F0030046
:100980000843C5F89C0020884FF0006780044FF0B2
:10099000806850D5D5F88800616F20F0406008432A
:1009A000C5F88800606FB8423DD1E86840F4801017
:1009B000E86040E0D5F8900010F4407015D0D4F80D
:1009C0009010814211D0D5F89000D5F8901020F405
:1009D000407041F48031C5F89010D5F8901021F4A2
:1009E0008031C5F89010C5F89000C00711D0FFF70E
:1009F000A5FD074641F2883907E000BFFFF79EFDDD
:100A0000C11B494501D9032630E7D5F8900080077E
:100A1000F4D5D5F89000D4F8901020F44070084335
:100A2000C5F8900022E7404505D10121201D00F0C6
:100A3000A5FE00B10646206800032DD5A06F4FF437
:100A400080418842D5F89C0004D140F48040C5F82C
:100A50009C000BE020F48040C5F89C00D5F888008D
:100A6000A26F20F040601043C5F88800A06FB84224
:100A700003D1E86840F4801004E0884204D1E868BB
:100A800040F48030E86007E0404505D10121201D99
:100A900000F074FE00B106462068400317D5D5F873
:100AA0008800E16F20F040600843C5F88800E06FDF
:100AB000B84204D1E86840F48010E86007E040459F
:100AC00005D10121201D00F059FE00B10646208805
:100AD000400413D5D5F88800D4F8801020F0405099
:100AE0000843C5F88800D4F88000B0F1805F05D1D4
:100AF0000221201D00F042FE00B106462068C0031E
:100B000008D5D5F89C00D4F8841020F004000843E0
:100B1000C5F89C002068800208D5D5F89C00D4F860
:100B2000881020F018000843C5F89C002068C00118
:100B300010D5D5F89C0054F88C1F20F440100843C1
:100B4000C5F89C002068B0F5001F03D1E86840F4A8
:100B50008010E860304603E0001002400070004062
:100B600000F000B818BCBDE8E08F00002DE9F047A8
:100B70000E4605004FF000077ED0DFF85C81D8F804
:100B8000000000F00F00B0420CD2D8F8001021F0A5
:100B90000F013143C8F80010D8F8000000F00F0032
:100BA000B04271D128784D4CC0074BD06868DFF84F
:100BB000309103281ED002282ED0002820682ED085
:100BC0004005002860DA00F0B7F8484506D9A0686B
:100BD00020F0F00040F08000A0608027A0686968E5
:100BE00020F003000843A060FFF7A8FC814641F213
:100BF000883A20E02068800146D500F0E7FE4845AD
:100C0000ECD9A06810F0F00FE1D028788007E5D586
:100C1000A8680028DBD0E1E720688003D1E78007DF
:100C2000CFE700BFFFF78AFCA0EB0901514502D9CD
:100C30000320BDE8F087A068696800F00C00B0EB05
:100C4000810FEFD12878800705D5A068A96820F02A
:100C5000F000084304E0802F03D1A06820F0F000EA
:100C6000A060D8F80010404601F00F01B1420DD944
:100C7000016821F00F0100E006E0314301600068E7
:100C800000F00F00B04201D00120D2E728784007E1
:100C900005D5A068E96820F4E0600843A0602878E2
:100CA000000706D5A068296920F4605040EAC10019
:100CB000A06000F041F8A1680A4AC1F30311515C39
:100CC00001F01F01C8400849086008480068BDE8F5
:100CD000F047FFF751BC0000002002400010024026
:100CE00000B4C404DC26000810000020040000202A
:100CF0000548064900688968054AC1F30221515C2C
:100D000001F01F01C8407047100000200010024091
:100D10001C2700080548064900688968054AC1F390
:100D2000C221515C01F01F01C84070471000002033
:100D3000001002401C27000870B525490023184602
:100D40008A68CC6812F00C0204F00306214C4FEACA
:100D5000640509D00C2A05D0042A32D0082A00D113
:100D6000284670BD012E10D10B681B0704D4D1F8A2
:100D70009430C3F3032302E00B68C3F30313164E4E
:100D800056F82330DAB10C2AEBD1C86800F0030022
:100D9000022818D0032818D01846CA68CB68C2F3B6
:100DA0000312C3F306234343521CB3FBF2F2C86899
:100DB000C0F34160401C4000B2FBF0F070BD18462B
:100DC00070BD204670BD2046E7E72846E5E70000F5
:100DD000001002400024F400EC2600082DE9F8433E
:100DE00004006ED0F84DA86800F00C06E86800F02A
:100DF00003072078C00663D576B10C2E01D1012FF0
:100E00000AD0A0690028286878D040F00100286046
:100E1000FFF794FB80465BE02868800702D5A06955
:100E20000028DED0216A2868000703D5286800F072
:100E3000F00004E0D5F89400F02202EA101081429C
:100E400016D9084600F0FCFD00283AD1286840F089
:100E5000080028602868216A20F0F0000843286014
:100E60006868E16920F47F4040EA0120686015E08D
:100E7000286840F0080028602868216A20F0F00007
:100E8000084328606868E16920F47F4040EA012057
:100E90006860206A00F0D4FD0028D6D1FFF74CFF2F
:100EA000A968CA4AC1F30311515C01F01F01C8408F
:100EB000C7490860C7480068FFF75EFB00287DD17E
:100EC0002DE0C9E0FFF73AFBA0EB0800022876D836
:100ED00028688007F6D5286840F008002860286850
:100EE000216A20F0F000084328606868E16920F476
:100EF0007F4040EA0120686011E0FFE720F0010038
:100F00002860FFF71BFB804606E000BFFFF716FBDB
:100F1000A0EB08000228DAD828688007F6D42078E9
:100F2000C00740D0082E18D00C2E01D1032F14D0AA
:100F30006068B0F5803F17D0B0F5A02F286817D0B3
:100F400020F480302860286820F4802028606068C1
:100F5000E0B1FFF7F3FA804614E02868800322D559
:100F60006068002878D01EE0286840F48030EDE703
:100F700040F480202860F7E7FFF7E0FAA0EB0800D4
:100F80006428A4D828688003F6D50CE0FFF7D6FAC9
:100F9000804605E0FFF7D2FAA0EB0800642896D857
:100FA00028688003F6D4207880073BD5042E11D022
:100FB0000C2E01D1022F0DD0E06801E064E1B8E011
:100FC000002828681ED040F480702860FFF7B6FA29
:100FD00007460CE0286840050CD5E0680028C1D021
:100FE00008E000BFFFF7AAFAC01B022893D82868C0
:100FF0004005F7D56868217C20F0FE4040EA01609A
:1010000068600FE020F480702860FFF797FA0746C9
:1010100005E000BFFFF792FAC01B0228B1D828688C
:101020004005F7D42078000729D560690028D5F855
:10103000940012D040F00100C5F89400FFF77EFA4A
:10104000074604E0FFF77AFAC01B022871D8D5F8EA
:1010500094008007F6D512E04CE120F00100C5F8BD
:101060009400FFF76BFA074605E000BFFFF766FA4A
:10107000C01B02285DD8D5F894008007F6D42078EC
:10108000400766D5A86D0027C00008D4A86D40F0C1
:101090008050A865A86D012700F0805000904E4850
:1010A0000168C90512D40168814641F4807101606C
:1010B000FFF744FA804605E0FFF740FAA0EB08008E
:1010C000022836D8D9F80000C005F5D5A068012857
:1010D00016D00528D5F8900017D020F00100C5F8EB
:1010E0009000D5F8900020F0040000BFC5F89000F3
:1010F000A06841F28839C0B1FFF720FA80460FE0BE
:10110000D5F8900040F00100F0E740F00400C5F889
:101110009000F5E7FFF712FAA0EB0801494508D85F
:10112000D5F890008007F5D50EE0FFF707FA804666
:1011300006E07CE0FFF702FAA0EB0801494576D80B
:10114000D5F890008007F5D41FB1A86D20F080502D
:10115000A8652078800628D5606A0028D5F8980010
:1011600012D040F00100C5F89800FFF7E7F90746F4
:1011700005E000BFFFF7E2F9C01B022857D8D5F8F9
:1011800098008007F6D510E020F00100C5F898001F
:10119000FFF7D4F9074604E0FFF7D0F9C01B022897
:1011A00071D8D5F898008007F6D4A06AF0B30C2E59
:1011B00071D00228286820F0807028600ED028683E
:1011C00010F0205F4DD050E000100240DC260008F7
:1011D000100000200400002000700040FFF7AEF96E
:1011E000064604E0FFF7AAF9801B02284BD82868BE
:1011F0008001F7D4F4E90B016FF00F0202EB01114B
:101200000843218A5204490802EB4151A26841EA8D
:1012100002210843217D4FF07E42490802EB4161E3
:101220000843217B40EAC160E96801E064E02AE00C
:10123000324A11400843E860286840F08070286016
:10124000E86840F08070E860FFF778F9044604E051
:10125000FFF774F9001B022815D828688001F7D51C
:101260004AE0E86820F00300E860E86824490840A4
:10127000E860FFF763F9044608E000BFFFF75EF996
:10128000001B022802D90320BDE8F88328688001EA
:10129000F4D431E0FFE70128F6D0E868E26A00F014
:1012A0000301914226D1216B00F0F00209011039AF
:1012B00091421FD1626B00F4FE41B1EB022F19D1B4
:1012C00094F8382000F07841B1EBC26F12D1A18FB1
:1012D00000F4C00249084905A1F50011914209D165
:1012E00094F8401000F0C06049084906A1F100716F
:1012F000814201D00120C7E70020C5E70C809D0195
:10130000FFFFEEFE10B5401EB0F1807F01D301203B
:1013100010BD4FF0E02460610F21601701F095F9D6
:101320000020A06107202061002010BD90F87C10F3
:10133000012918D0012180F87C102421C0F88010E8
:1013400050F8601B0A680B6823F001030B6022F061
:1013500000510022426050F8603C19602021016277
:1013600002771046704702207047704770B50446F8
:1013700090F87C0001281DD0012084F87C002420F6
:10138000C4F8800020680568026822F0010202604B
:101390002068826822F060620A438260204600F082
:1013A000E5FB206805602020C4F88000002084F858
:1013B0007C0070BD022070BD70B5044690F87C00C2
:1013C00001281DD0012084F87C002420C4F880006E
:1013D00020680568026822F00102026020688268C5
:1013E00022F060420A438260204600F0BFFB206882
:1013F00005602020C4F88000002084F87C0070BDC7
:10140000022070BD70477047704700002DE9F04121
:1014100003680446D8691A68996810F00F0F4FF0F6
:10142000000569D05E4E02F490770E4037437DD0C0
:10143000C70709D0D70507D501271F62D4F8883020
:1014400043F00103C4F8883083070AD5CB0708D0DE
:10145000276802233B62D4F8883043F00403C4F8C1
:10146000883043070AD5CB0708D0276804233B629E
:10147000D4F8883043F00203C4F8883003070CD551
:1014800002F02003334308D0266808233362D4F8DF
:10149000883043F00803C4F88830D4F88830002B33
:1014A0003CD0800609D502F0200001F080510843AD
:1014B00003D0E16E09B120468847D4F8880021683E
:1014C0008968490601D400072AD5204600F01EFC91
:1014D0002068816849061ED5816821F0400181603D
:1014E000A06FC0B12F498163A06FFEF7FDFE0028F9
:1014F00014D0A06F816B0AE0860617D502F0200693
:1015000001F080573E4311D0E16E24E02046BDE853
:10151000F04108470AE02046FFF776FFBDE8F0817A
:101520002046FFF771FFC4F88850F7E7C60209D5D7
:101530004E0207D54FF4801018622046BDE8F041F6
:10154000FFF761BF060609D502F0800601F400012D
:101550000E4303D0216F0029D8D1DFE741060DD516
:1015600051060BD51968204621F040011960202151
:10157000C4F88010256700F0D5F8CFE7010206D542
:10158000510004D52046BDE8F041FFF73BBFC00144
:10159000C4D5002AC2DA2046BDE8F041FFF7E5BE17
:1015A00001000010F71C000810B5040003D0D4F8A7
:1015B000800010B107E0012010BD002084F87C00FD
:1015C000204600F027F82420C4F880002068016835
:1015D00021F001010160204600F0AAFB0128EBD0B8
:1015E000A06A10B1204600F0F3FA2068416821F4A7
:1015F000904141602068816821F02A018160206863
:10160000016841F0010101602046BDE8104000F092
:1016100043BB000010B586B0044614216846FEF7AF
:1016200024FE16492068884226D11548816D41F470
:1016300080218165816D01F480210591C16C41F0AB
:101640000401C164C06C694600F0040005903020BC
:1016500000900220019000200290032003900720B8
:1016600004900848FEF78AFE002211462720FEF764
:10167000C9FF2720FEF7B8FF06B010BD00480040A4
:101680000010024000080048D0F88030202B3ED1E6
:1016900049B342B390F87C30012B38D0012380F855
:1016A0007C300165A0F85420A0F856200021016785
:1016B000C0F888102122C0F88020436E4FF4805279
:1016C000B3F1005F836810D0934201D10269E2B1A7
:1016D000104A026780F87C100068016841F08001C0
:1016E00001600020704701207047934201D10269D8
:1016F0004AB1094A026780F87C100068816841F4A9
:1017000000018160EDE7054AF4E7054AE1E70220C0
:10171000704700004525000885250008ED240008D5
:10172000AB2400087047FEE7114810B50F4901606F
:101730004FF4E1314160002181600C22C160C0E9B9
:1017400004128161C161016241628162FFF72CFF75
:1017500000210748FFF730FE00210548FFF706FE8D
:10176000BDE810400248FFF7E1BD0000004800401E
:1017700014000020FEE77047704700002DE9F0419B
:10178000434C05468846E06800268107286806D055
:10179000E16801F0030181420FD170B11AE0012824
:1017A00004D0022805D0032807D108E02168890762
:1017B00001E021684905002907DB012664E0216872
:1017C000890302D421684903F5E7E16821F00301A8
:1017D0000143E160206820F080602060FEF7AEFEEB
:1017E000074604E0FEF7AAFEC01B022843D8206883
:1017F0000001F7D46FF00F00B8F1000F1BD0B8F163
:10180000010F24D0297D4908420502EB4161AA68F5
:1018100041EA02216A6800EB0210014320691D4A77
:10182000104001432161206840F080602060FEF795
:1018300085FE074621E0A9682A7B090241EAC261C8
:101840006A6800EB021001432069134AE8E7298A1D
:10185000124A490802EB4151AA6841EA02216A682A
:1018600000EB0210014320690D4AD9E7FEF766FE3E
:10187000C01B022801D9032606E020680001F5D527
:101880002069A969084320613046BDE8F081000065
:10189000001002400F80FFF90F80FF070000E0FFFB
:1018A0000F809FFF2DE9F041434C05468846E068D4
:1018B00000268107286806D0E16801F00301814213
:1018C0000FD170B11AE0012804D0022805D00328F6
:1018D00007D108E02168890701E02168490500294E
:1018E00007DB012664E02168890302D421684903EB
:1018F000F5E7E16821F003010143E160206820F091
:1019000080502060FEF71AFE074604E0FEF716FE40
:10191000C01B022843D820688000F7D46FF00F0066
:10192000B8F1000F1BD0B8F1010F24D0297D490870
:10193000420502EB4161AA6841EA02216A6800EBB4
:101940000210014360691D4A104001436161206833
:1019500040F080502060FEF7F1FD074621E0A968C5
:101960002A7B090241EAC2616A6800EB0210014366
:101970006069134AE8E7298A124A490802EB415193
:10198000AA6841EA02216A6800EB0210014360691B
:101990000D4AD9E7FEF7D2FDC01B022801D9032664
:1019A00006E020688000F5D56069A9690843606198
:1019B0003046BDE8F0810000001002400F80FFF9C2
:1019C0000F80FF070000E0FF0F809FFF18480021F5
:1019D000C26802F00302012A0DD10168090704D48C
:1019E000D0F89410C1F3032102E00168C1F30311A0
:1019F000104A52F82110C26802F00302022A02D0F3
:101A0000032A03D101E00C4900E00C49C268C36815
:101A1000C2F30312C3F306234B43521CB3FBF2F190
:101A2000C068C0F34160401C4000B1FBF0F070475B
:101A300000100240EC2600080024F40000127A0096
:101A4000F8B51A4D06460024A86DC00002D5FEF771
:101A500069FE0DE0A86D40F08050A865A86D00F00B
:101A600080500090FEF75EFEA96D21F08051A965BF
:101A7000B0F5007F03D0802E06D3022407E0802E2D
:101A800005D9A02EF9D801E0702E00D10124084814
:101A9000016821F00F0121430160006800F00F0090
:101AA000A04201D00120F8BD0020F8BD0010024086
:101AB000002002407047FEF747BD10B5BCB044217E
:101AC00025A8FEF7D2FB142136A8FEF7CEFB942101
:101AD0006846FEF7CAFB0020FEF7C6FD0220C101E2
:101AE00028914021259029912F9030901E21CDE9F9
:101AF000310133903490359025A8FFF76FF90F200E
:101B0000369003200024CDE937043994052136A806
:101B10003A94FFF72BF80420009011946846FEF7E2
:101B200015FE3CB010BD00000D48016841F4700185
:101B300001600C48016841F00101016000218160F1
:101B40000268094B1A4002608214C260026822F4E3
:101B50008022026081610249C003803908607047B9
:101B600088ED00E000100240FFFFF6EA3FB514A147
:101B7000D1E90021CDE9002113A2D2E90012CDE97B
:101B80000212416EB9B1026891689268C1F3426174
:101B9000520F1DF80240E50002ACA25CB5FBF2F268
:101BA000A0F86A201DF80120615CD200B2FBF1F1BF
:101BB000A0F868103FBD0121A0F86A10F8E7000006
:101BC00001010103070100000804020408010101EA
:101BD00090F82810C90706D001684A68C36A22F441
:101BE00000321A434A6090F82810890706D5016828
:101BF0004A68036B22F480321A434A6090F8281036
:101C0000490706D501684A68436B22F480221A43CB
:101C10004A6090F82810090706D501684A68836B66
:101C200022F400421A434A6090F82810C90606D5EB
:101C300001688A68C36B22F480521A438A6090F864
:101C40002810890606D501688A68036C22F40052C0
:101C50001A438A6090F82810490611D501684A682D
:101C6000436C22F480121A434A60416CB1F5801F24
:101C700006D101684A68836C22F4C0021A434A60A4
:101C800090F82810090606D501684A68C06C22F44D
:101C9000002202434A607047F8B500260446C0F8A7
:101CA0008860FEF74BFC0546206800686FF07E47B1
:101CB000000708D52B4600224FF40011204600975C
:101CC00000F08AFC60B92068006840070AD52B46FE
:101CD00000224FF480012046009700F07DFC08B1FF
:101CE0000320F8BD2020C4F88000C4F8840084F8E4
:101CF0007C600020F8BD10B5806A0021A0F85E105D
:101D0000A0F85610FFF780FB10BD000001680A68BC
:101D100022F490720A6001688A68044B1A408A6053
:101D20002021C0F884100021C1667047FEFFFFEF3C
:101D30002DE9F05F0446016880682369E56918436E
:101D4000636900272B431843636EF64A0343086810
:101D5000F54D28401843086020684168E36821F485
:101D60004051194341602168A069914201D0236A22
:101D700018438B68ED4D2B4003438B602068C16A8C
:101D8000636A21F00F011943C162EA49E84B2068F8
:101D90008E1598420DD1D1F8881011F0030106D0AC
:101DA000012969D0022965D0032950D166E00125B7
:101DB0004EE0E14B98420BD1D1F8881011F00C01A4
:101DC00056D0042958D0082954D00C293FD155E0C9
:101DD000DA4B98420BD1D1F8881011F0300147D07E
:101DE000102949D0202945D0302930D146E0D44BA4
:101DF00098420BD1D1F8881011F0C00138D0402999
:101E00003AD0802936D0C02921D137E0CD4B984235
:101E10000DD1D1F8881011F4407129D0B1422BD0E6
:101E2000B1F5007F26D0B1F5407F10D126E0904279
:101E30000DD1D1F8881011F4406119D0B1F5806F3F
:101E40001AD0B1F5006F15D0B1F5406F16D010253E
:101E5000DFF8F4A24FF000094FF4004B90426ED12E
:101E600075B1022D29D0042D59D0082D68D176E006
:101E70000025EDE70225EBE70425E9E70825E7E77C
:101E8000FEF736FF4DE0012851D0022851D003283B
:101E900051D0042851D0052853D0062853D0072804
:101EA00053D0082853D0092853D00A2853D00B28E0
:101EB00053D03AE0B1FBF0F06CE0606AA8B10128C1
:101EC00017D0022817D0032817D0042817D00528C8
:101ED00017D0062817D0072817D0082817D00928A8
:101EE00017D00A2817D00B2817D00120BAFBF0F022
:101EF00050E00220FAE70420F8E70620F6E7082081
:101F0000F4E70A20F2E70C20F0E71020EEE72020AB
:101F1000ECE74020EAE78020E8E73046E6E7FEF716
:101F20000BFF0146606A0028ADD10120C2E7022004
:101F3000C0E70420BEE70620BCE70820BAE73AE184
:101F40004AE00A20B6E70C20B4E71020B2E72020D0
:101F5000B0E74020AEE78020ACE73046AAE7606AF1
:101F6000A8B1012822D0022822D0032822D0042898
:101F700022D0052822D0062822D0072822D00828DF
:101F800022D0092822D00A2822D00B2822D00120D2
:101F9000BBFBF0F0002820D06168884601EB4101CE
:101FA000814219D8B0EB083F16D817E00220EFE7BE
:101FB0000420EDE70620EBE70820E9E70A20E7E741
:101FC0000C20E5E71020E3E72020E1E74020DFE7F1
:101FD0008020DDE73046DBE7012710E27DB3022DEC
:101FE00075D0042D74D0082DF6D1606AA8B10128EF
:101FF0006FD002286ED003286DD004286CD005283D
:102000006BD006286AD0072869D0082868D009282C
:1020100067D00A287ED00B2800D0012632464D46D4
:10202000002358460021FEF7E5F8090241EA106155
:1020300002024FEA58001018694142463EE0FFE7AD
:10204000FEF756FE4D46494684469AE0012815D0D3
:10205000022815D0032815D0042815D0052815D03E
:10206000062815D0072815D0082815D0092815D01E
:102070000A2815D00B2814D0012612E0022610E001
:1020800004260EE006260CE008260AE00A2608E0F0
:102090000C2606E0102604E0202602E0402600E0A0
:1020A0008026324600236046FEF7A4F809026268E3
:1020B00041EA106103025008181869410023FEF735
:1020C00099F8224AA0F5407191426FD984E709E05E
:1020D00052E05BE05CE05DE05EE05FE060E061E01C
:1020E00062E064E0606AB8B1012831D0022831D0E2
:1020F000032831D0042831D0052831D0062831D02A
:10210000072831D0082831D0092831D00A2831D009
:102110000B2800E04DE000D0012632464D4600235A
:1021200050467FE700800040F369FFCFFFF4FF11C6
:1021300000380140001002400044004000480040C8
:10214000004C0040005000400024F400FFFC0F0051
:102150000226E2E70426E0E70626DEE70826DCE7BB
:102160000A26DAE70C26D8E71026D6E72026D4E799
:102170004026D2E78026D0E7FEF7DEFD84464D46B6
:102180004946606A00283FF477AF5FE7022645E7DB
:10219000042643E7062641E708263FE70A263DE7EF
:1021A0000C263BE7102639E7202637E725E14026B5
:1021B00034E7802632E7E0694FF6EF7858456ED174
:1021C000092D83D2DFE805F006093C0580050505E9
:1021D000830001E7FEF78CFD01E0FEF79BFD014661
:1021E000606AA8B1012815D0022815D0032815D09F
:1021F000042815D0052815D0062815D0072815D095
:10220000082815D0092815D00A2815D00B2814D075
:10221000012612E0022610E004260EE006260CE05D
:1022200008260AE00A2608E00C2606E0102604E04C
:10223000202602E0402600E08026B1FBF6F01AE0FE
:10224000606AA8B101282BD002282BD003282BD0FC
:1022500004282BD005282BD006282BD007282BD0DC
:1022600008282BD009282BD00A282BD00B2800D0E7
:102270000126BAFBF6F04100606801EB5001B1FBAA
:10228000F0F080B2A0F110014145A2D84FF6F071F4
:102290000140C0F3420001432068C160AFE046E066
:1022A0000226E6E70426E4E70626E2E70826E0E75A
:1022B0000A26DEE70C26DCE71026DAE72026D8E738
:1022C0004026D6E78026D4E7FEF736FD87E7606A2A
:1022D000A8B1012817D0022817D0032817D0042846
:1022E00017D0052817D0062817D0072817D0082898
:1022F00017D0092817D00A2817D00B2800D001269C
:10230000BBFBF6F0B7E70226FAE70426F8E7062655
:10231000F6E70826F4E70A26F2E70C26F0E710268F
:10232000EEE72026ECE74026EAE78026E8E7092DDD
:10233000BFF4CCAEDFE805F006093C0583050505D2
:10234000860049E6FEF7D4FC01E0FEF7E3FC014617
:10235000606AA8B1012815D0022815D0032815D02D
:10236000042815D0052815D0062815D0072815D023
:10237000082815D0092815D00A2815D00B2814D004
:10238000012612E0022610E004260EE006260CE0EC
:1023900008260AE00A2608E00C2606E0102604E0DB
:1023A000202602E0402600E08026B1FBF6F11AE08C
:1023B000606AA8B101282ED002282ED003282ED082
:1023C00004282ED005282ED006282ED007282ED05F
:1023D00008282ED009282ED00A282ED00B2800D06D
:1023E0000126BAFBF6F1606801EB5001B1FBF0F099
:1023F00080B2A0F110014145A3D82168C860012036
:10240000A4F86A0024F8680F3846C4F80490C4F8A9
:10241000089000F047B80226E3E70426E1E7062625
:10242000DFE70826DDE70A26DBE70C26D9E71026DA
:10243000D7E72026D5E74026D3E78026D1E7FEF769
:102440007BFC84E7606AA8B1012817D0022817D066
:10245000032817D0042817D0052817D0062817D02E
:10246000072817D0082817D0092817D00A2817D00E
:102470000B2800D00126BBFBF6F1B4E70226FAE7F1
:102480000426F8E70626F6E70826F4E70A26F2E728
:102490000C26F0E71026EEE72026ECE74026EAE7D8
:1024A0008026E8E730BCBDE8C09FD0F88010212925
:1024B00010D1B0F8561071B1016D02680988C1F3EE
:1024C00008011185016D891C0165B0F85610491E7F
:1024D000A0F85610704701680A6822F080020A606E
:1024E0000068016841F0400101607047D0F8801039
:1024F00021291BD1B0F86A1016E000BFB0F85620B1
:10250000AAB10268D3691B060CD5036D1B88C3F3FF
:1025100008031385026D921C0265B0F85620521E06
:10252000A0F85620491E89B20029E7D170470168FA
:102530008A6822F400028A600068016841F0400164
:1025400001607047D0F8801021290ED1B0F85610E4
:1025500061B1016D026809781185016D491C016541
:10256000B0F85610491EA0F85610704701680A6866
:1025700022F080020A600068016841F040010160B9
:1025800070470000D0F88010212919D1B0F86A10E6
:1025900014E000BFB0F856209AB10268D3691B0658
:1025A0000AD5036D1B781385026D521C0265B0F8C5
:1025B0005620521EA0F85620491E89B20029E9D1A2
:1025C000704701688A6822F400028A600068016826
:1025D00041F04001016070472DE9F04198461746EF
:1025E0000E460446069D08E0681C06D0FDF7A6FFCF
:1025F000A0EB0800A8420BD855B12068C06936EAA4
:10260000000019D00020B842EED00020BDE8F081D3
:102610002068016821F4D07101602068816821F090
:10262000010181602020C4F88000C4F884000020EB
:1026300084F87C000320E9E70120E4E70148FEF785
:10264000E5BE000014000020FEE70907090E00287F
:1026500004DB00F1E02080F80014704700F00F0068
:1026600000F1E02080F8141D704702E008C8121F36
:1026700008C1002AFAD170477047002001E001C16B
:10268000121F002AFBD1704708B5FDF765FFFFF761
:1026900014FA0F48C16C41F08001C164C16C01F0B3
:1026A00080010091C16C41F00401C164C06C00F074
:1026B00004000090FFF738F8064D4FF47A740D22AD
:1026C00005482968FEF7E0FF2046FDF745FEF6E7DE
:1026D0000010024000000020140000200000000054
:1026E000000000000102030406070809A08601009B
:1026F000400D0300801A060000350C0040420F0018
:1027000080841E0000093D0000127A000024F400BD
:1027100000366E010048E801006CDC020000000099
:102720000102030468656C6C6F20776F726C64093A
:102730000A000000542700080000002014000000D8
:102740006A26000868270008140000208C04000096
:102750007A2600082427000810000000010000006D
:082760000000000000093D002B
:04000005080001BD31
:00000001FF
