:020000040800F2
:10000000B80400209D01000843110008BF1000083B
:1000100041110008A9020008471400080000000070
:100020000000000000000000000000004711000870
:1000300035030008000000004511000849110008C0
:10004000B7010008B7010008B7010008B7010008B0
:10005000B7010008B7010008B7010008B7010008A0
:10006000B7010008B7010008B7010008B701000890
:10007000B7010008AD020008B7010008B701000889
:10008000B7010008B7010008B7010008B701000870
:10009000B7010008B7010008B7010008B701000860
:1000A000B7010008B7010008B7010008B701000850
:1000B000B7010008B7010008B7010008B701000840
:1000C000B7010008B7010008B7010008B701000830
:1000D000B7010008B7010008B7010008B701000820
:1000E000B7010008B7010008B7010008B701000810
:1000F000B7010008B7010008B7010008B701000800
:10010000B7010008B7010008B7010008B7010008EF
:10011000ED110008B7010008B7010008B701000899
:10012000B7010008B7010008B7010008B7010008CF
:10013000B7010008B7010008B7010008B7010008BF
:10014000B7010008B7010008B7010008B7010008AF
:10015000B7010008B7010008B7010008B70100089F
:10016000B7010008B7010008B7010008B70100088F
:10017000B7010008B7010008B7010008000000003F
:10018000B7010008B7010008DFF80CD000F07AF8DA
:100190000048004789140008B8040020064880473A
:1001A00006480047FEE7FEE7FEE7FEE7FEE7FEE75C
:1001B000FEE7FEE7FEE7FEE7D1110008890100082F
:1001C0002DE9F05F0546002092469B46884606468C
:1001D000814640241BE0284641464746224600F01F
:1001E00041F853465A46C01A914110D31146184659
:1001F000224600F028F82D1A67EB01084F462246E8
:100200000120002100F01FF817EB00094E41201ECD
:10021000A4F10104DFDC484631462A464346BDE8E6
:10022000F09FD2B201E000F8012B491EFBD27047CB
:100230000022F6E710B513460A4604461946FFF7B2
:10024000F0FF204610BD202A04DB203A00FA02F11C
:10025000002070479140C2F1200320FA03F31943B4
:1002600090407047202A04DB203A21FA02F0002156
:10027000704721FA02F3D040C2F1200291400843B6
:1002800019467047064C074D06E0E06840F0010350
:1002900094E8070098471034AC42F6D3FFF778FF94
:1002A0004C1500086C150008FEE70000014800F03E
:1002B00055B800005400002001681823CAB2103A53
:1002C000B2FBF3F2054B6FF30901032A9B5CC36594
:1002D00000D9091D81650846704700001C150008FB
:1002E00010B5014600208B698A6A4FF0C07453B183
:1002F000B3F5005F15D072B1012A0CD0022A0AD0E2
:10030000032A09D104E01AB1012A06D0022A03D136
:10031000C96AC90100D5012010BDC96AA142FAD03D
:1003200010BD002AF7D0012AF2D0022AF3D0032A06
:10033000F3D010BD7047704790F83510022903D0F4
:100340008021416501207047052180F83510006843
:10035000016821F001010160002070472DE9F84398
:1003600004464FF00009CDF8009063484FF4165151
:10037000A56D0068B0FBF1F72E6894F85C100820BA
:1003800000FA01F131420FD021680A6852070BD5FB
:100390000A6822F004020A6094F85C108840A860A1
:1003A000606D40F00100606594F85C104FF001084A
:1003B00008FA01F0304208D021684969090604D5DD
:1003C000A860606D40F00200606594F85C10042045
:1003D0008840304208D021680968890704D5A860A0
:1003E000606D40F00400606594F85C101020884057
:1003F000304218D021680968090714D5A860206820
:100400000168490304D50068000308D5A16C07E022
:100410000168C90503D4016821F008010160216C5D
:1004200009B12046884794F85C102020884030426B
:1004300031D021680968C9062DD5A86094F8350027
:1004400005282068016806D0490347D500680003E5
:100450001DD4616C1CE021F0160101602068416927
:1004600021F080014161206C08B9A06C20B12068A6
:10047000016821F00801016094F85C103F20884079
:10048000A86084F8349084F83580216D1FE0E16B1A
:1004900009B120468847606D00282BD0606DC007E9
:1004A00014D0052084F835002068016821F001018E
:1004B00001600098401C0090B84203D82068006892
:1004C000C007F6D184F8349084F83580E16C0029B7
:1004D00010D001B02046BDE8F04308470168C905C7
:1004E000D5D4016821F01001016084F8349084F8BB
:1004F0003580CCE7BDE8F883100000202DE9F041FD
:10050000044600F059F906465CB1002584F83450E1
:10051000022084F835002068016821F001010160A3
:100520000DE00120BDE8F08100F046F9801B0528B0
:1005300005D920206065032084F83500F2E72068A3
:100540000068C007F0D12268116820480140D4E952
:1005500001031843D4E9033633431843636918434E
:10056000A3691843E3691843236A18430843616A7F
:10057000042903D1D4E90B13194308431060206800
:100580004069666A20F0070130460E4301270428BF
:100590000CD1A06A0643E06A40B12046FFF7A0FEF6
:1005A00020B14020606584F83570BAE72068466164
:1005B0002046FFF781FE94F85C203F219140816046
:1005C000656584F835700020ACE700003F8010F0CE
:1005D00070B5044600F0F0F80546601C02D00448EF
:1005E0000078044400F0E8F8401BA042FAD370BD44
:1005F000040000202DE9F84F00224FF001080325E8
:100600004FF00F0E0B6808FA02F42340A3426ED19C
:100610004E68012E05D0022E03D0112E01D0122ECD
:1006200012D186684FEA420C05FA0CF7BE43CF6838
:1006300007FA0CF7374387604668A6430C79C4F382
:100640000014944034434460C668570005FA07FC20
:100650008C6826EA0C06BC403443C4604C68022C0B
:1006600001D0122C13D1D40800EB8404A346D4F893
:10067000209054074FEAD46A0EFA0AF629EA0609CE
:100680000E6906FA0AF646EA0906CBF82060066803
:100690000C7926EA0C0604F00304BC4034430460E1
:1006A0004C68E40065D5364C266846F480462660E2
:1006B000246822F0030604F480440094314C34444E
:1006C000A446D4F808489607370F0EFA07F6B44345
:1006D0002D4EB04201D1002624E02C4EB04201D173
:1006E00001261FE02A4EB04202D102261AE040E065
:1006F000284EB04201D1032614E0274EB04201D16A
:1007000004260FE0254EB04201D105260AE0244E12
:10071000B04201D1062605E0224EB04201D10726A3
:1007200000E00826BE402643CCF808681E4E346818
:100730004F689C43FF0300D51C4334601A4C241DB2
:1007400026684F689E43BF0300D51E432660164EA1
:10075000083634684F689C43FF0200D51C43346060
:10076000114E0C3634684F689C43BF0200D51C43C1
:100770003460521C102AFFF445AFBDE8F88F00002A
:1007800044380240003001400000024000040240B2
:1007900000080240000C0240001002400014024019
:1007A00000180240001C0240003C01400AB1816177
:1007B00070470904FBE700000148806870470000AB
:1007C000040000200248816802781144816070476B
:1007D000040000200B4810B5016841F4007101606D
:1007E000016841F480610160016841F48071016039
:1007F000032000F06FF8002000F006F800F024F865
:10080000002010BD003C024070B50D4D04464FF471
:100810007A712878B1FBF0F00A490968B1FBF0F071
:1008200000F002FB48B9102C07D200222146501ECE
:1008300000F030F800206C6070BD012070BD000039
:1008400004000020100000200A4808B5016841F4A7
:1008500080410160006800F4804000900548001F5E
:10086000016841F080510160006800F08050009004
:1008700008BD000044380240002809DB00F01F02D8
:10088000012191404009800000F1E020C0F80011F2
:1008900070470000F0B40E4B1B680C46C3F30223F4
:1008A000C3F10705042D00D90425191D072901D21C
:1008B000002300E0DB1E012606FA05F1491E214057
:1008C00099409E40761E16403143F0BC00F0BCBDFE
:1008D0000CED00E0064900F0070208684FF6FF0340
:1008E000184040EA0220034A1043086070470000A5
:1008F0000CED00E00000FA052DE9F0470E4605007A
:1009000065D0DFF81481D8F80000F7B200F00F00CE
:10091000B04207D288F80070D8F8000000F00F004D
:10092000B04254D128683D4C810712D5400703D509
:10093000206840F4E05020602878000703D5206844
:1009400040F4604020602068A96820F0F00008436F
:1009500020602878C0072DD0304968680839012800
:1009600012D0022813D0032811D009688907002962
:100970002DDA216821F0030101432160FFF71CFFFC
:10098000814641F2883A0EE009688903EFE7096879
:100990008901ECE7FFF710FFA0EB0901514502D9EF
:1009A0000320BDE8F0872068696800F00C00B0EB18
:1009B000810FEFD1D8F80010404601F00F01B1428D
:1009C00007D90770006800F00F00B04201D0012085
:1009D000E7E72878400705D52068E96820F4E0506B
:1009E000084320602878000706D52068296920F48C
:1009F000604040EAC100206000F038F82168084AF1
:100A0000C1F30311515CC8400649086006480068FC
:100A1000FFF7FAFE0020C4E7003C0240083802401D
:100A20002415000810000020080000200448054993
:100A300000680968044AC1F38221515CC8407047CC
:100A40001000002008380240341500080448054909
:100A500000680968044AC1F34231515CC8407047DC
:100A6000100000200838024034150008154810B561
:100A7000006810F00C02144813D04110042A0FD063
:100A8000082A0ED10F4C241F2268236802F03F026F
:100A90005B0207D52068C0F38810A0FB010106E0C7
:100AA000084610BD2168C1F38811A1FB0001002395
:100AB000FFF786FB2168C1F30141491C4900B0FBE7
:100AC000F1F010BD083802400024F4002DE9F84F81
:100AD000040076D02078DFF838A3CE4DC00749D087
:100AE000DAF800105046C1F38101012908D00068EE
:100AF000C0F3810002280AD1281D0068400206D5F3
:100B00002868800336D560680028E2D032E060684B
:100B1000B0F5803F10D0B0F5A02F286810D020F499
:100B200080302860286820F4802028606068A0B1A8
:100B3000FFF742FE06460CE0286840F48030F4E7F8
:100B400040F480202860F7E7FFF736FE801B64281A
:100B500073D828688003F7D50CE0FFF72DFE064612
:100B600005E000BFFFF728FE801B6428F0D8286846
:100B70008003F7D42078DFF8A08280074FF00009C7
:100B80003ED5DAF80010504611F00C0F09D000687D
:100B9000C0F3810002280BD19D48001F006840026D
:100BA00006D42868800715D5E068012809D111E02E
:100BB000E068B8B10120C8F80000FFF7FDFD064667
:100BC00005E020E1FFF7F8FD801B0228C0D8286867
:100BD0008007F7D52868216920F0F80040EAC100B5
:100BE00028600DE0C8F80090FFF7E6FD064604E037
:100BF000FFF7E2FD801B02281FD828688007F7D482
:100C00002078000722D5824E844861696C3671B124
:100C100001210160FFF7D0FD074604E0FFF7CCFD9E
:100C2000C01B022809D830688007F7D50EE0C0F84D
:100C30000090FFF7C1FD074605E082E0FFF7BCFD2D
:100C4000C01B02287DD830688007F7D42078400781
:100C500068D5DFF8BCB100270BF1380BDBF80000DA
:100C6000C0000BD4DBF8001041F08051CBF800102D
:100C7000DBF80000012700F080500090684E3068DB
:100C8000C00510D4306840F480703060FFF794FDE8
:100C9000009005E0FFF790FD0099401A022850D817
:100CA0003068C005F6D55A4EA068683601280FD0C6
:100CB0000528306810D020F001003060306820F046
:100CC00004003060A068B8B1FFF776FD00900FE037
:100CD000306840F00100F4E740F004003060F7E7CE
:100CE000FFF76AFD0099411A41F28830814266D8C7
:100CF00030688007F4D50EE0FFF75EFD009007E056
:100D0000FFF75AFD0099411A41F28830814256D8C6
:100D100030688007F4D42FB1DBF8001021F0805147
:100D2000CBF80010A069D0B3DAF800205146C2F326
:100D30008102022A4AD00228484607D0C8F860003B
:100D400000E03CE0FFF738FD04463BE04746C8F8CA
:100D50006000FFF731FD064605E000BFFFF72CFD00
:100D6000801B02282BD828688001F7D4D4E907011A
:100D70000843A16A2B4A490802EB0141626A41EA31
:100D80008211084394F82C1040EA01612048001FAA
:100D9000016001203866FFF70FFD044605E034E0EE
:100DA000FFF70AFD001B022809D828688001F7D543
:100DB0002BE000BFFFF700FD001B022802D9032033
:100DC000BDE8F88F28688001F4D41EE00128F7D030
:100DD0000868E26900F48001914214D1226A00F0AF
:100DE0003F0191420FD147F6C071626A01409142C2
:100DF00009D1A26A00F44031914204D1E16A00F0C5
:100E00007060884201D00120DAE70020D8E70000B6
:100E1000083802400038024000004742800E474236
:100E2000007000400000FFFF10B5401EB0F1807F51
:100E300001D3012010BD4FF0E02460610F21601745
:100E400000F002FB0020A06107202061002010BDFF
:100E50007047000070B5026804461068D168536995
:100E600010F00F0F52D003F0010501F490762E43DD
:100E70005FD0C20705D0CA0503D5E26B42F001027C
:100E8000E263420705D5DA0703D0E26B42F00202C3
:100E9000E263820705D5DA0703D0E26B42F0040271
:100EA000E263020707D501F020022A4303D0E26B78
:100EB00042F00802E263E26B002A33D0800604D5D8
:100EC000880602D5204600F0ADF920684069E16B44
:100ED000C0F38010090700D428B3204600F094F92D
:100EE0002068416949061AD5416921F040014161F4
:100EF000606BA0B11B490165606BFFF71DFA00280C
:100F000010D0606B016DBDE870400847830610D5B6
:100F10008B060ED52046BDE8704000F083B9204610
:100F2000FFF796FF70BD2046FFF792FF0020E063B9
:100F300070BD030606D50B0604D52046BDE87040FB
:100F400000F050BA4006F3D54806F1D5D1682046E6
:100F500021F04001D160202184F8391000F0AEF872
:100F600070BD0000F911000870B5040004D094F8B9
:100F70003900002510B106E0012070BD84F838501A
:100F8000204600F023F8242084F839002068C16846
:100F900021F40051C160204600F090F920680169F9
:100FA00021F4904101612068416921F02A014161E9
:100FB0002068C16841F40051C160E563202084F8D5
:100FC000390084F83A00002070BD000070B586B08A
:100FD000064614216846FFF72BF9234930688842FA
:100FE0003FD122480025016841F4002101600068DA
:100FF00000F4002005901D481038016841F00101FF
:1010000001600068022100F0010005900320CDE995
:1010100000010121CDE9021008200490694614481E
:10102000FFF7E8FA144C134820604005C4E90105B5
:101030004014C4E9035080106561C4E9065025627C
:1010400020466562FFF75AFA08B1FFF774F9746336
:10105000002211463420A663FFF71CFC3420FFF762
:101060000BFC06B070BD0000004C00404038024050
:10107000000002404060024054000020704790F899
:101080003930202B18D1A9B1A2B190F83830012BFA
:1010900012D001628284C2840021C163212280F8BF
:1010A000392080F838100068C16841F08001C160C3
:1010B0000020704701207047022070477047FEE70C
:1010C00070B51D4C86B00025206840F0800020607F
:1010D000206800F080000590206840F0010020604A
:1010E0002068142100F0010005906846FFF7A0F881
:1010F000206840F080002060206800F080000590AB
:10110000206840F00800206020680C4E00F00800C5
:101110004FF470440590002221463046FFF746FB0D
:101120000120CDE900400320CDE902506946304658
:10113000FFF760FA06B070BD30380240000C024084
:10114000FEE7704770477047FFF73CBB30B593B080
:1011500030216846FFF76CF814210CA8FFF768F8F7
:1011600019480025016841F080510160006800F0D5
:10117000805011901548016841F480410160006879
:10118000022400F48040119001200090000401909E
:101190008001CDE9064008AA0420A82182E81300B6
:1011A0000B906846FFF792FC0CA90F2081E83100F4
:1011B0004FF4A0500F90E002109005210CA8FFF70B
:1011C0009BFB13B030BD000040380240007000406F
:1011D0000548016841F47001016003494FF0006067
:1011E000803908607047000088ED00E00148FFF793
:1011F00031BE00001400002010B5806B0021C185B5
:10120000C184FFF725FE10BD0168CA6822F4907200
:10121000CA6001684A6922F001024A61202180F80F
:101220003A10704710B590F83A10222901D00220E8
:1012300010BD8168B1F5805F11D001690029016896
:101240001FD0496801F07F03816A4A1C82620B70DB
:10125000C18D491E0904090CC18518D02BE0026913
:10126000816A002A0268526805D0D2B20A80816A77
:10127000491C8162ECE7C2F308020A80816A891C7A
:10128000F7E74A68816A4B1C83620A70E0E70168ED
:10129000CA6822F02002CA600168CA6822F480721B
:1012A000CA6001684A6922F001024A61202180F87F
:1012B0003A10FFF7E3FE002010BD00002DE9F041D9
:1012C000044600680169E26821F44051114301615C
:1012D0002169A068E26908436169114308432168F4
:1012E000CA6849F20C639A430243CA6020684169A4
:1012F000A26921F4407111434161E0691927642515
:101300003226B0F5004F354A354920684FF00008C5
:1013100006D0884201D0904236D1FFF797FB35E0E6
:10132000884201D0904202D1FFF790FB01E0FFF725
:101330007DFB61684A18A0FB070148EB0803FEF734
:101340003FFF0146B0FBF5F00201B1FBF5F06FF095
:101350001803584301EB800006EBC000B0FBF5F02A
:1013600000F0F80002EB4002B1FBF5F0584301EB4E
:10137000800006EBC000B0FBF5F000F0070021682C
:1013800010448860BDE8F081FFF750FB61688B0F67
:101390008A00A0FB0701FEF713FF0146B0FBF5F042
:1013A0006FF01802504301EB800006EB0010B0FB19
:1013B000F5F000F0F002B1FBF5F002EB0012B1FB2A
:1013C000F5F06FF01803584301EB800006EB0010B6
:1013D000B0FBF5F000F00F00D1E700000014014071
:1013E0000010014090F83910212901D002207047E7
:1013F0008168B1F5805F016A0BD04A1C0262026805
:1014000009785160C18C491E0904090CC1840ED0B1
:1014100017E009880268C1F30801516001690029D9
:10142000016A02D0491C0162ECE7891CFBE70168F4
:10143000CA6822F08002CA600068C16841F04001B9
:10144000C16000207047FEE70907090E002804DB91
:1014500000F1E02080F80014704700F00F0000F168
:10146000E02080F8141D704702E008C8121F08C170
:10147000002AFAD170477047002001E001C1121F15
:10148000002AFBD17047000008B5FFF7A3F9FFF76A
:101490005DFEFFF715FE1D480025016841F40011AF
:1014A000016000682A4600F40010009029460D20D3
:1014B000FFF7F0F90D20FFF7DFF9164C1448206014
:1014C0004FF4E130C4E901050C20E560C4E90450A3
:1014D000A5612046E561FFF747FD2068C16841F03E
:1014E0004001C1602068C16841F02001C1600A4D1F
:1014F0004FF47A740F2207482968FFF7C0FD204691
:10150000FFF766F82046FFF763F8F3E7303802404C
:10151000004C0040140000200000002000061016BF
:101520000006101600000000000000000102030485
:1015300006070809000000000102030468656C6CDE
:101540006F20776F726C642109090A006C1500081E
:101550000000002014000000681400088015000836
:1015600014000020A4040000781400083C150008B2
:101570000100000010000000000000000024F40042
:040000050800018965
:00000001FF
